{
  "contractName": "ApricotSwap",
  "abi": [
    {
      "anonymous": false,
      "inputs": [
        {
          "indexed": false,
          "internalType": "uint256",
          "name": "timestamp",
          "type": "uint256"
        },
        {
          "indexed": false,
          "internalType": "uint256",
          "name": "assetAmount",
          "type": "uint256"
        }
      ],
      "name": "AssetEscrowed",
      "type": "event"
    },
    {
      "anonymous": false,
      "inputs": [
        {
          "indexed": false,
          "internalType": "uint256",
          "name": "timestamp",
          "type": "uint256"
        },
        {
          "indexed": false,
          "internalType": "uint256",
          "name": "amountRedeemed",
          "type": "uint256"
        }
      ],
      "name": "AssetRedeemed",
      "type": "event"
    },
    {
      "anonymous": false,
      "inputs": [
        {
          "indexed": false,
          "internalType": "uint256",
          "name": "timestamp",
          "type": "uint256"
        },
        {
          "indexed": false,
          "internalType": "uint256",
          "name": "amountRefunded",
          "type": "uint256"
        }
      ],
      "name": "AssetRefunded",
      "type": "event"
    },
    {
      "anonymous": false,
      "inputs": [
        {
          "indexed": false,
          "internalType": "uint256",
          "name": "timestamp",
          "type": "uint256"
        },
        {
          "indexed": false,
          "internalType": "uint256",
          "name": "premiumAmount",
          "type": "uint256"
        }
      ],
      "name": "EscrowPremiumDeposited",
      "type": "event"
    },
    {
      "anonymous": false,
      "inputs": [
        {
          "indexed": false,
          "internalType": "uint256",
          "name": "timestamp",
          "type": "uint256"
        },
        {
          "indexed": false,
          "internalType": "uint256",
          "name": "amountRedeemed",
          "type": "uint256"
        }
      ],
      "name": "EscrowPremiumRedeemed",
      "type": "event"
    },
    {
      "anonymous": false,
      "inputs": [
        {
          "indexed": false,
          "internalType": "uint256",
          "name": "timestamp",
          "type": "uint256"
        },
        {
          "indexed": false,
          "internalType": "uint256",
          "name": "amountRefunded",
          "type": "uint256"
        }
      ],
      "name": "EscrowPremiumRefunded",
      "type": "event"
    },
    {
      "anonymous": false,
      "inputs": [
        {
          "indexed": false,
          "internalType": "uint256",
          "name": "timestamp",
          "type": "uint256"
        },
        {
          "indexed": false,
          "internalType": "uint256",
          "name": "premiumAmount",
          "type": "uint256"
        },
        {
          "indexed": false,
          "internalType": "address[3]",
          "name": "path",
          "type": "address[3]"
        }
      ],
      "name": "RedemptionPremiumDeposited",
      "type": "event"
    },
    {
      "anonymous": false,
      "inputs": [
        {
          "indexed": false,
          "internalType": "uint256",
          "name": "timestamp",
          "type": "uint256"
        },
        {
          "indexed": false,
          "internalType": "uint256",
          "name": "amountRedeemed",
          "type": "uint256"
        }
      ],
      "name": "RedemptionPremiumRedeemed",
      "type": "event"
    },
    {
      "anonymous": false,
      "inputs": [
        {
          "indexed": false,
          "internalType": "uint256",
          "name": "timestamp",
          "type": "uint256"
        },
        {
          "indexed": false,
          "internalType": "uint256",
          "name": "amountRefunded",
          "type": "uint256"
        }
      ],
      "name": "RedemptionPremiumRefunded",
      "type": "event"
    },
    {
      "anonymous": false,
      "inputs": [
        {
          "indexed": false,
          "internalType": "uint256",
          "name": "timestamp",
          "type": "uint256"
        },
        {
          "indexed": false,
          "internalType": "uint256",
          "name": "startTime",
          "type": "uint256"
        },
        {
          "indexed": false,
          "internalType": "bytes32",
          "name": "escrowHashLock",
          "type": "bytes32"
        },
        {
          "indexed": false,
          "internalType": "bytes32",
          "name": "premiumHashLock",
          "type": "bytes32"
        },
        {
          "indexed": false,
          "internalType": "address payable",
          "name": "sender",
          "type": "address"
        },
        {
          "indexed": false,
          "internalType": "address payable",
          "name": "reciever",
          "type": "address"
        }
      ],
      "name": "SetUp",
      "type": "event"
    },
    {
      "inputs": [
        {
          "internalType": "bytes32",
          "name": "",
          "type": "bytes32"
        }
      ],
      "name": "escrowPremiums",
      "outputs": [
        {
          "internalType": "uint256",
          "name": "expected",
          "type": "uint256"
        },
        {
          "internalType": "uint256",
          "name": "current",
          "type": "uint256"
        },
        {
          "internalType": "uint256",
          "name": "deadline",
          "type": "uint256"
        },
        {
          "internalType": "uint256",
          "name": "timeout",
          "type": "uint256"
        }
      ],
      "stateMutability": "view",
      "type": "function",
      "constant": true
    },
    {
      "inputs": [
        {
          "internalType": "bytes32",
          "name": "",
          "type": "bytes32"
        }
      ],
      "name": "escrows",
      "outputs": [
        {
          "internalType": "uint256",
          "name": "expected",
          "type": "uint256"
        },
        {
          "internalType": "uint256",
          "name": "current",
          "type": "uint256"
        },
        {
          "internalType": "uint256",
          "name": "deadline",
          "type": "uint256"
        },
        {
          "internalType": "uint256",
          "name": "timeout",
          "type": "uint256"
        }
      ],
      "stateMutability": "view",
      "type": "function",
      "constant": true
    },
    {
      "inputs": [
        {
          "internalType": "bytes32",
          "name": "",
          "type": "bytes32"
        }
      ],
      "name": "redemptionPremiums",
      "outputs": [
        {
          "internalType": "bytes32",
          "name": "hashlock",
          "type": "bytes32"
        },
        {
          "internalType": "uint256",
          "name": "expected",
          "type": "uint256"
        },
        {
          "internalType": "uint256",
          "name": "current",
          "type": "uint256"
        },
        {
          "internalType": "uint256",
          "name": "deadline",
          "type": "uint256"
        },
        {
          "internalType": "uint256",
          "name": "timeout",
          "type": "uint256"
        }
      ],
      "stateMutability": "view",
      "type": "function",
      "constant": true
    },
    {
      "inputs": [
        {
          "internalType": "bytes32",
          "name": "",
          "type": "bytes32"
        }
      ],
      "name": "swaps",
      "outputs": [
        {
          "internalType": "address",
          "name": "assetName",
          "type": "address"
        },
        {
          "internalType": "int32",
          "name": "timeout",
          "type": "int32"
        },
        {
          "internalType": "address",
          "name": "sender",
          "type": "address"
        },
        {
          "internalType": "address",
          "name": "receiver",
          "type": "address"
        }
      ],
      "stateMutability": "view",
      "type": "function",
      "constant": true
    },
    {
      "inputs": [
        {
          "internalType": "uint256",
          "name": "expectedEscrowAmount",
          "type": "uint256"
        },
        {
          "internalType": "uint256",
          "name": "expectedEscrowPremiumAmount",
          "type": "uint256"
        },
        {
          "internalType": "address payable",
          "name": "sender",
          "type": "address"
        },
        {
          "internalType": "address payable",
          "name": "receiver",
          "type": "address"
        },
        {
          "internalType": "address",
          "name": "assetName",
          "type": "address"
        },
        {
          "internalType": "bytes32",
          "name": "escrowHashLock",
          "type": "bytes32"
        },
        {
          "internalType": "bytes32",
          "name": "premiumHashLock",
          "type": "bytes32"
        },
        {
          "internalType": "uint256",
          "name": "startTime",
          "type": "uint256"
        },
        {
          "internalType": "address[3]",
          "name": "path",
          "type": "address[3]"
        }
      ],
      "name": "setup",
      "outputs": [],
      "stateMutability": "payable",
      "type": "function",
      "payable": true
    },
    {
      "inputs": [
        {
          "internalType": "bytes32",
          "name": "escrowHashLock",
          "type": "bytes32"
        }
      ],
      "name": "depositEscrowPremium",
      "outputs": [],
      "stateMutability": "payable",
      "type": "function",
      "payable": true
    },
    {
      "inputs": [
        {
          "internalType": "bytes32",
          "name": "escrowHashLock",
          "type": "bytes32"
        },
        {
          "internalType": "bytes32",
          "name": "premiumHashLock",
          "type": "bytes32"
        },
        {
          "internalType": "bytes32",
          "name": "preimage",
          "type": "bytes32"
        },
        {
          "internalType": "address[3]",
          "name": "path",
          "type": "address[3]"
        }
      ],
      "name": "depositRedemptionPremium",
      "outputs": [],
      "stateMutability": "payable",
      "type": "function",
      "payable": true
    },
    {
      "inputs": [
        {
          "internalType": "bytes32",
          "name": "escrowHashLock",
          "type": "bytes32"
        }
      ],
      "name": "escrowAsset",
      "outputs": [],
      "stateMutability": "payable",
      "type": "function",
      "payable": true
    },
    {
      "inputs": [
        {
          "internalType": "bytes32",
          "name": "escrowHashLock",
          "type": "bytes32"
        },
        {
          "internalType": "bytes32",
          "name": "preimage",
          "type": "bytes32"
        },
        {
          "internalType": "address[3]",
          "name": "path",
          "type": "address[3]"
        }
      ],
      "name": "unlockHashlock",
      "outputs": [],
      "stateMutability": "payable",
      "type": "function",
      "payable": true
    },
    {
      "inputs": [
        {
          "internalType": "bytes32",
          "name": "escrowHashLock",
          "type": "bytes32"
        }
      ],
      "name": "redeemAsset",
      "outputs": [],
      "stateMutability": "payable",
      "type": "function",
      "payable": true
    },
    {
      "inputs": [
        {
          "internalType": "bytes32",
          "name": "escrowHashLock",
          "type": "bytes32"
        }
      ],
      "name": "refundAsset",
      "outputs": [],
      "stateMutability": "nonpayable",
      "type": "function"
    },
    {
      "inputs": [
        {
          "internalType": "bytes32",
          "name": "escrowHashLock",
          "type": "bytes32"
        }
      ],
      "name": "redeemEscrowPremium",
      "outputs": [],
      "stateMutability": "nonpayable",
      "type": "function"
    },
    {
      "inputs": [
        {
          "internalType": "bytes32",
          "name": "escrowHashLock",
          "type": "bytes32"
        }
      ],
      "name": "refundEscrowPremium",
      "outputs": [],
      "stateMutability": "payable",
      "type": "function",
      "payable": true
    },
    {
      "inputs": [
        {
          "internalType": "bytes32",
          "name": "escrowHashLock",
          "type": "bytes32"
        }
      ],
      "name": "redeemRedemptionPremium",
      "outputs": [],
      "stateMutability": "nonpayable",
      "type": "function"
    },
    {
      "inputs": [
        {
          "internalType": "bytes32",
          "name": "escrowHashLock",
          "type": "bytes32"
        }
      ],
      "name": "refundRedemptionPremium",
      "outputs": [],
      "stateMutability": "payable",
      "type": "function",
      "payable": true
    }
  ],
  "bytecode": "0x608060405234801561001057600080fd5b50613761806100206000396000f3fe6080604052600436106100e85760003560e01c8063a4119ab11161008a578063eb84e7f211610059578063eb84e7f21461025f578063f3413d6e1461029f578063f7ecfd5a146102df578063fbd88b0a14610320576100e8565b8063a4119ab1146101ef578063a87921291461020b578063ab8080b414610227578063e8d8c29b14610243576100e8565b80635385c914116100c65780635385c9141461017257806367c515651461019b57806374c74a1f146101b75780637a32924b146101d3576100e8565b80632d83549c146100ed5780633bdebfce1461012d57806351f56c7314610149575b600080fd5b3480156100f957600080fd5b50610114600480360381019061010f9190612acc565b610349565b6040516101249493929190612b12565b60405180910390f35b61014760048036038101906101429190612acc565b610379565b005b34801561015557600080fd5b50610170600480360381019061016b9190612acc565b610617565b005b34801561017e57600080fd5b5061019960048036038101906101949190612acc565b6108b8565b005b6101b560048036038101906101b09190612acc565b610bc5565b005b6101d160048036038101906101cc9190612acc565b610df5565b005b6101ed60048036038101906101e89190612b7e565b611048565b005b61020960048036038101906102049190612bd1565b611498565b005b61022560048036038101906102209190612acc565b61194e565b005b610241600480360381019061023c9190612d00565b611d55565b005b61025d60048036038101906102589190612acc565b612138565b005b34801561026b57600080fd5b5061028660048036038101906102819190612acc565b612548565b6040516102969493929190612df5565b60405180910390f35b3480156102ab57600080fd5b506102c660048036038101906102c19190612acc565b6125e5565b6040516102d69493929190612b12565b60405180910390f35b3480156102eb57600080fd5b5061030660048036038101906103019190612acc565b612615565b604051610317959493929190612e49565b60405180910390f35b34801561032c57600080fd5b5061034760048036038101906103429190612acc565b61264b565b005b60026020528060005260406000206000915090508060000154908060010154908060020154908060030154905084565b806001600082815260200190815260200160002060040160009054906101000a900473ffffffffffffffffffffffffffffffffffffffff1673ffffffffffffffffffffffffffffffffffffffff163373ffffffffffffffffffffffffffffffffffffffff16146103e857600080fd5b60036000828152602001908152602001600020600201544211801561044f5750600015156001600083815260200190815260200160002060030160026006811061043557610434612e9c565b5b602091828204019190069054906101000a900460ff161515145b8061049c5750600115156001600083815260200190815260200160002060030160036006811061048257610481612e9c565b5b602091828204019190069054906101000a900460ff161515145b6104a557600080fd5b6001600083815260200190815260200160002060020160009054906101000a900473ffffffffffffffffffffffffffffffffffffffff1673ffffffffffffffffffffffffffffffffffffffff166323b872dd306001600086815260200190815260200160002060040160009054906101000a900473ffffffffffffffffffffffffffffffffffffffff1660036000878152602001908152602001600020600101546040518463ffffffff1660e01b815260040161056493929190612ecb565b6020604051808303816000875af1158015610583573d6000803e3d6000fd5b505050506040513d601f19601f820116820180604052508101906105a79190612f3a565b507fcf008751473d529615962f99f41102678a0ed68b2397722c2878a28413d302e54260036000858152602001908152602001600020600101546040516105ef929190612f67565b60405180910390a1600060036000848152602001908152602001600020600101819055505050565b806001600082815260200190815260200160002060040160009054906101000a900473ffffffffffffffffffffffffffffffffffffffff1673ffffffffffffffffffffffffffffffffffffffff163373ffffffffffffffffffffffffffffffffffffffff161461068657600080fd5b60011515600160008381526020019081526020016000206003016002600681106106b3576106b2612e9c565b5b602091828204019190069054906101000a900460ff161515146106d557600080fd5b600015156001600083815260200190815260200160002060030160046006811061070257610701612e9c565b5b602091828204019190069054906101000a900460ff1615151461072457600080fd5b6004600082815260200190815260200160002060040154421161074657600080fd5b6001600083815260200190815260200160002060020160009054906101000a900473ffffffffffffffffffffffffffffffffffffffff1673ffffffffffffffffffffffffffffffffffffffff166323b872dd306001600086815260200190815260200160002060040160009054906101000a900473ffffffffffffffffffffffffffffffffffffffff1660046000878152602001908152602001600020600201546040518463ffffffff1660e01b815260040161080593929190612ecb565b6020604051808303816000875af1158015610824573d6000803e3d6000fd5b505050506040513d601f19601f820116820180604052508101906108489190612f3a565b507fd2b05ec50bcfed41890119d1f0ffd86efc3290e105f7e40beb0927820e9c807f426004600085815260200190815260200160002060020154604051610890929190612f67565b60405180910390a1600060046000848152602001908152602001600020600201819055505050565b806001600082815260200190815260200160002060040160009054906101000a900473ffffffffffffffffffffffffffffffffffffffff1673ffffffffffffffffffffffffffffffffffffffff163373ffffffffffffffffffffffffffffffffffffffff161461092757600080fd5b600115156001600083815260200190815260200160002060030160036006811061095457610953612e9c565b5b602091828204019190069054906101000a900460ff161515146109ac576040517f08c379a00000000000000000000000000000000000000000000000000000000081526004016109a390612fed565b60405180910390fd5b60001515600160008381526020019081526020016000206003016004600681106109d9576109d8612e9c565b5b602091828204019190069054906101000a900460ff16151514610a31576040517f08c379a0000000000000000000000000000000000000000000000000000000008152600401610a2890613059565b60405180910390fd5b60026000828152602001908152602001600020600301544211610a5357600080fd5b6001600083815260200190815260200160002060020160009054906101000a900473ffffffffffffffffffffffffffffffffffffffff1673ffffffffffffffffffffffffffffffffffffffff166323b872dd306001600086815260200190815260200160002060040160009054906101000a900473ffffffffffffffffffffffffffffffffffffffff1660026000878152602001908152602001600020600101546040518463ffffffff1660e01b8152600401610b1293929190612ecb565b6020604051808303816000875af1158015610b31573d6000803e3d6000fd5b505050506040513d601f19601f82011682018060405250810190610b559190612f3a565b507f4b06c83c5aa29be5eff379b09758820b2d34365c84b5a25db1ae55a2e7246b07426002600085815260200190815260200160002060010154604051610b9d929190612f67565b60405180910390a1600060026000848152602001908152602001600020600101819055505050565b806001600082815260200190815260200160002060050160009054906101000a900473ffffffffffffffffffffffffffffffffffffffff1673ffffffffffffffffffffffffffffffffffffffff163373ffffffffffffffffffffffffffffffffffffffff1614610c3457600080fd5b6001151560016000838152602001908152602001600020600301600460068110610c6157610c60612e9c565b5b602091828204019190069054906101000a900460ff16151514610c8357600080fd5b6001600083815260200190815260200160002060020160009054906101000a900473ffffffffffffffffffffffffffffffffffffffff1673ffffffffffffffffffffffffffffffffffffffff166323b872dd306001600086815260200190815260200160002060050160009054906101000a900473ffffffffffffffffffffffffffffffffffffffff1660046000878152602001908152602001600020600201546040518463ffffffff1660e01b8152600401610d4293929190612ecb565b6020604051808303816000875af1158015610d61573d6000803e3d6000fd5b505050506040513d601f19601f82011682018060405250810190610d859190612f3a565b507f18294d8cd30a916056244f53ba498d2a5abe8aa32979ab45b18d486ee7c3976e426004600085815260200190815260200160002060020154604051610dcd929190612f67565b60405180910390a1600060046000848152602001908152602001600020600201819055505050565b806001600082815260200190815260200160002060050160009054906101000a900473ffffffffffffffffffffffffffffffffffffffff1673ffffffffffffffffffffffffffffffffffffffff163373ffffffffffffffffffffffffffffffffffffffff1614610e6457600080fd5b6001151560016000838152602001908152602001600020600301600460068110610e9157610e90612e9c565b5b602091828204019190069054906101000a900460ff16151514610eb357600080fd5b6002600082815260200190815260200160002060030154421115610ed657600080fd5b6001600083815260200190815260200160002060020160009054906101000a900473ffffffffffffffffffffffffffffffffffffffff1673ffffffffffffffffffffffffffffffffffffffff166323b872dd306001600086815260200190815260200160002060050160009054906101000a900473ffffffffffffffffffffffffffffffffffffffff1660026000878152602001908152602001600020600101546040518463ffffffff1660e01b8152600401610f9593929190612ecb565b6020604051808303816000875af1158015610fb4573d6000803e3d6000fd5b505050506040513d601f19601f82011682018060405250810190610fd89190612f3a565b507f158c504a7828f2c25b618af862913db673346e646cc68ab9963c3731e6ff4fe4426002600085815260200190815260200160002060010154604051611020929190612f67565b60405180910390a1600060026000848152602001908152602001600020600101819055505050565b8282826003806020026040519081016040528092919082600360200280828437600081840152601f19601f8201169050808301925050505050506001600084815260200190815260200160002060040160009054906101000a900473ffffffffffffffffffffffffffffffffffffffff1673ffffffffffffffffffffffffffffffffffffffff163373ffffffffffffffffffffffffffffffffffffffff16146110f057600080fd5b600015156001600085815260200190815260200160002060030160046006811061111d5761111c612e9c565b5b602091828204019190069054906101000a900460ff1615151480156111845750600115156001600085815260200190815260200160002060030160026006811061116a57611169612e9c565b5b602091828204019190069054906101000a900460ff161515145b61118d57600080fd5b60046000848152602001908152602001600020600401544211156111e6576040517f08c379a00000000000000000000000000000000000000000000000000000000081526004016111dd906130c5565b60405180910390fd5b6001600084815260200190815260200160002060010160006001811061120f5761120e612e9c565b5b015460028360405160200161122491906130e5565b604051602081830303815290604052604051611240919061317a565b602060405180830381855afa15801561125d573d6000803e3d6000fd5b5050506040513d601f19601f8201168201806040525081019061128091906131a6565b1461128a57600080fd5b60006004600085815260200190815260200160002060050160038060200260405190810160405280929190826003801561130f576020028201915b8160009054906101000a900473ffffffffffffffffffffffffffffffffffffffff1673ffffffffffffffffffffffffffffffffffffffff16815260200190600101908083116112c5575b5050505050905060005b600381101561139b5782816003811061133557611334612e9c565b5b602002015173ffffffffffffffffffffffffffffffffffffffff1682826003811061136357611362612e9c565b5b602002015173ffffffffffffffffffffffffffffffffffffffff161461138857600080fd5b808061139390613202565b915050611319565b5060018060008981526020019081526020016000206003016004600681106113c6576113c5612e9c565b5b602091828204019190066101000a81548160ff021916908315150217905550600115156001600089815260200190815260200160002060030160026006811061141257611411612e9c565b5b602091828204019190069054906101000a900460ff161515141561143a5761143987610bc5565b5b600115156001600089815260200190815260200160002060030160036006811061146757611466612e9c565b5b602091828204019190069054906101000a900460ff161515141561148f5761148e87610df5565b5b50505050505050565b838383836001600085815260200190815260200160002060050160009054906101000a900473ffffffffffffffffffffffffffffffffffffffff1673ffffffffffffffffffffffffffffffffffffffff163373ffffffffffffffffffffffffffffffffffffffff161461150a57600080fd5b600115156001600086815260200190815260200160002060030160016006811061153757611536612e9c565b5b602091828204019190069054906101000a900460ff16151514801561159e5750600015156001600086815260200190815260200160002060030160026006811061158457611583612e9c565b5b602091828204019190069054906101000a900460ff161515145b6115a757600080fd5b600160008581526020019081526020016000206000016000600181106115d0576115cf612e9c565b5b01546002836040516020016115e591906130e5565b604051602081830303815290604052604051611601919061317a565b602060405180830381855afa15801561161e573d6000803e3d6000fd5b5050506040513d601f19601f8201168201806040525081019061164191906131a6565b1461164b57600080fd5b60046000858152602001908152602001600020600101546001600086815260200190815260200160002060020160009054906101000a900473ffffffffffffffffffffffffffffffffffffffff1673ffffffffffffffffffffffffffffffffffffffff166370a08231336040518263ffffffff1660e01b81526004016116d1919061324b565b602060405180830381865afa1580156116ee573d6000803e3d6000fd5b505050506040513d601f19601f82011682018060405250810190611712919061327b565b101561171d57600080fd5b6004600085815260200190815260200160002060030154421115611776576040517f08c379a000000000000000000000000000000000000000000000000000000000815260040161176d9061331a565b60405180910390fd5b6001600089815260200190815260200160002060020160009054906101000a900473ffffffffffffffffffffffffffffffffffffffff1673ffffffffffffffffffffffffffffffffffffffff166323b872dd600160008b815260200190815260200160002060050160009054906101000a900473ffffffffffffffffffffffffffffffffffffffff1630600460008d8152602001908152602001600020600101546040518463ffffffff1660e01b815260040161183593929190612ecb565b6020604051808303816000875af1158015611854573d6000803e3d6000fd5b505050506040513d601f19601f820116820180604052508101906118789190612f3a565b506004600089815260200190815260200160002060010154600460008a81526020019081526020016000206002018190555060018060008a81526020019081526020016000206003016002600681106118d4576118d3612e9c565b5b602091828204019190066101000a81548160ff0219169083151502179055507fdea1ee7d34f97c70585de052b3c21851a4c153b909403c6860bab59a318e595542600460008b8152602001908152602001600020600201548760405161193c93929190613404565b60405180910390a15050505050505050565b806001600082815260200190815260200160002060040160009054906101000a900473ffffffffffffffffffffffffffffffffffffffff1673ffffffffffffffffffffffffffffffffffffffff163373ffffffffffffffffffffffffffffffffffffffff16146119bd57600080fd5b60011515600160008381526020019081526020016000206003016000600681106119ea576119e9612e9c565b5b602091828204019190069054906101000a900460ff161515148015611a5157506000151560016000838152602001908152602001600020600301600160068110611a3757611a36612e9c565b5b602091828204019190069054906101000a900460ff161515145b611a5a57600080fd5b60036000828152602001908152602001600020600001546001600083815260200190815260200160002060020160009054906101000a900473ffffffffffffffffffffffffffffffffffffffff1673ffffffffffffffffffffffffffffffffffffffff166370a08231336040518263ffffffff1660e01b8152600401611ae0919061324b565b602060405180830381865afa158015611afd573d6000803e3d6000fd5b505050506040513d601f19601f82011682018060405250810190611b21919061327b565b1015611b2c57600080fd5b6003600082815260200190815260200160002060020154421115611b85576040517f08c379a0000000000000000000000000000000000000000000000000000000008152600401611b7c906134ad565b60405180910390fd5b6001600083815260200190815260200160002060020160009054906101000a900473ffffffffffffffffffffffffffffffffffffffff1673ffffffffffffffffffffffffffffffffffffffff166323b872dd6001600085815260200190815260200160002060040160009054906101000a900473ffffffffffffffffffffffffffffffffffffffff163060036000878152602001908152602001600020600001546040518463ffffffff1660e01b8152600401611c4493929190612ecb565b6020604051808303816000875af1158015611c63573d6000803e3d6000fd5b505050506040513d601f19601f82011682018060405250810190611c879190612f3a565b50600360008381526020019081526020016000206000015460036000848152602001908152602001600020600101819055506001806000848152602001908152602001600020600301600160068110611ce357611ce2612e9c565b5b602091828204019190066101000a81548160ff0219169083151502179055507fc1fab24d140f858e9f73109920820eff022fd1107f5c8dfe1845407fde4ca404426003600085815260200190815260200160002060010154604051611d49929190612f67565b60405180910390a15050565b83856001600087815260200190815260200160002060020160006101000a81548173ffffffffffffffffffffffffffffffffffffffff021916908373ffffffffffffffffffffffffffffffffffffffff1602179055506001806000878152602001908152602001600020600301600060068110611dd557611dd4612e9c565b5b602091828204019190066101000a81548160ff021916908315150217905550876001600087815260200190815260200160002060040160006101000a81548173ffffffffffffffffffffffffffffffffffffffff021916908373ffffffffffffffffffffffffffffffffffffffff160217905550866001600087815260200190815260200160002060050160006101000a81548173ffffffffffffffffffffffffffffffffffffffff021916908373ffffffffffffffffffffffffffffffffffffffff1602179055508360016000878152602001908152602001600020600001600060018110611ec857611ec7612e9c565b5b01819055508460016000878152602001908152602001600020600101600060018110611ef757611ef6612e9c565b5b018190555089600260008781526020019081526020016000206000018190555060146007611f2591906134cd565b83611f309190613527565b60026000878152602001908152602001600020600201819055506014600c611f5891906134cd565b83611f639190613527565b600260008781526020019081526020016000206003018190555088600360008781526020019081526020016000206000018190555060146001611fa691906134cd565b83611fb19190613527565b600360008781526020019081526020016000206002018190555060146007611fd991906134cd565b83611fe49190613527565b600360008781526020019081526020016000206003018190555081600460008781526020019081526020016000206005019060036120239291906129e1565b5061202d8261293b565b6004612039919061358b565b61ffff16600460008781526020019081526020016000206001018190555060146120628361293b565b600361206e91906135bf565b61ffff1661207c91906134cd565b836120879190613527565b600460008781526020019081526020016000206003018190555060146120ac8361293b565b60096120b891906135bf565b61ffff166120c691906134cd565b836120d19190613527565b60046000878152602001908152602001600020600401819055507f92095cad04cc986e580ac1ea0035f33618bc15a05776aef8ec64d7be19359f47428487878c8c60405161212496959493929190613606565b60405180910390a150505050505050505050565b806001600082815260200190815260200160002060040160009054906101000a900473ffffffffffffffffffffffffffffffffffffffff1673ffffffffffffffffffffffffffffffffffffffff163373ffffffffffffffffffffffffffffffffffffffff16146121a757600080fd5b60011515600160008381526020019081526020016000206003016002600681106121d4576121d3612e9c565b5b602091828204019190069054906101000a900460ff16151514801561223b5750600015156001600083815260200190815260200160002060030160036006811061222157612220612e9c565b5b602091828204019190069054906101000a900460ff161515145b61224457600080fd5b60026000828152602001908152602001600020600001546001600083815260200190815260200160002060020160009054906101000a900473ffffffffffffffffffffffffffffffffffffffff1673ffffffffffffffffffffffffffffffffffffffff166370a08231336040518263ffffffff1660e01b81526004016122ca919061324b565b602060405180830381865afa1580156122e7573d6000803e3d6000fd5b505050506040513d601f19601f8201168201806040525081019061230b919061327b565b101561231657600080fd5b600260008281526020019081526020016000206002015442111561236f576040517f08c379a0000000000000000000000000000000000000000000000000000000008152600401612366906136b3565b60405180910390fd5b6001600083815260200190815260200160002060020160009054906101000a900473ffffffffffffffffffffffffffffffffffffffff1673ffffffffffffffffffffffffffffffffffffffff166323b872dd6001600085815260200190815260200160002060040160009054906101000a900473ffffffffffffffffffffffffffffffffffffffff163060026000878152602001908152602001600020600001546040518463ffffffff1660e01b815260040161242e93929190612ecb565b6020604051808303816000875af115801561244d573d6000803e3d6000fd5b505050506040513d601f19601f820116820180604052508101906124719190612f3a565b506003600083815260200190815260200160002060000154600260008481526020019081526020016000206001018190555060018060008481526020019081526020016000206003016003600681106124cd576124cc612e9c565b5b602091828204019190066101000a81548160ff0219169083151502179055506124f582610379565b7f2de8394603f49448d27241c438bfa7d442fc4a7b9f9d267fde6b57ad740915b142600260008581526020019081526020016000206001015460405161253c929190612f67565b60405180910390a15050565b60016020528060005260406000206000915090508060020160009054906101000a900473ffffffffffffffffffffffffffffffffffffffff16908060020160149054906101000a900460030b908060040160009054906101000a900473ffffffffffffffffffffffffffffffffffffffff16908060050160009054906101000a900473ffffffffffffffffffffffffffffffffffffffff16905084565b60036020528060005260406000206000915090508060000154908060010154908060020154908060030154905084565b60046020528060005260406000206000915090508060000154908060010154908060020154908060030154908060040154905085565b806001600082815260200190815260200160002060050160009054906101000a900473ffffffffffffffffffffffffffffffffffffffff1673ffffffffffffffffffffffffffffffffffffffff163373ffffffffffffffffffffffffffffffffffffffff16146126ba57600080fd5b60011515600160008381526020019081526020016000206003016002600681106126e7576126e6612e9c565b5b602091828204019190069054906101000a900460ff1615151461270957600080fd5b600115156001600083815260200190815260200160002060030160016006811061273657612735612e9c565b5b602091828204019190069054906101000a900460ff1615151461275857600080fd5b600015156001600083815260200190815260200160002060030160036006811061278557612784612e9c565b5b602091828204019190069054906101000a900460ff161515146127a757600080fd5b600260008281526020019081526020016000206002015442116127c957600080fd5b6001600083815260200190815260200160002060020160009054906101000a900473ffffffffffffffffffffffffffffffffffffffff1673ffffffffffffffffffffffffffffffffffffffff166323b872dd306001600086815260200190815260200160002060050160009054906101000a900473ffffffffffffffffffffffffffffffffffffffff1660036000878152602001908152602001600020600101546040518463ffffffff1660e01b815260040161288893929190612ecb565b6020604051808303816000875af11580156128a7573d6000803e3d6000fd5b505050506040513d601f19601f820116820180604052508101906128cb9190612f3a565b507fdf592194054f79267b448bfac393c36642c041ef6c39924592ab0e98c77b2b71426003600085815260200190815260200160002060010154604051612913929190612f67565b60405180910390a1600060036000848152602001908152602001600020600101819055505050565b6000806000905060005b60038161ffff1610156129d757600073ffffffffffffffffffffffffffffffffffffffff16848261ffff166003811061298157612980612e9c565b5b60200201602081019061299491906136d3565b73ffffffffffffffffffffffffffffffffffffffff1614156129b5576129d7565b6001826129c291906135bf565b915080806129cf90613700565b915050612945565b5080915050919050565b8260038101928215612a63579160200282015b82811115612a6257823573ffffffffffffffffffffffffffffffffffffffff168260006101000a81548173ffffffffffffffffffffffffffffffffffffffff021916908373ffffffffffffffffffffffffffffffffffffffff160217905550916020019190600101906129f4565b5b509050612a709190612a74565b5090565b5b80821115612a8d576000816000905550600101612a75565b5090565b600080fd5b6000819050919050565b612aa981612a96565b8114612ab457600080fd5b50565b600081359050612ac681612aa0565b92915050565b600060208284031215612ae257612ae1612a91565b5b6000612af084828501612ab7565b91505092915050565b6000819050919050565b612b0c81612af9565b82525050565b6000608082019050612b276000830187612b03565b612b346020830186612b03565b612b416040830185612b03565b612b4e6060830184612b03565b95945050505050565b600080fd5b600081905082602060030282011115612b7857612b77612b57565b5b92915050565b600080600060a08486031215612b9757612b96612a91565b5b6000612ba586828701612ab7565b9350506020612bb686828701612ab7565b9250506040612bc786828701612b5c565b9150509250925092565b60008060008060c08587031215612beb57612bea612a91565b5b6000612bf987828801612ab7565b9450506020612c0a87828801612ab7565b9350506040612c1b87828801612ab7565b9250506060612c2c87828801612b5c565b91505092959194509250565b612c4181612af9565b8114612c4c57600080fd5b50565b600081359050612c5e81612c38565b92915050565b600073ffffffffffffffffffffffffffffffffffffffff82169050919050565b6000612c8f82612c64565b9050919050565b612c9f81612c84565b8114612caa57600080fd5b50565b600081359050612cbc81612c96565b92915050565b6000612ccd82612c64565b9050919050565b612cdd81612cc2565b8114612ce857600080fd5b50565b600081359050612cfa81612cd4565b92915050565b60008060008060008060008060006101608a8c031215612d2357612d22612a91565b5b6000612d318c828d01612c4f565b9950506020612d428c828d01612c4f565b9850506040612d538c828d01612cad565b9750506060612d648c828d01612cad565b9650506080612d758c828d01612ceb565b95505060a0612d868c828d01612ab7565b94505060c0612d978c828d01612ab7565b93505060e0612da88c828d01612c4f565b925050610100612dba8c828d01612b5c565b9150509295985092959850929598565b612dd381612cc2565b82525050565b60008160030b9050919050565b612def81612dd9565b82525050565b6000608082019050612e0a6000830187612dca565b612e176020830186612de6565b612e246040830185612dca565b612e316060830184612dca565b95945050505050565b612e4381612a96565b82525050565b600060a082019050612e5e6000830188612e3a565b612e6b6020830187612b03565b612e786040830186612b03565b612e856060830185612b03565b612e926080830184612b03565b9695505050505050565b7f4e487b7100000000000000000000000000000000000000000000000000000000600052603260045260246000fd5b6000606082019050612ee06000830186612dca565b612eed6020830185612dca565b612efa6040830184612b03565b949350505050565b60008115159050919050565b612f1781612f02565b8114612f2257600080fd5b50565b600081519050612f3481612f0e565b92915050565b600060208284031215612f5057612f4f612a91565b5b6000612f5e84828501612f25565b91505092915050565b6000604082019050612f7c6000830185612b03565b612f896020830184612b03565b9392505050565b600082825260208201905092915050565b7f4173736574206e6f7420657363726f7765640000000000000000000000000000600082015250565b6000612fd7601283612f90565b9150612fe282612fa1565b602082019050919050565b6000602082019050818103600083015261300681612fca565b9050919050565b7f416c72656164792072656465656d656420617373657400000000000000000000600082015250565b6000613043601683612f90565b915061304e8261300d565b602082019050919050565b6000602082019050818103600083015261307281613036565b9050919050565b7f646964206e6f7420657363726f77207072656d69756d20696e2074696d650000600082015250565b60006130af601e83612f90565b91506130ba82613079565b602082019050919050565b600060208201905081810360008301526130de816130a2565b9050919050565b60006020820190506130fa6000830184612e3a565b92915050565b600081519050919050565b600081905092915050565b60005b83811015613134578082015181840152602081019050613119565b83811115613143576000848401525b50505050565b600061315482613100565b61315e818561310b565b935061316e818560208601613116565b80840191505092915050565b60006131868284613149565b915081905092915050565b6000815190506131a081612aa0565b92915050565b6000602082840312156131bc576131bb612a91565b5b60006131ca84828501613191565b91505092915050565b7f4e487b7100000000000000000000000000000000000000000000000000000000600052601160045260246000fd5b600061320d82612af9565b91507fffffffffffffffffffffffffffffffffffffffffffffffffffffffffffffffff8214156132405761323f6131d3565b5b600182019050919050565b60006020820190506132606000830184612dca565b92915050565b60008151905061327581612c38565b92915050565b60006020828403121561329157613290612a91565b5b600061329f84828501613266565b91505092915050565b7f646964206e6f74206465706f73697420726564656d7074696f6e207072656d6960008201527f756d20696e2074696d6500000000000000000000000000000000000000000000602082015250565b6000613304602a83612f90565b915061330f826132a8565b604082019050919050565b60006020820190508181036000830152613333816132f7565b9050919050565b600060039050919050565b600081905092915050565b6000819050919050565b61336381612cc2565b82525050565b6000613375838361335a565b60208301905092915050565b60006133906020840184612ceb565b905092915050565b6000602082019050919050565b6133ae8161333a565b6133b88184613345565b92506133c382613350565b8060005b838110156133fc576133d98284613381565b6133e38782613369565b96506133ee83613398565b9250506001810190506133c7565b505050505050565b600060a0820190506134196000830186612b03565b6134266020830185612b03565b61343360408301846133a5565b949350505050565b7f646964206e6f74206465706f73697420657363726f77207072656d69756d206960008201527f6e2074696d650000000000000000000000000000000000000000000000000000602082015250565b6000613497602683612f90565b91506134a28261343b565b604082019050919050565b600060208201905081810360008301526134c68161348a565b9050919050565b60006134d882612af9565b91506134e383612af9565b9250817fffffffffffffffffffffffffffffffffffffffffffffffffffffffffffffffff048311821515161561351c5761351b6131d3565b5b828202905092915050565b600061353282612af9565b915061353d83612af9565b9250827fffffffffffffffffffffffffffffffffffffffffffffffffffffffffffffffff03821115613572576135716131d3565b5b828201905092915050565b600061ffff82169050919050565b60006135968261357d565b91506135a18361357d565b9250828210156135b4576135b36131d3565b5b828203905092915050565b60006135ca8261357d565b91506135d58361357d565b92508261ffff038211156135ec576135eb6131d3565b5b828201905092915050565b61360081612c84565b82525050565b600060c08201905061361b6000830189612b03565b6136286020830188612b03565b6136356040830187612e3a565b6136426060830186612e3a565b61364f60808301856135f7565b61365c60a08301846135f7565b979650505050505050565b7f646964206e6f7420657363726f7720617373657420696e2074696d6500000000600082015250565b600061369d601c83612f90565b91506136a882613667565b602082019050919050565b600060208201905081810360008301526136cc81613690565b9050919050565b6000602082840312156136e9576136e8612a91565b5b60006136f784828501612ceb565b91505092915050565b600061370b8261357d565b915061ffff8214156137205761371f6131d3565b5b60018201905091905056fea2646970667358221220e57f0967079ec7d24b8a223331fd5951fadaa78f044aed0fab88771320a0f48f64736f6c634300080b0033",
  "immutableReferences": {},
  "source": "// Some functions based off of fair-atomic-swap/src/atomicswap/eip2266/ERC2266Swap.sol\r\n// Copyright (c) 2019 Chris Haoyu LIN, Runchao HAN, Jiangshan YU\r\n// SPDX-License-Identifier: UNLICENSED\r\n\r\n// todo: fix all states to be different names\r\n\r\npragma solidity ^0.8.10;\r\n\r\nimport \"./libraries/token/ERC20/ERC20.sol\";\r\n\r\ncontract ApricotSwap {\r\n\r\n    /**\r\n        We will manipulate the DELTA variable (seconds) to see how sucessful the monitor is\r\n     */\r\n\r\n    uint constant DELTA = 20; //TODO: choose your DELTA\r\n    uint constant numParticipants = 3;\r\n    uint constant numLeaders = 1;\r\n    uint constant numEdges = 3;\r\n    uint constant maxNumPaths = 1;\r\n    uint constant maxPathLength = 3;\r\n    /**\r\n     * Mappings that store our swap details.\r\n     */\r\n    mapping(bytes32 => bool) hashkeyRedeemed;\r\n    mapping(bytes32 => Swap) public swaps;\r\n    mapping(bytes32 => Escrow) public escrows;\r\n    mapping(bytes32 => EscrowPremium) public escrowPremiums;\r\n    mapping(bytes32 => RedemptionPremium) public redemptionPremiums;\r\n\r\n    //store\r\n    struct Swap {\r\n        bytes32[numLeaders] leaderPremiumHashLock;\r\n        bytes32[numLeaders] leaderEscrowHashLock;\r\n        address assetName;\r\n        int32 timeout;\r\n        bool[6] stepsTaken;\r\n        address sender;\r\n        address receiver;\r\n    }\r\n\r\n    /**\r\n     * The Escrow struct keeps track of the escrowed Asset\r\n     */\r\n    struct Escrow {\r\n        //type of asset\r\n        uint expected;\r\n        uint current;\r\n        //the deadline is for escrowing\r\n        uint deadline;\r\n        //the timeout is for redeeming\r\n        uint timeout;\r\n    }\r\n\r\n    /**\r\n     * The Premium struct keeps track of the deposited premium.\r\n     */\r\n    struct EscrowPremium {\r\n        uint expected;\r\n        uint current;\r\n        uint deadline;\r\n        uint timeout;\r\n    }\r\n\r\n    struct RedemptionPremium {\r\n        bytes32 hashlock;\r\n        uint expected;\r\n        uint current;\r\n        uint deadline;\r\n        uint timeout;\r\n        address[numParticipants] path;\r\n\r\n    }\r\n\r\n////// event interfaces are defined as below\r\n\r\n    event SetUp(\r\n        uint timestamp,\r\n        uint startTime,\r\n        bytes32 escrowHashLock,\r\n        bytes32 premiumHashLock,\r\n        address payable sender,\r\n        address payable reciever\r\n    );\r\n\r\n    event EscrowPremiumDeposited(\r\n        uint timestamp,\r\n        uint premiumAmount\r\n    );\r\n    event RedemptionPremiumDeposited(\r\n        uint timestamp,\r\n        uint premiumAmount,\r\n        address[numParticipants] path\r\n    );  \r\n\r\n    event AssetEscrowed (\r\n        uint timestamp,\r\n        uint assetAmount\r\n    );\r\n\r\n\r\n\r\n    event EscrowPremiumRefunded(\r\n        uint timestamp,\r\n        uint amountRefunded\r\n    );\r\n\r\n    event EscrowPremiumRedeemed(\r\n        uint timestamp,\r\n        uint amountRedeemed\r\n    );\r\n\r\n    event RedemptionPremiumRedeemed(\r\n        uint timestamp,\r\n        uint amountRedeemed\r\n\r\n    );\r\n    event RedemptionPremiumRefunded(\r\n        uint timestamp,\r\n        uint amountRefunded\r\n    );\r\n\r\n    event AssetRedeemed(\r\n        uint timestamp,\r\n        uint amountRedeemed\r\n    );\r\n\r\n    event AssetRefunded(\r\n        uint timestamp,\r\n        uint amountRefunded\r\n    );\r\n\r\n\r\n//// modifiers below\r\n\r\n\r\n    modifier canSetup(bytes32 escrowHashLock) {\r\n        //require(swaps[escrowHashLock].stepsTaken[0] == false);\r\n        _;\r\n    }\r\n    modifier canDepositEscrowPremium(bytes32 escrowHashLock){\r\n        require(msg.sender == swaps[escrowHashLock].sender);\r\n        require(swaps[escrowHashLock].stepsTaken[0] == true && swaps[escrowHashLock].stepsTaken[1] == false);\r\n        require(ERC20(swaps[escrowHashLock].assetName).balanceOf(msg.sender) >= escrowPremiums[escrowHashLock].expected);\r\n        require(block.timestamp <= escrowPremiums[escrowHashLock].deadline, \"did not deposit escrow premium in time\");\r\n        _;\r\n    }\r\n    modifier canDepositRedemptionPremium(bytes32 escrowHashLock, bytes32 premiumHashLock, bytes32 preimage, address[maxPathLength] calldata path){\r\n        require(msg.sender == swaps[escrowHashLock].receiver);\r\n        require(swaps[escrowHashLock].stepsTaken[1] == true && swaps[escrowHashLock].stepsTaken[2] == false);\r\n        require(sha256(abi.encode(preimage)) == swaps[escrowHashLock].leaderPremiumHashLock[0]);\r\n        require(ERC20(swaps[escrowHashLock].assetName).balanceOf(msg.sender) >= redemptionPremiums[escrowHashLock].expected);\r\n        require(block.timestamp <= redemptionPremiums[escrowHashLock].deadline, \"did not deposit redemption premium in time\");\r\n        _;\r\n    }\r\n    modifier canEscrowAsset(bytes32 escrowHashLock) {\r\n        require(msg.sender == swaps[escrowHashLock].sender);\r\n        require(swaps[escrowHashLock].stepsTaken[2] == true && swaps[escrowHashLock].stepsTaken[3] == false);\r\n        require(ERC20(swaps[escrowHashLock].assetName).balanceOf(msg.sender) >= escrows[escrowHashLock].expected);\r\n        require(block.timestamp <= escrows[escrowHashLock].deadline, \"did not escrow asset in time\");\r\n        _;\r\n    }\r\n    modifier canUnlockHashLock(bytes32 escrowHashLock, bytes32 preimage, address[maxPathLength] memory path)\r\n    {\r\n        require(msg.sender == swaps[escrowHashLock].sender);\r\n        require(swaps[escrowHashLock].stepsTaken[4] == false && swaps[escrowHashLock].stepsTaken[2] == true);\r\n        //require the hashlock has not been unlocked and that there has been a redemption premium deposited\r\n        require(block.timestamp <= redemptionPremiums[escrowHashLock].timeout, \"did not escrow premium in time\");\r\n        require(sha256(abi.encode(preimage)) == swaps[escrowHashLock].leaderEscrowHashLock[0]);\r\n        address[maxPathLength] memory stored_path = redemptionPremiums[escrowHashLock].path;\r\n        for(uint i = 0; i < maxPathLength; i++)\r\n        {\r\n            require(stored_path[i] == path[i]);\r\n        }\r\n        _;\r\n    }\r\n    modifier canRedeemAsset(bytes32 escrowHashLock) {\r\n        require(msg.sender == swaps[escrowHashLock].receiver);\r\n        require(swaps[escrowHashLock].stepsTaken[4] == true);\r\n        require(block.timestamp <= escrows[escrowHashLock].timeout);\r\n        _;\r\n    }\r\n\r\n    modifier canRefundAsset(bytes32 escrowHashLock) {\r\n        require(msg.sender == swaps[escrowHashLock].sender);\r\n        require(swaps[escrowHashLock].stepsTaken[3] == true, \"Asset not escrowed\");\r\n        require(swaps[escrowHashLock].stepsTaken[4] == false, \"Already redeemed asset\");\r\n        require(block.timestamp > escrows[escrowHashLock].timeout);\r\n        //if the asset is escrowed and the timeout has passed, allow them to get their asset back\r\n        _;\r\n    }\r\n\r\n\r\n    modifier canRedeemEscrowPremium(bytes32 escrowHashLock) {\r\n        require(msg.sender == swaps[escrowHashLock].receiver);\r\n        require(swaps[escrowHashLock].stepsTaken[2] == true);\r\n        require(swaps[escrowHashLock].stepsTaken[1] == true);\r\n        require(swaps[escrowHashLock].stepsTaken[3] == false);\r\n        require(block.timestamp > escrows[escrowHashLock].deadline);\r\n        _;\r\n    }\r\n\r\n    modifier canRedeemRedemptionPremium(bytes32 escrowHashLock) {\r\n        require(msg.sender == swaps[escrowHashLock].sender);\r\n        require(swaps[escrowHashLock].stepsTaken[2] == true);//Redemption Premium Deposited\r\n        require(swaps[escrowHashLock].stepsTaken[4] == false); //Asset not redeemed\r\n        require(block.timestamp > redemptionPremiums[escrowHashLock].timeout);\r\n        _;\r\n    }\r\n    modifier canRefundEscrowPremium(bytes32 escrowHashLock) {\r\n        require(msg.sender == swaps[escrowHashLock].sender);\r\n        require((block.timestamp > escrowPremiums[escrowHashLock].deadline && swaps[escrowHashLock].stepsTaken[2] == false) \r\n                || (swaps[escrowHashLock].stepsTaken[3] == true));\r\n                //Allow refund to the sender if the deadline passed and the receiver did not post a redemption premium or if the asset has been escrowed\r\n        _;\r\n    }\r\n    modifier canRefundRedemptionPremium(bytes32 escrowHashLock) {\r\n        require(msg.sender == swaps[escrowHashLock].receiver);\r\n        require(swaps[escrowHashLock].stepsTaken[4] == true);\r\n        _;\r\n    }\r\n\r\n    function getPathLength(address[maxPathLength] calldata path) private pure returns (uint16)\r\n    {\r\n        uint16 length = 0;\r\n        for(uint16 i = 0; i < maxPathLength; i++)\r\n        {\r\n            if(path[i] == address(0))\r\n            {\r\n                break;\r\n            }\r\n            length += 1;\r\n        }\r\n        return length;\r\n    }\r\n\r\n    function setup(uint expectedEscrowAmount,\r\n                    uint expectedEscrowPremiumAmount,\r\n                    address payable sender,\r\n                    address payable receiver,\r\n                    address assetName,\r\n                    bytes32 escrowHashLock,\r\n                    bytes32 premiumHashLock,\r\n                    uint startTime,\r\n                    address[numParticipants] calldata path\r\n                    )\r\n        public payable canSetup(escrowHashLock) {\r\n        //set up swap mapping\r\n        swaps[escrowHashLock].assetName = assetName;\r\n        swaps[escrowHashLock].stepsTaken[0] = true;\r\n        swaps[escrowHashLock].sender = sender;\r\n        swaps[escrowHashLock].receiver = receiver;\r\n        swaps[escrowHashLock].leaderPremiumHashLock[0] = premiumHashLock;\r\n        swaps[escrowHashLock].leaderEscrowHashLock[0] = escrowHashLock;\r\n\r\n        //set up escrow mapping\r\n        escrows[escrowHashLock].expected = expectedEscrowAmount;\r\n        escrows[escrowHashLock].deadline = startTime + 7 * DELTA;\r\n        escrows[escrowHashLock].timeout = startTime + 12 * DELTA;\r\n\r\n        //set up premium mapping\r\n        escrowPremiums[escrowHashLock].expected = expectedEscrowPremiumAmount;\r\n        escrowPremiums[escrowHashLock].deadline = startTime + 1 * DELTA;    \r\n        escrowPremiums[escrowHashLock].timeout = startTime + 7 * DELTA;\r\n\r\n        redemptionPremiums[escrowHashLock].path = path;\r\n        redemptionPremiums[escrowHashLock].expected = 4-getPathLength(path);//1,2,3, the cost\r\n        redemptionPremiums[escrowHashLock].deadline = startTime + (3+getPathLength(path))* DELTA;//TODO: fix that later\r\n        redemptionPremiums[escrowHashLock].timeout = startTime + (9+getPathLength(path))* DELTA;//TODO: fix that later;    \r\n        \r\n        emit SetUp(\r\n            block.timestamp,\r\n            startTime,\r\n            escrowHashLock,\r\n            premiumHashLock,\r\n            sender, receiver\r\n        );\r\n    }\r\n    function depositEscrowPremium(bytes32 escrowHashLock) public payable canDepositEscrowPremium(escrowHashLock)\r\n    {\r\n        ERC20(swaps[escrowHashLock].assetName).transferFrom(swaps[escrowHashLock].sender, address(this), escrowPremiums[escrowHashLock].expected);\r\n        escrowPremiums[escrowHashLock].current = escrowPremiums[escrowHashLock].expected;\r\n        swaps[escrowHashLock].stepsTaken[1] = true;\r\n\r\n        emit EscrowPremiumDeposited(\r\n            block.timestamp,\r\n            escrowPremiums[escrowHashLock].current\r\n        );\r\n    }\r\n\r\n    function depositRedemptionPremium(bytes32 escrowHashLock, bytes32 premiumHashLock, bytes32 preimage, address[maxPathLength] calldata path) public payable canDepositRedemptionPremium(escrowHashLock, premiumHashLock, preimage, path)\r\n    {\r\n        ERC20(swaps[escrowHashLock].assetName).transferFrom(swaps[escrowHashLock].receiver, address(this), redemptionPremiums[escrowHashLock].expected);\r\n        redemptionPremiums[escrowHashLock].current = redemptionPremiums[escrowHashLock].expected;\r\n        swaps[escrowHashLock].stepsTaken[2] = true;\r\n\r\n        emit RedemptionPremiumDeposited(\r\n            block.timestamp,\r\n            redemptionPremiums[escrowHashLock].current,\r\n            path\r\n        );\r\n    }\r\n\r\n    function escrowAsset(bytes32 escrowHashLock) public payable canEscrowAsset(escrowHashLock) {\r\n        ERC20(swaps[escrowHashLock].assetName).transferFrom(swaps[escrowHashLock].sender, address(this), escrows[escrowHashLock].expected);\r\n        escrows[escrowHashLock].current = escrowPremiums[escrowHashLock].expected;\r\n        swaps[escrowHashLock].stepsTaken[3] = true;\r\n        refundEscrowPremium(escrowHashLock);\r\n        emit AssetEscrowed(\r\n            block.timestamp,\r\n            escrows[escrowHashLock].current\r\n        );\r\n    }\r\n\r\n\r\n    function unlockHashlock(bytes32 escrowHashLock, bytes32 preimage, address[maxPathLength] calldata path) public payable canUnlockHashLock(escrowHashLock, preimage, path)\r\n    {      \r\n        swaps[escrowHashLock].stepsTaken[4] = true;\r\n        if(swaps[escrowHashLock].stepsTaken[2]==true)\r\n        {\r\n            refundRedemptionPremium(escrowHashLock);\r\n        }\r\n        // we need to call refundredemptionpremium to get back the corresponding redemption premium\r\n\r\n        if(swaps[escrowHashLock].stepsTaken[3]==true)\r\n        {\r\n            redeemAsset(escrowHashLock);\r\n        }\r\n\r\n    }\r\n\r\n    function redeemAsset(bytes32 escrowHashLock) public payable canRedeemAsset(escrowHashLock) {\r\n        ERC20(swaps[escrowHashLock].assetName).transferFrom(address(this), swaps[escrowHashLock].receiver, escrows[escrowHashLock].current);\r\n        emit AssetRedeemed(\r\n            block.timestamp,\r\n            escrows[escrowHashLock].current\r\n        );\r\n        escrows[escrowHashLock].current = 0;\r\n    }\r\n\r\n    function refundAsset(bytes32 escrowHashLock) public canRefundAsset(escrowHashLock) {\r\n        ERC20(swaps[escrowHashLock].assetName).transferFrom(address(this), swaps[escrowHashLock].sender, escrows[escrowHashLock].current);\r\n        emit AssetRefunded(\r\n            block.timestamp,\r\n            escrows[escrowHashLock].current\r\n        );\r\n        escrows[escrowHashLock].current = 0;\r\n    }\r\n\r\n    function redeemEscrowPremium(bytes32 escrowHashLock) public canRedeemEscrowPremium(escrowHashLock){\r\n        ERC20(swaps[escrowHashLock].assetName).transferFrom(address(this), swaps[escrowHashLock].receiver, escrowPremiums[escrowHashLock].current);\r\n        emit EscrowPremiumRedeemed(\r\n            block.timestamp, \r\n            escrowPremiums[escrowHashLock].current\r\n        );\r\n        escrowPremiums[escrowHashLock].current = 0;\r\n    }\r\n    ///\r\n    function refundEscrowPremium(bytes32 escrowHashLock) public payable canRefundEscrowPremium(escrowHashLock){\r\n        ERC20(swaps[escrowHashLock].assetName).transferFrom(address(this), swaps[escrowHashLock].sender, escrowPremiums[escrowHashLock].current);\r\n        emit EscrowPremiumRefunded(\r\n            block.timestamp,\r\n            escrowPremiums[escrowHashLock].current\r\n        );\r\n        escrowPremiums[escrowHashLock].current = 0;\r\n    }\r\n\r\n    function redeemRedemptionPremium(bytes32 escrowHashLock) public canRedeemRedemptionPremium(escrowHashLock){\r\n        ERC20(swaps[escrowHashLock].assetName).transferFrom(address(this), swaps[escrowHashLock].sender, redemptionPremiums[escrowHashLock].current);\r\n        emit RedemptionPremiumRedeemed(\r\n            block.timestamp,\r\n            redemptionPremiums[escrowHashLock].current\r\n        );\r\n        redemptionPremiums[escrowHashLock].current = 0;\r\n    }\r\n\r\n    function refundRedemptionPremium(bytes32 escrowHashLock) public payable canRefundRedemptionPremium(escrowHashLock){\r\n        ERC20(swaps[escrowHashLock].assetName).transferFrom(address(this), swaps[escrowHashLock].receiver, redemptionPremiums[escrowHashLock].current);\r\n        emit RedemptionPremiumRefunded(\r\n            block.timestamp,\r\n            redemptionPremiums[escrowHashLock].current\r\n        );\r\n        redemptionPremiums[escrowHashLock].current = 0;\r\n    }\r\n}",
  "sourcePath": "C:\\Users\\aaron\\Documents\\Swaps\\blockc-rv\\3-party-swap-edges\\contracts\\ApricotSwap.sol",
  "compiler": {
    "name": "solc",
    "version": "0.8.11+commit.d7f03943.Emscripten.clang"
  },
  "schemaVersion": "3.4.4",
  "updatedAt": "2022-01-02T18:17:11.937Z",
  "networkType": "ethereum",
  "devdoc": {
    "kind": "dev",
    "methods": {},
    "version": 1
  },
  "userdoc": {
    "kind": "user",
    "methods": {},
    "version": 1
  }
}