{
  "contractName": "BananaSwap",
  "abi": [
    {
      "anonymous": false,
      "inputs": [
        {
          "indexed": false,
          "internalType": "uint256",
          "name": "timestamp",
          "type": "uint256"
        },
        {
          "indexed": false,
          "internalType": "uint256",
          "name": "assetAmount",
          "type": "uint256"
        }
      ],
      "name": "AssetEscrowed",
      "type": "event"
    },
    {
      "anonymous": false,
      "inputs": [
        {
          "indexed": false,
          "internalType": "uint256",
          "name": "timestamp",
          "type": "uint256"
        },
        {
          "indexed": false,
          "internalType": "uint256",
          "name": "amountRedeemed",
          "type": "uint256"
        }
      ],
      "name": "AssetRedeemed",
      "type": "event"
    },
    {
      "anonymous": false,
      "inputs": [
        {
          "indexed": false,
          "internalType": "uint256",
          "name": "timestamp",
          "type": "uint256"
        },
        {
          "indexed": false,
          "internalType": "uint256",
          "name": "amountRefunded",
          "type": "uint256"
        }
      ],
      "name": "AssetRefunded",
      "type": "event"
    },
    {
      "anonymous": false,
      "inputs": [
        {
          "indexed": false,
          "internalType": "uint256",
          "name": "timestamp",
          "type": "uint256"
        },
        {
          "indexed": false,
          "internalType": "uint256",
          "name": "premiumAmount",
          "type": "uint256"
        }
      ],
      "name": "EscrowPremiumDeposited",
      "type": "event"
    },
    {
      "anonymous": false,
      "inputs": [
        {
          "indexed": false,
          "internalType": "uint256",
          "name": "timestamp",
          "type": "uint256"
        },
        {
          "indexed": false,
          "internalType": "uint256",
          "name": "amountRedeemed",
          "type": "uint256"
        }
      ],
      "name": "EscrowPremiumRedeemed",
      "type": "event"
    },
    {
      "anonymous": false,
      "inputs": [
        {
          "indexed": false,
          "internalType": "uint256",
          "name": "timestamp",
          "type": "uint256"
        },
        {
          "indexed": false,
          "internalType": "uint256",
          "name": "amountRefunded",
          "type": "uint256"
        }
      ],
      "name": "EscrowPremiumRefunded",
      "type": "event"
    },
    {
      "anonymous": false,
      "inputs": [
        {
          "indexed": false,
          "internalType": "uint256",
          "name": "timestamp",
          "type": "uint256"
        },
        {
          "indexed": false,
          "internalType": "uint256",
          "name": "premiumAmount",
          "type": "uint256"
        },
        {
          "indexed": false,
          "internalType": "address[3]",
          "name": "path",
          "type": "address[3]"
        }
      ],
      "name": "RedemptionPremiumDeposited",
      "type": "event"
    },
    {
      "anonymous": false,
      "inputs": [
        {
          "indexed": false,
          "internalType": "uint256",
          "name": "timestamp",
          "type": "uint256"
        },
        {
          "indexed": false,
          "internalType": "uint256",
          "name": "amountRedeemed",
          "type": "uint256"
        }
      ],
      "name": "RedemptionPremiumRedeemed",
      "type": "event"
    },
    {
      "anonymous": false,
      "inputs": [
        {
          "indexed": false,
          "internalType": "uint256",
          "name": "timestamp",
          "type": "uint256"
        },
        {
          "indexed": false,
          "internalType": "uint256",
          "name": "amountRefunded",
          "type": "uint256"
        }
      ],
      "name": "RedemptionPremiumRefunded",
      "type": "event"
    },
    {
      "anonymous": false,
      "inputs": [
        {
          "indexed": false,
          "internalType": "uint256",
          "name": "timestamp",
          "type": "uint256"
        },
        {
          "indexed": false,
          "internalType": "uint256",
          "name": "startTime",
          "type": "uint256"
        },
        {
          "indexed": false,
          "internalType": "bytes32",
          "name": "escrowHashLock",
          "type": "bytes32"
        },
        {
          "indexed": false,
          "internalType": "bytes32",
          "name": "premiumHashLock",
          "type": "bytes32"
        },
        {
          "indexed": false,
          "internalType": "address payable",
          "name": "sender",
          "type": "address"
        },
        {
          "indexed": false,
          "internalType": "address payable",
          "name": "receiver",
          "type": "address"
        }
      ],
      "name": "SetUp",
      "type": "event"
    },
    {
      "inputs": [
        {
          "internalType": "bytes32",
          "name": "",
          "type": "bytes32"
        }
      ],
      "name": "escrowPremiums",
      "outputs": [
        {
          "internalType": "uint256",
          "name": "expected",
          "type": "uint256"
        },
        {
          "internalType": "uint256",
          "name": "current",
          "type": "uint256"
        },
        {
          "internalType": "uint256",
          "name": "deadline",
          "type": "uint256"
        },
        {
          "internalType": "uint256",
          "name": "timeout",
          "type": "uint256"
        }
      ],
      "stateMutability": "view",
      "type": "function",
      "constant": true
    },
    {
      "inputs": [
        {
          "internalType": "bytes32",
          "name": "",
          "type": "bytes32"
        }
      ],
      "name": "escrows",
      "outputs": [
        {
          "internalType": "uint256",
          "name": "expected",
          "type": "uint256"
        },
        {
          "internalType": "uint256",
          "name": "current",
          "type": "uint256"
        },
        {
          "internalType": "uint256",
          "name": "deadline",
          "type": "uint256"
        },
        {
          "internalType": "uint256",
          "name": "timeout",
          "type": "uint256"
        }
      ],
      "stateMutability": "view",
      "type": "function",
      "constant": true
    },
    {
      "inputs": [
        {
          "internalType": "bytes32",
          "name": "",
          "type": "bytes32"
        }
      ],
      "name": "redemptionPremiums",
      "outputs": [
        {
          "internalType": "bytes32",
          "name": "hashlock",
          "type": "bytes32"
        },
        {
          "internalType": "uint256",
          "name": "expected",
          "type": "uint256"
        },
        {
          "internalType": "uint256",
          "name": "current",
          "type": "uint256"
        },
        {
          "internalType": "uint256",
          "name": "deadline",
          "type": "uint256"
        },
        {
          "internalType": "uint256",
          "name": "timeout",
          "type": "uint256"
        }
      ],
      "stateMutability": "view",
      "type": "function",
      "constant": true
    },
    {
      "inputs": [
        {
          "internalType": "bytes32",
          "name": "",
          "type": "bytes32"
        }
      ],
      "name": "swaps",
      "outputs": [
        {
          "internalType": "address",
          "name": "assetName",
          "type": "address"
        },
        {
          "internalType": "int32",
          "name": "timeout",
          "type": "int32"
        },
        {
          "internalType": "address",
          "name": "sender",
          "type": "address"
        },
        {
          "internalType": "address",
          "name": "receiver",
          "type": "address"
        }
      ],
      "stateMutability": "view",
      "type": "function",
      "constant": true
    },
    {
      "inputs": [
        {
          "internalType": "uint16",
          "name": "expectedEscrowAmount",
          "type": "uint16"
        },
        {
          "internalType": "uint16",
          "name": "expectedEscrowPremiumAmount",
          "type": "uint16"
        },
        {
          "internalType": "address payable",
          "name": "sender",
          "type": "address"
        },
        {
          "internalType": "address payable",
          "name": "receiver",
          "type": "address"
        },
        {
          "internalType": "address",
          "name": "assetName",
          "type": "address"
        },
        {
          "internalType": "bytes32",
          "name": "escrowHashLock",
          "type": "bytes32"
        },
        {
          "internalType": "bytes32",
          "name": "premiumHashLock",
          "type": "bytes32"
        },
        {
          "internalType": "uint256",
          "name": "startTime",
          "type": "uint256"
        },
        {
          "internalType": "address[3]",
          "name": "path",
          "type": "address[3]"
        }
      ],
      "name": "setup",
      "outputs": [],
      "stateMutability": "payable",
      "type": "function",
      "payable": true
    },
    {
      "inputs": [
        {
          "internalType": "bytes32",
          "name": "escrowHashLock",
          "type": "bytes32"
        }
      ],
      "name": "depositEscrowPremium",
      "outputs": [],
      "stateMutability": "payable",
      "type": "function",
      "payable": true
    },
    {
      "inputs": [
        {
          "internalType": "bytes32",
          "name": "escrowHashLock",
          "type": "bytes32"
        },
        {
          "internalType": "bytes32",
          "name": "premiumHashLock",
          "type": "bytes32"
        },
        {
          "internalType": "bytes32",
          "name": "preimage",
          "type": "bytes32"
        },
        {
          "internalType": "address[3]",
          "name": "path",
          "type": "address[3]"
        }
      ],
      "name": "depositRedemptionPremium",
      "outputs": [],
      "stateMutability": "payable",
      "type": "function",
      "payable": true
    },
    {
      "inputs": [
        {
          "internalType": "bytes32",
          "name": "escrowHashLock",
          "type": "bytes32"
        }
      ],
      "name": "escrowAsset",
      "outputs": [],
      "stateMutability": "payable",
      "type": "function",
      "payable": true
    },
    {
      "inputs": [
        {
          "internalType": "bytes32",
          "name": "escrowHashLock",
          "type": "bytes32"
        },
        {
          "internalType": "bytes32",
          "name": "preimage",
          "type": "bytes32"
        },
        {
          "internalType": "address[3]",
          "name": "path",
          "type": "address[3]"
        }
      ],
      "name": "unlockHashlock",
      "outputs": [],
      "stateMutability": "payable",
      "type": "function",
      "payable": true
    },
    {
      "inputs": [
        {
          "internalType": "bytes32",
          "name": "escrowHashLock",
          "type": "bytes32"
        }
      ],
      "name": "redeemAsset",
      "outputs": [],
      "stateMutability": "payable",
      "type": "function",
      "payable": true
    },
    {
      "inputs": [
        {
          "internalType": "bytes32",
          "name": "escrowHashLock",
          "type": "bytes32"
        }
      ],
      "name": "refundAsset",
      "outputs": [],
      "stateMutability": "nonpayable",
      "type": "function"
    },
    {
      "inputs": [
        {
          "internalType": "bytes32",
          "name": "escrowHashLock",
          "type": "bytes32"
        }
      ],
      "name": "redeemEscrowPremium",
      "outputs": [],
      "stateMutability": "nonpayable",
      "type": "function"
    },
    {
      "inputs": [
        {
          "internalType": "bytes32",
          "name": "escrowHashLock",
          "type": "bytes32"
        }
      ],
      "name": "refundEscrowPremium",
      "outputs": [],
      "stateMutability": "payable",
      "type": "function",
      "payable": true
    },
    {
      "inputs": [
        {
          "internalType": "bytes32",
          "name": "escrowHashLock",
          "type": "bytes32"
        }
      ],
      "name": "redeemRedemptionPremium",
      "outputs": [],
      "stateMutability": "nonpayable",
      "type": "function"
    },
    {
      "inputs": [
        {
          "internalType": "bytes32",
          "name": "escrowHashLock",
          "type": "bytes32"
        }
      ],
      "name": "refundRedemptionPremium",
      "outputs": [],
      "stateMutability": "payable",
      "type": "function",
      "payable": true
    }
  ],
  "bytecode": "0x608060405234801561001057600080fd5b506138f2806100206000396000f3fe6080604052600436106100e85760003560e01c80637a32924b1161008a578063eb84e7f211610059578063eb84e7f21461025f578063f3413d6e1461029f578063f7ecfd5a146102df578063fbd88b0a14610320576100e8565b80637a32924b146101ef578063a4119ab11461020b578063a879212914610227578063e8d8c29b14610243576100e8565b80635385c914116100c65780635385c9141461017257806367c515651461019b57806374c74a1f146101b757806378617867146101d3576100e8565b80632d83549c146100ed5780633bdebfce1461012d57806351f56c7314610149575b600080fd5b3480156100f957600080fd5b50610114600480360381019061010f9190612c31565b610349565b6040516101249493929190612c77565b60405180910390f35b61014760048036038101906101429190612c31565b610379565b005b34801561015557600080fd5b50610170600480360381019061016b9190612c31565b61062b565b005b34801561017e57600080fd5b5061019960048036038101906101949190612c31565b6108e0565b005b6101b560048036038101906101b09190612c31565b610c01565b005b6101d160048036038101906101cc9190612c31565b610e3b565b005b6101ed60048036038101906101e89190612de5565b611098565b005b61020960048036038101906102049190612eaf565b6114e6565b005b61022560048036038101906102209190612f02565b611968565b005b610241600480360381019061023c9190612c31565b611e3c565b005b61025d60048036038101906102589190612c31565b612261565b005b34801561026b57600080fd5b5061028660048036038101906102819190612c31565b61268f565b6040516102969493929190612f94565b60405180910390f35b3480156102ab57600080fd5b506102c660048036038101906102c19190612c31565b61272c565b6040516102d69493929190612c77565b60405180910390f35b3480156102eb57600080fd5b5061030660048036038101906103019190612c31565b61275c565b604051610317959493929190612fe8565b60405180910390f35b34801561032c57600080fd5b5061034760048036038101906103429190612c31565b612792565b005b60026020528060005260406000206000915090508060000154908060010154908060020154908060030154905084565b806001600082815260200190815260200160002060040160009054906101000a900473ffffffffffffffffffffffffffffffffffffffff1673ffffffffffffffffffffffffffffffffffffffff163373ffffffffffffffffffffffffffffffffffffffff16146103e857600080fd5b600360008281526020019081526020016000206002015442118015610459575060001515600160008381526020019081526020016000206003016002815481106104355761043461303b565b5b90600052602060002090602091828204019190069054906101000a900460ff161515145b806104b05750600115156001600083815260200190815260200160002060030160038154811061048c5761048b61303b565b5b90600052602060002090602091828204019190069054906101000a900460ff161515145b6104b957600080fd5b6001600083815260200190815260200160002060020160009054906101000a900473ffffffffffffffffffffffffffffffffffffffff1673ffffffffffffffffffffffffffffffffffffffff166323b872dd306001600086815260200190815260200160002060040160009054906101000a900473ffffffffffffffffffffffffffffffffffffffff1660036000878152602001908152602001600020600101546040518463ffffffff1660e01b81526004016105789392919061306a565b6020604051808303816000875af1158015610597573d6000803e3d6000fd5b505050506040513d601f19601f820116820180604052508101906105bb91906130d9565b507fcf008751473d529615962f99f41102678a0ed68b2397722c2878a28413d302e5426003600085815260200190815260200160002060010154604051610603929190613106565b60405180910390a1600060036000848152602001908152602001600020600101819055505050565b806001600082815260200190815260200160002060040160009054906101000a900473ffffffffffffffffffffffffffffffffffffffff1673ffffffffffffffffffffffffffffffffffffffff163373ffffffffffffffffffffffffffffffffffffffff161461069a57600080fd5b60011515600160008381526020019081526020016000206003016002815481106106c7576106c661303b565b5b90600052602060002090602091828204019190069054906101000a900460ff161515146106f357600080fd5b60001515600160008381526020019081526020016000206003016004815481106107205761071f61303b565b5b90600052602060002090602091828204019190069054906101000a900460ff1615151461074c57600080fd5b6004600082815260200190815260200160002060040154421161076e57600080fd5b6001600083815260200190815260200160002060020160009054906101000a900473ffffffffffffffffffffffffffffffffffffffff1673ffffffffffffffffffffffffffffffffffffffff166323b872dd306001600086815260200190815260200160002060040160009054906101000a900473ffffffffffffffffffffffffffffffffffffffff1660046000878152602001908152602001600020600201546040518463ffffffff1660e01b815260040161082d9392919061306a565b6020604051808303816000875af115801561084c573d6000803e3d6000fd5b505050506040513d601f19601f8201168201806040525081019061087091906130d9565b507fd2b05ec50bcfed41890119d1f0ffd86efc3290e105f7e40beb0927820e9c807f4260046000858152602001908152602001600020600201546040516108b8929190613106565b60405180910390a1600060046000848152602001908152602001600020600201819055505050565b806001600082815260200190815260200160002060040160009054906101000a900473ffffffffffffffffffffffffffffffffffffffff1673ffffffffffffffffffffffffffffffffffffffff163373ffffffffffffffffffffffffffffffffffffffff161461094f57600080fd5b600115156001600083815260200190815260200160002060030160038154811061097c5761097b61303b565b5b90600052602060002090602091828204019190069054906101000a900460ff161515146109de576040517f08c379a00000000000000000000000000000000000000000000000000000000081526004016109d59061318c565b60405180910390fd5b6000151560016000838152602001908152602001600020600301600481548110610a0b57610a0a61303b565b5b90600052602060002090602091828204019190069054906101000a900460ff16151514610a6d576040517f08c379a0000000000000000000000000000000000000000000000000000000008152600401610a64906131f8565b60405180910390fd5b60026000828152602001908152602001600020600301544211610a8f57600080fd5b6001600083815260200190815260200160002060020160009054906101000a900473ffffffffffffffffffffffffffffffffffffffff1673ffffffffffffffffffffffffffffffffffffffff166323b872dd306001600086815260200190815260200160002060040160009054906101000a900473ffffffffffffffffffffffffffffffffffffffff1660026000878152602001908152602001600020600101546040518463ffffffff1660e01b8152600401610b4e9392919061306a565b6020604051808303816000875af1158015610b6d573d6000803e3d6000fd5b505050506040513d601f19601f82011682018060405250810190610b9191906130d9565b507f4b06c83c5aa29be5eff379b09758820b2d34365c84b5a25db1ae55a2e7246b07426002600085815260200190815260200160002060010154604051610bd9929190613106565b60405180910390a1600060026000848152602001908152602001600020600101819055505050565b806001600082815260200190815260200160002060050160009054906101000a900473ffffffffffffffffffffffffffffffffffffffff1673ffffffffffffffffffffffffffffffffffffffff163373ffffffffffffffffffffffffffffffffffffffff1614610c7057600080fd5b6001151560016000838152602001908152602001600020600301600481548110610c9d57610c9c61303b565b5b90600052602060002090602091828204019190069054906101000a900460ff16151514610cc957600080fd5b6001600083815260200190815260200160002060020160009054906101000a900473ffffffffffffffffffffffffffffffffffffffff1673ffffffffffffffffffffffffffffffffffffffff166323b872dd306001600086815260200190815260200160002060050160009054906101000a900473ffffffffffffffffffffffffffffffffffffffff1660046000878152602001908152602001600020600201546040518463ffffffff1660e01b8152600401610d889392919061306a565b6020604051808303816000875af1158015610da7573d6000803e3d6000fd5b505050506040513d601f19601f82011682018060405250810190610dcb91906130d9565b507f18294d8cd30a916056244f53ba498d2a5abe8aa32979ab45b18d486ee7c3976e426004600085815260200190815260200160002060020154604051610e13929190613106565b60405180910390a1600060046000848152602001908152602001600020600201819055505050565b806001600082815260200190815260200160002060050160009054906101000a900473ffffffffffffffffffffffffffffffffffffffff1673ffffffffffffffffffffffffffffffffffffffff163373ffffffffffffffffffffffffffffffffffffffff1614610eaa57600080fd5b6001151560016000838152602001908152602001600020600301600481548110610ed757610ed661303b565b5b90600052602060002090602091828204019190069054906101000a900460ff16151514610f0357600080fd5b6002600082815260200190815260200160002060030154421115610f2657600080fd5b6001600083815260200190815260200160002060020160009054906101000a900473ffffffffffffffffffffffffffffffffffffffff1673ffffffffffffffffffffffffffffffffffffffff166323b872dd306001600086815260200190815260200160002060050160009054906101000a900473ffffffffffffffffffffffffffffffffffffffff1660026000878152602001908152602001600020600101546040518463ffffffff1660e01b8152600401610fe59392919061306a565b6020604051808303816000875af1158015611004573d6000803e3d6000fd5b505050506040513d601f19601f8201168201806040525081019061102891906130d9565b507f158c504a7828f2c25b618af862913db673346e646cc68ab9963c3731e6ff4fe4426002600085815260200190815260200160002060010154604051611070929190613106565b60405180910390a1600060026000848152602001908152602001600020600101819055505050565b8360001515600160008381526020019081526020016000206003016000815481106110c6576110c561303b565b5b90600052602060002090602091828204019190069054906101000a900460ff161515146110f257600080fd5b856001600087815260200190815260200160002060020160006101000a81548173ffffffffffffffffffffffffffffffffffffffff021916908373ffffffffffffffffffffffffffffffffffffffff16021790555060018060008781526020019081526020016000206003016000815481106111715761117061303b565b5b90600052602060002090602091828204019190066101000a81548160ff021916908315150217905550876001600087815260200190815260200160002060040160006101000a81548173ffffffffffffffffffffffffffffffffffffffff021916908373ffffffffffffffffffffffffffffffffffffffff160217905550866001600087815260200190815260200160002060050160006101000a81548173ffffffffffffffffffffffffffffffffffffffff021916908373ffffffffffffffffffffffffffffffffffffffff160217905550836001600087815260200190815260200160002060000160006001811061126e5761126d61303b565b5b0181905550846001600087815260200190815260200160002060010160006001811061129d5761129c61303b565b5b01819055508961ffff166002600087815260200190815260200160002060000181905550601460086112cf9190613247565b836112da91906132a1565b60026000878152602001908152602001600020600201819055506014600b6113029190613247565b8361130d91906132a1565b60026000878152602001908152602001600020600301819055508861ffff166003600087815260200190815260200160002060000181905550601460026113549190613247565b8361135f91906132a1565b6003600087815260200190815260200160002060020181905550601460086113879190613247565b8361139291906132a1565b600360008781526020019081526020016000206003018190555081600460008781526020019081526020016000206005019060036113d1929190612b46565b506113db82612aa0565b60046113e791906132f7565b61ffff166004600087815260200190815260200160002060010181905550601461141083612aa0565b600361141c919061332b565b61ffff1661142a9190613247565b8361143591906132a1565b6004600087815260200190815260200160002060030181905550601461145a83612aa0565b6009611466919061332b565b61ffff166114749190613247565b8361147f91906132a1565b60046000878152602001908152602001600020600401819055507f92095cad04cc986e580ac1ea0035f33618bc15a05776aef8ec64d7be19359f47428487878c8c6040516114d296959493929190613372565b60405180910390a150505050505050505050565b8282826003806020026040519081016040528092919082600360200280828437600081840152601f19601f8201169050808301925050505050506001600084815260200190815260200160002060040160009054906101000a900473ffffffffffffffffffffffffffffffffffffffff1673ffffffffffffffffffffffffffffffffffffffff163373ffffffffffffffffffffffffffffffffffffffff161461158e57600080fd5b60001515600160008581526020019081526020016000206003016004815481106115bb576115ba61303b565b5b90600052602060002090602091828204019190069054906101000a900460ff161515148015611636575060011515600160008581526020019081526020016000206003016002815481106116125761161161303b565b5b90600052602060002090602091828204019190069054906101000a900460ff161515145b61163f57600080fd5b6004600084815260200190815260200160002060040154421115611698576040517f08c379a000000000000000000000000000000000000000000000000000000000815260040161168f9061341f565b60405180910390fd5b600160008481526020019081526020016000206001016000600181106116c1576116c061303b565b5b01546002836040516020016116d6919061343f565b6040516020818303038152906040526040516116f291906134d4565b602060405180830381855afa15801561170f573d6000803e3d6000fd5b5050506040513d601f19601f820116820180604052508101906117329190613500565b1461173c57600080fd5b6000600460008581526020019081526020016000206005016003806020026040519081016040528092919082600380156117c1576020028201915b8160009054906101000a900473ffffffffffffffffffffffffffffffffffffffff1673ffffffffffffffffffffffffffffffffffffffff1681526020019060010190808311611777575b5050505050905060005b600381101561184d578281600381106117e7576117e661303b565b5b602002015173ffffffffffffffffffffffffffffffffffffffff168282600381106118155761181461303b565b5b602002015173ffffffffffffffffffffffffffffffffffffffff161461183a57600080fd5b80806118459061352d565b9150506117cb565b5060018060008981526020019081526020016000206003016004815481106118785761187761303b565b5b90600052602060002090602091828204019190066101000a81548160ff02191690831515021790555060011515600160008981526020019081526020016000206003016002815481106118ce576118cd61303b565b5b90600052602060002090602091828204019190069054906101000a900460ff1615151415611900576118ff87610c01565b5b600115156001600089815260200190815260200160002060030160038154811061192d5761192c61303b565b5b90600052602060002090602091828204019190069054906101000a900460ff161515141561195f5761195e87610e3b565b5b50505050505050565b838383836001600085815260200190815260200160002060050160009054906101000a900473ffffffffffffffffffffffffffffffffffffffff1673ffffffffffffffffffffffffffffffffffffffff163373ffffffffffffffffffffffffffffffffffffffff16146119da57600080fd5b6001151560016000868152602001908152602001600020600301600181548110611a0757611a0661303b565b5b90600052602060002090602091828204019190069054906101000a900460ff161515148015611a8257506000151560016000868152602001908152602001600020600301600281548110611a5e57611a5d61303b565b5b90600052602060002090602091828204019190069054906101000a900460ff161515145b611a8b57600080fd5b60016000858152602001908152602001600020600001600060018110611ab457611ab361303b565b5b0154600283604051602001611ac9919061343f565b604051602081830303815290604052604051611ae591906134d4565b602060405180830381855afa158015611b02573d6000803e3d6000fd5b5050506040513d601f19601f82011682018060405250810190611b259190613500565b14611b2f57600080fd5b60046000858152602001908152602001600020600101546001600086815260200190815260200160002060020160009054906101000a900473ffffffffffffffffffffffffffffffffffffffff1673ffffffffffffffffffffffffffffffffffffffff166370a08231336040518263ffffffff1660e01b8152600401611bb59190613576565b602060405180830381865afa158015611bd2573d6000803e3d6000fd5b505050506040513d601f19601f82011682018060405250810190611bf691906135a6565b1015611c0157600080fd5b6004600085815260200190815260200160002060030154421115611c5a576040517f08c379a0000000000000000000000000000000000000000000000000000000008152600401611c5190613645565b60405180910390fd5b6001600089815260200190815260200160002060020160009054906101000a900473ffffffffffffffffffffffffffffffffffffffff1673ffffffffffffffffffffffffffffffffffffffff166323b872dd600160008b815260200190815260200160002060050160009054906101000a900473ffffffffffffffffffffffffffffffffffffffff1630600460008d8152602001908152602001600020600101546040518463ffffffff1660e01b8152600401611d199392919061306a565b6020604051808303816000875af1158015611d38573d6000803e3d6000fd5b505050506040513d601f19601f82011682018060405250810190611d5c91906130d9565b506004600089815260200190815260200160002060010154600460008a81526020019081526020016000206002018190555060018060008a8152602001908152602001600020600301600281548110611db857611db761303b565b5b90600052602060002090602091828204019190066101000a81548160ff0219169083151502179055507fdea1ee7d34f97c70585de052b3c21851a4c153b909403c6860bab59a318e595542600460008b81526020019081526020016000206002015487604051611e2a9392919061372f565b60405180910390a15050505050505050565b806001600082815260200190815260200160002060040160009054906101000a900473ffffffffffffffffffffffffffffffffffffffff1673ffffffffffffffffffffffffffffffffffffffff163373ffffffffffffffffffffffffffffffffffffffff1614611eab57600080fd5b6001151560016000838152602001908152602001600020600301600081548110611ed857611ed761303b565b5b90600052602060002090602091828204019190069054906101000a900460ff161515148015611f5357506000151560016000838152602001908152602001600020600301600181548110611f2f57611f2e61303b565b5b90600052602060002090602091828204019190069054906101000a900460ff161515145b611f5c57600080fd5b60036000828152602001908152602001600020600001546001600083815260200190815260200160002060020160009054906101000a900473ffffffffffffffffffffffffffffffffffffffff1673ffffffffffffffffffffffffffffffffffffffff166370a08231336040518263ffffffff1660e01b8152600401611fe29190613576565b602060405180830381865afa158015611fff573d6000803e3d6000fd5b505050506040513d601f19601f8201168201806040525081019061202391906135a6565b101561202e57600080fd5b6003600082815260200190815260200160002060020154421115612087576040517f08c379a000000000000000000000000000000000000000000000000000000000815260040161207e906137d8565b60405180910390fd5b6001600083815260200190815260200160002060020160009054906101000a900473ffffffffffffffffffffffffffffffffffffffff1673ffffffffffffffffffffffffffffffffffffffff166323b872dd6001600085815260200190815260200160002060040160009054906101000a900473ffffffffffffffffffffffffffffffffffffffff163060036000878152602001908152602001600020600001546040518463ffffffff1660e01b81526004016121469392919061306a565b6020604051808303816000875af1158015612165573d6000803e3d6000fd5b505050506040513d601f19601f8201168201806040525081019061218991906130d9565b506003600083815260200190815260200160002060000154600360008481526020019081526020016000206001018190555060018060008481526020019081526020016000206003016001815481106121e5576121e461303b565b5b90600052602060002090602091828204019190066101000a81548160ff0219169083151502179055507fc1fab24d140f858e9f73109920820eff022fd1107f5c8dfe1845407fde4ca404426003600085815260200190815260200160002060010154604051612255929190613106565b60405180910390a15050565b806001600082815260200190815260200160002060040160009054906101000a900473ffffffffffffffffffffffffffffffffffffffff1673ffffffffffffffffffffffffffffffffffffffff163373ffffffffffffffffffffffffffffffffffffffff16146122d057600080fd5b60011515600160008381526020019081526020016000206003016002815481106122fd576122fc61303b565b5b90600052602060002090602091828204019190069054906101000a900460ff161515148015612378575060001515600160008381526020019081526020016000206003016003815481106123545761235361303b565b5b90600052602060002090602091828204019190069054906101000a900460ff161515145b61238157600080fd5b60026000828152602001908152602001600020600001546001600083815260200190815260200160002060020160009054906101000a900473ffffffffffffffffffffffffffffffffffffffff1673ffffffffffffffffffffffffffffffffffffffff166370a08231336040518263ffffffff1660e01b81526004016124079190613576565b602060405180830381865afa158015612424573d6000803e3d6000fd5b505050506040513d601f19601f8201168201806040525081019061244891906135a6565b101561245357600080fd5b60026000828152602001908152602001600020600201544211156124ac576040517f08c379a00000000000000000000000000000000000000000000000000000000081526004016124a390613844565b60405180910390fd5b6001600083815260200190815260200160002060020160009054906101000a900473ffffffffffffffffffffffffffffffffffffffff1673ffffffffffffffffffffffffffffffffffffffff166323b872dd6001600085815260200190815260200160002060040160009054906101000a900473ffffffffffffffffffffffffffffffffffffffff163060026000878152602001908152602001600020600001546040518463ffffffff1660e01b815260040161256b9392919061306a565b6020604051808303816000875af115801561258a573d6000803e3d6000fd5b505050506040513d601f19601f820116820180604052508101906125ae91906130d9565b5060036000838152602001908152602001600020600001546002600084815260200190815260200160002060010181905550600180600084815260200190815260200160002060030160038154811061260a5761260961303b565b5b90600052602060002090602091828204019190066101000a81548160ff02191690831515021790555061263c82610379565b7f2de8394603f49448d27241c438bfa7d442fc4a7b9f9d267fde6b57ad740915b1426002600085815260200190815260200160002060010154604051612683929190613106565b60405180910390a15050565b60016020528060005260406000206000915090508060020160009054906101000a900473ffffffffffffffffffffffffffffffffffffffff16908060020160149054906101000a900460030b908060040160009054906101000a900473ffffffffffffffffffffffffffffffffffffffff16908060050160009054906101000a900473ffffffffffffffffffffffffffffffffffffffff16905084565b60036020528060005260406000206000915090508060000154908060010154908060020154908060030154905084565b60046020528060005260406000206000915090508060000154908060010154908060020154908060030154908060040154905085565b806001600082815260200190815260200160002060050160009054906101000a900473ffffffffffffffffffffffffffffffffffffffff1673ffffffffffffffffffffffffffffffffffffffff163373ffffffffffffffffffffffffffffffffffffffff161461280157600080fd5b600115156001600083815260200190815260200160002060030160028154811061282e5761282d61303b565b5b90600052602060002090602091828204019190069054906101000a900460ff1615151461285a57600080fd5b60011515600160008381526020019081526020016000206003016001815481106128875761288661303b565b5b90600052602060002090602091828204019190069054906101000a900460ff161515146128b357600080fd5b60001515600160008381526020019081526020016000206003016003815481106128e0576128df61303b565b5b90600052602060002090602091828204019190069054906101000a900460ff1615151461290c57600080fd5b6002600082815260200190815260200160002060020154421161292e57600080fd5b6001600083815260200190815260200160002060020160009054906101000a900473ffffffffffffffffffffffffffffffffffffffff1673ffffffffffffffffffffffffffffffffffffffff166323b872dd306001600086815260200190815260200160002060050160009054906101000a900473ffffffffffffffffffffffffffffffffffffffff1660036000878152602001908152602001600020600101546040518463ffffffff1660e01b81526004016129ed9392919061306a565b6020604051808303816000875af1158015612a0c573d6000803e3d6000fd5b505050506040513d601f19601f82011682018060405250810190612a3091906130d9565b507fdf592194054f79267b448bfac393c36642c041ef6c39924592ab0e98c77b2b71426003600085815260200190815260200160002060010154604051612a78929190613106565b60405180910390a1600060036000848152602001908152602001600020600101819055505050565b6000806000905060005b60038161ffff161015612b3c57600073ffffffffffffffffffffffffffffffffffffffff16848261ffff1660038110612ae657612ae561303b565b5b602002016020810190612af99190613864565b73ffffffffffffffffffffffffffffffffffffffff161415612b1a57612b3c565b600182612b27919061332b565b91508080612b3490613891565b915050612aaa565b5080915050919050565b8260038101928215612bc8579160200282015b82811115612bc757823573ffffffffffffffffffffffffffffffffffffffff168260006101000a81548173ffffffffffffffffffffffffffffffffffffffff021916908373ffffffffffffffffffffffffffffffffffffffff16021790555091602001919060010190612b59565b5b509050612bd59190612bd9565b5090565b5b80821115612bf2576000816000905550600101612bda565b5090565b600080fd5b6000819050919050565b612c0e81612bfb565b8114612c1957600080fd5b50565b600081359050612c2b81612c05565b92915050565b600060208284031215612c4757612c46612bf6565b5b6000612c5584828501612c1c565b91505092915050565b6000819050919050565b612c7181612c5e565b82525050565b6000608082019050612c8c6000830187612c68565b612c996020830186612c68565b612ca66040830185612c68565b612cb36060830184612c68565b95945050505050565b600061ffff82169050919050565b612cd381612cbc565b8114612cde57600080fd5b50565b600081359050612cf081612cca565b92915050565b600073ffffffffffffffffffffffffffffffffffffffff82169050919050565b6000612d2182612cf6565b9050919050565b612d3181612d16565b8114612d3c57600080fd5b50565b600081359050612d4e81612d28565b92915050565b6000612d5f82612cf6565b9050919050565b612d6f81612d54565b8114612d7a57600080fd5b50565b600081359050612d8c81612d66565b92915050565b612d9b81612c5e565b8114612da657600080fd5b50565b600081359050612db881612d92565b92915050565b600080fd5b600081905082602060030282011115612ddf57612dde612dbe565b5b92915050565b60008060008060008060008060006101608a8c031215612e0857612e07612bf6565b5b6000612e168c828d01612ce1565b9950506020612e278c828d01612ce1565b9850506040612e388c828d01612d3f565b9750506060612e498c828d01612d3f565b9650506080612e5a8c828d01612d7d565b95505060a0612e6b8c828d01612c1c565b94505060c0612e7c8c828d01612c1c565b93505060e0612e8d8c828d01612da9565b925050610100612e9f8c828d01612dc3565b9150509295985092959850929598565b600080600060a08486031215612ec857612ec7612bf6565b5b6000612ed686828701612c1c565b9350506020612ee786828701612c1c565b9250506040612ef886828701612dc3565b9150509250925092565b60008060008060c08587031215612f1c57612f1b612bf6565b5b6000612f2a87828801612c1c565b9450506020612f3b87828801612c1c565b9350506040612f4c87828801612c1c565b9250506060612f5d87828801612dc3565b91505092959194509250565b612f7281612d54565b82525050565b60008160030b9050919050565b612f8e81612f78565b82525050565b6000608082019050612fa96000830187612f69565b612fb66020830186612f85565b612fc36040830185612f69565b612fd06060830184612f69565b95945050505050565b612fe281612bfb565b82525050565b600060a082019050612ffd6000830188612fd9565b61300a6020830187612c68565b6130176040830186612c68565b6130246060830185612c68565b6130316080830184612c68565b9695505050505050565b7f4e487b7100000000000000000000000000000000000000000000000000000000600052603260045260246000fd5b600060608201905061307f6000830186612f69565b61308c6020830185612f69565b6130996040830184612c68565b949350505050565b60008115159050919050565b6130b6816130a1565b81146130c157600080fd5b50565b6000815190506130d3816130ad565b92915050565b6000602082840312156130ef576130ee612bf6565b5b60006130fd848285016130c4565b91505092915050565b600060408201905061311b6000830185612c68565b6131286020830184612c68565b9392505050565b600082825260208201905092915050565b7f4173736574206e6f7420657363726f7765640000000000000000000000000000600082015250565b600061317660128361312f565b915061318182613140565b602082019050919050565b600060208201905081810360008301526131a581613169565b9050919050565b7f416c72656164792072656465656d656420617373657400000000000000000000600082015250565b60006131e260168361312f565b91506131ed826131ac565b602082019050919050565b60006020820190508181036000830152613211816131d5565b9050919050565b7f4e487b7100000000000000000000000000000000000000000000000000000000600052601160045260246000fd5b600061325282612c5e565b915061325d83612c5e565b9250817fffffffffffffffffffffffffffffffffffffffffffffffffffffffffffffffff048311821515161561329657613295613218565b5b828202905092915050565b60006132ac82612c5e565b91506132b783612c5e565b9250827fffffffffffffffffffffffffffffffffffffffffffffffffffffffffffffffff038211156132ec576132eb613218565b5b828201905092915050565b600061330282612cbc565b915061330d83612cbc565b9250828210156133205761331f613218565b5b828203905092915050565b600061333682612cbc565b915061334183612cbc565b92508261ffff0382111561335857613357613218565b5b828201905092915050565b61336c81612d16565b82525050565b600060c0820190506133876000830189612c68565b6133946020830188612c68565b6133a16040830187612fd9565b6133ae6060830186612fd9565b6133bb6080830185613363565b6133c860a0830184613363565b979650505050505050565b7f646964206e6f7420657363726f77207072656d69756d20696e2074696d650000600082015250565b6000613409601e8361312f565b9150613414826133d3565b602082019050919050565b60006020820190508181036000830152613438816133fc565b9050919050565b60006020820190506134546000830184612fd9565b92915050565b600081519050919050565b600081905092915050565b60005b8381101561348e578082015181840152602081019050613473565b8381111561349d576000848401525b50505050565b60006134ae8261345a565b6134b88185613465565b93506134c8818560208601613470565b80840191505092915050565b60006134e082846134a3565b915081905092915050565b6000815190506134fa81612c05565b92915050565b60006020828403121561351657613515612bf6565b5b6000613524848285016134eb565b91505092915050565b600061353882612c5e565b91507fffffffffffffffffffffffffffffffffffffffffffffffffffffffffffffffff82141561356b5761356a613218565b5b600182019050919050565b600060208201905061358b6000830184612f69565b92915050565b6000815190506135a081612d92565b92915050565b6000602082840312156135bc576135bb612bf6565b5b60006135ca84828501613591565b91505092915050565b7f646964206e6f74206465706f73697420726564656d7074696f6e207072656d6960008201527f756d20696e2074696d6500000000000000000000000000000000000000000000602082015250565b600061362f602a8361312f565b915061363a826135d3565b604082019050919050565b6000602082019050818103600083015261365e81613622565b9050919050565b600060039050919050565b600081905092915050565b6000819050919050565b61368e81612d54565b82525050565b60006136a08383613685565b60208301905092915050565b60006136bb6020840184612d7d565b905092915050565b6000602082019050919050565b6136d981613665565b6136e38184613670565b92506136ee8261367b565b8060005b838110156137275761370482846136ac565b61370e8782613694565b9650613719836136c3565b9250506001810190506136f2565b505050505050565b600060a0820190506137446000830186612c68565b6137516020830185612c68565b61375e60408301846136d0565b949350505050565b7f646964206e6f74206465706f73697420657363726f77207072656d69756d206960008201527f6e2074696d650000000000000000000000000000000000000000000000000000602082015250565b60006137c260268361312f565b91506137cd82613766565b604082019050919050565b600060208201905081810360008301526137f1816137b5565b9050919050565b7f646964206e6f7420657363726f7720617373657420696e2074696d6500000000600082015250565b600061382e601c8361312f565b9150613839826137f8565b602082019050919050565b6000602082019050818103600083015261385d81613821565b9050919050565b60006020828403121561387a57613879612bf6565b5b600061388884828501612d7d565b91505092915050565b600061389c82612cbc565b915061ffff8214156138b1576138b0613218565b5b60018201905091905056fea2646970667358221220d1a385142054073201facdcef3b9b8033489c2c930300585cb3769aacbee5f8f64736f6c634300080b0033",
  "immutableReferences": {},
  "source": "// Some functions based off of fair-atomic-swap/src/atomicswap/eip2266/ERC2266Swap.sol\r\n// Copyright (c) 2019 Chris Haoyu LIN, Runchao HAN, Jiangshan YU\r\n// SPDX-License-Identifier: UNLICENSED\r\n\r\n// todo: fix all states to be different names\r\n\r\npragma solidity ^0.8.10;\r\n\r\nimport \"./libraries/token/ERC20/ERC20.sol\";\r\n\r\n//How does correctness of policy depend on Delta?\r\n//Save Delta as Constant and then we can toy with it\r\n\r\n//Generate different tracelogs for different deltas\r\n//TODO: Refactor state.filled\r\n//TODO: refactor hashLock to keyword\r\ncontract BananaSwap {\r\n\r\n    /**\r\n        We will manipulate the DELTA variable (seconds) to see how sucessful the monitor is\r\n     */\r\n\r\n    uint constant DELTA = 20; //TODO: choose your DELTA\r\n    uint constant numParticipants = 3;\r\n    uint constant numLeaders = 1;\r\n    uint constant numEdges = 3;\r\n    uint constant maxNumPaths = 1;\r\n    uint constant maxPathLength = 3;\r\n    /**\r\n     * Mappings that store our swap details.\r\n     */\r\n    mapping(bytes32 => bool) hashkeyRedeemed;\r\n    mapping(bytes32 => Swap) public swaps;\r\n    mapping(bytes32 => Escrow) public escrows;\r\n    mapping(bytes32 => EscrowPremium) public escrowPremiums;\r\n    mapping(bytes32 => RedemptionPremium) public redemptionPremiums;\r\n\r\n    //store\r\n    struct Swap {\r\n        bytes32[numLeaders] leaderPremiumHashLock;\r\n        bytes32[numLeaders] leaderEscrowHashLock;\r\n        address assetName;\r\n        int32 timeout;\r\n        bool[] stepsTaken;\r\n        address sender;\r\n        address receiver;\r\n    }\r\n\r\n    /**\r\n     * The Escrow struct keeps track of the escrowed Asset\r\n     */\r\n    struct Escrow {\r\n        //type of asset\r\n        uint expected;\r\n        uint current;\r\n        //the deadline is for escrowing\r\n        uint deadline;\r\n        //the timeout is for redeeming\r\n        uint timeout;\r\n    }\r\n\r\n    /**\r\n     * The Premium struct keeps track of the deposited premium.\r\n     */\r\n    struct EscrowPremium {\r\n        uint expected;\r\n        uint current;\r\n        uint deadline;\r\n        uint timeout;\r\n    }\r\n\r\n    struct RedemptionPremium {\r\n        bytes32 hashlock;\r\n        uint expected;\r\n        uint current;\r\n        uint deadline;\r\n        uint timeout;\r\n        address[numParticipants] path;\r\n\r\n    }\r\n\r\n////// event interfaces are defined as below\r\n\r\n    event SetUp(\r\n        uint timestamp,\r\n        uint startTime,\r\n        bytes32 escrowHashLock,\r\n        bytes32 premiumHashLock,\r\n        address payable sender,\r\n        address payable receiver\r\n    );\r\n\r\n    event EscrowPremiumDeposited(\r\n        uint timestamp,\r\n        uint premiumAmount\r\n    );\r\n    event RedemptionPremiumDeposited(\r\n        uint timestamp,\r\n        uint premiumAmount,\r\n        address[numParticipants] path\r\n    );  \r\n\r\n    event AssetEscrowed (\r\n        uint timestamp,\r\n        uint assetAmount\r\n    );\r\n\r\n\r\n\r\n    event EscrowPremiumRefunded(\r\n        uint timestamp,\r\n        uint amountRefunded\r\n    );\r\n\r\n    event EscrowPremiumRedeemed(\r\n        uint timestamp,\r\n        uint amountRedeemed\r\n    );\r\n\r\n    event RedemptionPremiumRedeemed(\r\n        uint timestamp,\r\n        uint amountRedeemed\r\n\r\n    );\r\n    event RedemptionPremiumRefunded(\r\n        uint timestamp,\r\n        uint amountRefunded\r\n    );\r\n\r\n    event AssetRedeemed(\r\n        uint timestamp,\r\n        uint amountRedeemed\r\n    );\r\n\r\n    event AssetRefunded(\r\n        uint timestamp,\r\n        uint amountRefunded\r\n    );\r\n\r\n\r\n//// modifiers below\r\n\r\n\r\n    modifier canSetup(bytes32 escrowHashLock) {\r\n        require(swaps[escrowHashLock].stepsTaken[0] == false);\r\n        _;\r\n    }\r\n    modifier canDepositEscrowPremium(bytes32 escrowHashLock){\r\n        require(msg.sender == swaps[escrowHashLock].sender);\r\n        require(swaps[escrowHashLock].stepsTaken[0] == true && swaps[escrowHashLock].stepsTaken[1] == false);\r\n        require(ERC20(swaps[escrowHashLock].assetName).balanceOf(msg.sender) >= escrowPremiums[escrowHashLock].expected);\r\n        require(block.timestamp <= escrowPremiums[escrowHashLock].deadline, \"did not deposit escrow premium in time\");\r\n        _;\r\n    }\r\n    modifier canDepositRedemptionPremium(bytes32 escrowHashLock, bytes32 premiumHashLock, bytes32 preimage, address[maxPathLength] calldata path){\r\n        require(msg.sender == swaps[escrowHashLock].receiver);\r\n        require(swaps[escrowHashLock].stepsTaken[1] == true && swaps[escrowHashLock].stepsTaken[2] == false);\r\n        require(sha256(abi.encode(preimage)) == swaps[escrowHashLock].leaderPremiumHashLock[0]);\r\n        require(ERC20(swaps[escrowHashLock].assetName).balanceOf(msg.sender) >= redemptionPremiums[escrowHashLock].expected);\r\n        require(block.timestamp <= redemptionPremiums[escrowHashLock].deadline, \"did not deposit redemption premium in time\");\r\n        _;\r\n    }\r\n    modifier canEscrowAsset(bytes32 escrowHashLock) {\r\n        require(msg.sender == swaps[escrowHashLock].sender);\r\n        require(swaps[escrowHashLock].stepsTaken[2] == true && swaps[escrowHashLock].stepsTaken[3] == false);\r\n        require(ERC20(swaps[escrowHashLock].assetName).balanceOf(msg.sender) >= escrows[escrowHashLock].expected);\r\n        require(block.timestamp <= escrows[escrowHashLock].deadline, \"did not escrow asset in time\");\r\n        _;\r\n    }\r\n    modifier canUnlockHashLock(bytes32 escrowHashLock, bytes32 preimage, address[maxPathLength] memory path)\r\n    {\r\n        require(msg.sender == swaps[escrowHashLock].sender);\r\n        require(swaps[escrowHashLock].stepsTaken[4] == false && swaps[escrowHashLock].stepsTaken[2] == true);\r\n        //require the hashlock has not been unlocked and that there has been a redemption premium deposited\r\n        require(block.timestamp <= redemptionPremiums[escrowHashLock].timeout, \"did not escrow premium in time\");\r\n        require(sha256(abi.encode(preimage)) == swaps[escrowHashLock].leaderEscrowHashLock[0]);\r\n        address[maxPathLength] memory stored_path = redemptionPremiums[escrowHashLock].path;\r\n        for(uint i = 0; i < maxPathLength; i++)\r\n        {\r\n            require(stored_path[i] == path[i]);\r\n        }\r\n        _;\r\n    }\r\n    modifier canRedeemAsset(bytes32 escrowHashLock) {\r\n        require(msg.sender == swaps[escrowHashLock].receiver);\r\n        require(swaps[escrowHashLock].stepsTaken[4] == true);\r\n        require(block.timestamp <= escrows[escrowHashLock].timeout);\r\n        _;\r\n    }\r\n\r\n    modifier canRefundAsset(bytes32 escrowHashLock) {\r\n        require(msg.sender == swaps[escrowHashLock].sender);\r\n        require(swaps[escrowHashLock].stepsTaken[3] == true, \"Asset not escrowed\");\r\n        require(swaps[escrowHashLock].stepsTaken[4] == false, \"Already redeemed asset\");\r\n        require(block.timestamp > escrows[escrowHashLock].timeout);\r\n        //if the asset is escrowed and the timeout has passed, allow them to get their asset back\r\n        _;\r\n    }\r\n\r\n\r\n    modifier canRedeemEscrowPremium(bytes32 escrowHashLock) {\r\n        require(msg.sender == swaps[escrowHashLock].receiver);\r\n        require(swaps[escrowHashLock].stepsTaken[2] == true);\r\n        require(swaps[escrowHashLock].stepsTaken[1] == true);\r\n        require(swaps[escrowHashLock].stepsTaken[3] == false);\r\n        require(block.timestamp > escrows[escrowHashLock].deadline);\r\n        _;\r\n    }\r\n\r\n    modifier canRedeemRedemptionPremium(bytes32 escrowHashLock) {\r\n        require(msg.sender == swaps[escrowHashLock].sender);\r\n        require(swaps[escrowHashLock].stepsTaken[2] == true);//Redemption Premium Deposited\r\n        require(swaps[escrowHashLock].stepsTaken[4] == false); //Asset not redeemed\r\n        require(block.timestamp > redemptionPremiums[escrowHashLock].timeout);\r\n        _;\r\n    }\r\n    modifier canRefundEscrowPremium(bytes32 escrowHashLock) {\r\n        require(msg.sender == swaps[escrowHashLock].sender);\r\n        require((block.timestamp > escrowPremiums[escrowHashLock].deadline && swaps[escrowHashLock].stepsTaken[2] == false) \r\n                || (swaps[escrowHashLock].stepsTaken[3] == true));\r\n                //Allow refund to the sender if the deadline passed and the receiver did not post a redemption premium or if the asset has been escrowed\r\n        _;\r\n    }\r\n    modifier canRefundRedemptionPremium(bytes32 escrowHashLock) {\r\n        require(msg.sender == swaps[escrowHashLock].receiver);\r\n        require(swaps[escrowHashLock].stepsTaken[4] == true);\r\n        _;\r\n    }\r\n\r\n    function getPathLength(address[maxPathLength] calldata path) private pure returns (uint16)\r\n    {\r\n        uint16 length = 0;\r\n        for(uint16 i = 0; i < maxPathLength; i++)\r\n        {\r\n            if(path[i] == address(0))\r\n            {\r\n                break;\r\n            }\r\n            length += 1;\r\n        }\r\n        return length;\r\n    }\r\n    function setup(uint16 expectedEscrowAmount,\r\n                    uint16 expectedEscrowPremiumAmount,\r\n                    address payable sender,\r\n                    address payable receiver,\r\n                    address assetName,\r\n                    bytes32 escrowHashLock,\r\n                    bytes32 premiumHashLock,\r\n                    uint startTime,\r\n                    address[numParticipants] calldata path)\r\n        public payable canSetup(escrowHashLock) {\r\n        //set up swap mapping\r\n        {\r\n            swaps[escrowHashLock].assetName = assetName;\r\n            swaps[escrowHashLock].stepsTaken[0] = true;\r\n            swaps[escrowHashLock].sender = sender;\r\n            swaps[escrowHashLock].receiver = receiver;\r\n            swaps[escrowHashLock].leaderPremiumHashLock[0] = premiumHashLock;\r\n            swaps[escrowHashLock].leaderEscrowHashLock[0] = escrowHashLock;\r\n        }\r\n\r\n        //set up escrow mapping\r\n        {\r\n            escrows[escrowHashLock].expected = expectedEscrowAmount;\r\n            escrows[escrowHashLock].deadline = startTime + 8 * DELTA;\r\n            escrows[escrowHashLock].timeout = startTime + 11 * DELTA;\r\n        }\r\n\r\n        //set up premium mapping\r\n        {\r\n            escrowPremiums[escrowHashLock].expected = expectedEscrowPremiumAmount;\r\n            escrowPremiums[escrowHashLock].deadline = startTime + 2 * DELTA;\r\n            escrowPremiums[escrowHashLock].timeout = startTime + 8 * DELTA;\r\n        }\r\n\r\n            redemptionPremiums[escrowHashLock].path = path;\r\n            redemptionPremiums[escrowHashLock].expected = 4-getPathLength(path);//1,2,3, the cost\r\n            redemptionPremiums[escrowHashLock].deadline = startTime + (3+getPathLength(path))* DELTA;//TODO: fix that later\r\n            redemptionPremiums[escrowHashLock].timeout = startTime + (9+getPathLength(path))* DELTA;//TODO: fix that later;    \r\n           \r\n        emit SetUp(\r\n            block.timestamp,\r\n            startTime,\r\n            escrowHashLock,\r\n            premiumHashLock,\r\n            sender, receiver\r\n        );\r\n    }\r\n    function depositEscrowPremium(bytes32 escrowHashLock) public payable canDepositEscrowPremium(escrowHashLock)\r\n    {\r\n        ERC20(swaps[escrowHashLock].assetName).transferFrom(swaps[escrowHashLock].sender, address(this), escrowPremiums[escrowHashLock].expected);\r\n        escrowPremiums[escrowHashLock].current = escrowPremiums[escrowHashLock].expected;\r\n        swaps[escrowHashLock].stepsTaken[1] = true;\r\n\r\n        emit EscrowPremiumDeposited(\r\n            block.timestamp,\r\n            escrowPremiums[escrowHashLock].current\r\n        );\r\n    }\r\n\r\n    function depositRedemptionPremium(bytes32 escrowHashLock, bytes32 premiumHashLock, bytes32 preimage, address[maxPathLength] calldata path) public payable canDepositRedemptionPremium(escrowHashLock, premiumHashLock, preimage, path)\r\n    {\r\n        ERC20(swaps[escrowHashLock].assetName).transferFrom(swaps[escrowHashLock].receiver, address(this), redemptionPremiums[escrowHashLock].expected);\r\n        redemptionPremiums[escrowHashLock].current = redemptionPremiums[escrowHashLock].expected;\r\n        swaps[escrowHashLock].stepsTaken[2] = true;\r\n\r\n        emit RedemptionPremiumDeposited(\r\n            block.timestamp,\r\n            redemptionPremiums[escrowHashLock].current,\r\n            path\r\n        );\r\n    }\r\n\r\n    function escrowAsset(bytes32 escrowHashLock) public payable canEscrowAsset(escrowHashLock) {\r\n        ERC20(swaps[escrowHashLock].assetName).transferFrom(swaps[escrowHashLock].sender, address(this), escrows[escrowHashLock].expected);\r\n        escrows[escrowHashLock].current = escrowPremiums[escrowHashLock].expected;\r\n        swaps[escrowHashLock].stepsTaken[3] = true;\r\n        refundEscrowPremium(escrowHashLock);\r\n        emit AssetEscrowed(\r\n            block.timestamp,\r\n            escrows[escrowHashLock].current\r\n        );\r\n    }\r\n\r\n\r\n    function unlockHashlock(bytes32 escrowHashLock, bytes32 preimage, address[maxPathLength] calldata path) public payable canUnlockHashLock(escrowHashLock, preimage, path)\r\n    {      \r\n        swaps[escrowHashLock].stepsTaken[4] = true;\r\n        if(swaps[escrowHashLock].stepsTaken[2]==true)\r\n        {\r\n            refundRedemptionPremium(escrowHashLock);\r\n        }\r\n        // we need to call refundredemptionpremium to get back the corresponding redemption premium\r\n\r\n        if(swaps[escrowHashLock].stepsTaken[3]==true)\r\n        {\r\n            redeemAsset(escrowHashLock);\r\n        }\r\n\r\n    }\r\n\r\n    function redeemAsset(bytes32 escrowHashLock) public payable canRedeemAsset(escrowHashLock) {\r\n        ERC20(swaps[escrowHashLock].assetName).transferFrom(address(this), swaps[escrowHashLock].receiver, escrows[escrowHashLock].current);\r\n        emit AssetRedeemed(\r\n            block.timestamp,\r\n            escrows[escrowHashLock].current\r\n        );\r\n        escrows[escrowHashLock].current = 0;\r\n    }\r\n\r\n    function refundAsset(bytes32 escrowHashLock) public canRefundAsset(escrowHashLock) {\r\n        ERC20(swaps[escrowHashLock].assetName).transferFrom(address(this), swaps[escrowHashLock].sender, escrows[escrowHashLock].current);\r\n        emit AssetRefunded(\r\n            block.timestamp,\r\n            escrows[escrowHashLock].current\r\n        );\r\n        escrows[escrowHashLock].current = 0;\r\n    }\r\n\r\n    function redeemEscrowPremium(bytes32 escrowHashLock) public canRedeemEscrowPremium(escrowHashLock){\r\n        ERC20(swaps[escrowHashLock].assetName).transferFrom(address(this), swaps[escrowHashLock].receiver, escrowPremiums[escrowHashLock].current);\r\n        emit EscrowPremiumRedeemed(\r\n            block.timestamp, \r\n            escrowPremiums[escrowHashLock].current\r\n        );\r\n        escrowPremiums[escrowHashLock].current = 0;\r\n    }\r\n    ///\r\n    function refundEscrowPremium(bytes32 escrowHashLock) public payable canRefundEscrowPremium(escrowHashLock){\r\n        ERC20(swaps[escrowHashLock].assetName).transferFrom(address(this), swaps[escrowHashLock].sender, escrowPremiums[escrowHashLock].current);\r\n        emit EscrowPremiumRefunded(\r\n            block.timestamp,\r\n            escrowPremiums[escrowHashLock].current\r\n        );\r\n        escrowPremiums[escrowHashLock].current = 0;\r\n    }\r\n\r\n    function redeemRedemptionPremium(bytes32 escrowHashLock) public canRedeemRedemptionPremium(escrowHashLock){\r\n        ERC20(swaps[escrowHashLock].assetName).transferFrom(address(this), swaps[escrowHashLock].sender, redemptionPremiums[escrowHashLock].current);\r\n        emit RedemptionPremiumRedeemed(\r\n            block.timestamp,\r\n            redemptionPremiums[escrowHashLock].current\r\n        );\r\n        redemptionPremiums[escrowHashLock].current = 0;\r\n    }\r\n\r\n    function refundRedemptionPremium(bytes32 escrowHashLock) public payable canRefundRedemptionPremium(escrowHashLock){\r\n        ERC20(swaps[escrowHashLock].assetName).transferFrom(address(this), swaps[escrowHashLock].receiver, redemptionPremiums[escrowHashLock].current);\r\n        emit RedemptionPremiumRefunded(\r\n            block.timestamp,\r\n            redemptionPremiums[escrowHashLock].current\r\n        );\r\n        redemptionPremiums[escrowHashLock].current = 0;\r\n    }\r\n}",
  "sourcePath": "C:\\Users\\aaron\\Documents\\Swaps\\blockc-rv\\3-party-swap-edges\\contracts\\BananaSwap.sol",
  "compiler": {
    "name": "solc",
    "version": "0.8.11+commit.d7f03943.Emscripten.clang"
  },
  "schemaVersion": "3.4.4",
  "updatedAt": "2022-01-02T18:17:15.846Z",
  "networkType": "ethereum",
  "devdoc": {
    "kind": "dev",
    "methods": {},
    "version": 1
  },
  "userdoc": {
    "kind": "user",
    "methods": {},
    "version": 1
  }
}