{
  "contractName": "Tokens",
  "abi": [
    {
      "inputs": [
        {
          "internalType": "bytes32",
          "name": "",
          "type": "bytes32"
        }
      ],
      "name": "tokens",
      "outputs": [
        {
          "internalType": "bytes32",
          "name": "ticker",
          "type": "bytes32"
        },
        {
          "internalType": "address",
          "name": "tokenAddress",
          "type": "address"
        }
      ],
      "stateMutability": "view",
      "type": "function"
    },
    {
      "inputs": [
        {
          "internalType": "address",
          "name": "",
          "type": "address"
        },
        {
          "internalType": "bytes32",
          "name": "",
          "type": "bytes32"
        }
      ],
      "name": "traderBalances",
      "outputs": [
        {
          "internalType": "uint256",
          "name": "",
          "type": "uint256"
        }
      ],
      "stateMutability": "view",
      "type": "function"
    },
    {
      "inputs": [
        {
          "internalType": "bytes32",
          "name": "ticker",
          "type": "bytes32"
        },
        {
          "internalType": "address",
          "name": "tokenAddress",
          "type": "address"
        }
      ],
      "name": "addToken",
      "outputs": [],
      "stateMutability": "nonpayable",
      "type": "function"
    },
    {
      "inputs": [
        {
          "internalType": "uint256",
          "name": "amount",
          "type": "uint256"
        },
        {
          "internalType": "bytes32",
          "name": "ticker",
          "type": "bytes32"
        }
      ],
      "name": "deposit",
      "outputs": [],
      "stateMutability": "nonpayable",
      "type": "function"
    }
  ],
  "bytecode": "0x608060405234801561001057600080fd5b506107b1806100206000396000f3fe608060405234801561001057600080fd5b506004361061004c5760003560e01c806372ce957e14610051578063904194a3146100815780639776aacf146100b2578063c9630cb0146100ce575b600080fd5b61006b60048036038101906100669190610449565b6100ea565b60405161007891906104a2565b60405180910390f35b61009b600480360381019061009691906104bd565b61010f565b6040516100a9929190610508565b60405180910390f35b6100cc60048036038101906100c79190610531565b610153565b005b6100e860048036038101906100e3919061059d565b6101e8565b005b6001602052816000526040600020602052806000526040600020600091509150505481565b60006020528060005260406000206000915090508060000154908060010160009054906101000a900473ffffffffffffffffffffffffffffffffffffffff16905082565b60405180604001604052808381526020018273ffffffffffffffffffffffffffffffffffffffff168152506000808481526020019081526020016000206000820151816000015560208201518160010160006101000a81548173ffffffffffffffffffffffffffffffffffffffff021916908373ffffffffffffffffffffffffffffffffffffffff1602179055509050505050565b80600073ffffffffffffffffffffffffffffffffffffffff1660008083815260200190815260200160002060010160009054906101000a900473ffffffffffffffffffffffffffffffffffffffff1673ffffffffffffffffffffffffffffffffffffffff16141561028e576040517f08c379a00000000000000000000000000000000000000000000000000000000081526004016102859061063a565b60405180910390fd5b60008083815260200190815260200160002060010160009054906101000a900473ffffffffffffffffffffffffffffffffffffffff1673ffffffffffffffffffffffffffffffffffffffff166323b872dd3330866040518463ffffffff1660e01b81526004016103009392919061065a565b6020604051808303816000875af115801561031f573d6000803e3d6000fd5b505050506040513d601f19601f8201168201806040525081019061034391906106c9565b5082600160003373ffffffffffffffffffffffffffffffffffffffff1673ffffffffffffffffffffffffffffffffffffffff168152602001908152602001600020600084815260200190815260200160002060008282546103a49190610725565b92505081905550505050565b600080fd5b600073ffffffffffffffffffffffffffffffffffffffff82169050919050565b60006103e0826103b5565b9050919050565b6103f0816103d5565b81146103fb57600080fd5b50565b60008135905061040d816103e7565b92915050565b6000819050919050565b61042681610413565b811461043157600080fd5b50565b6000813590506104438161041d565b92915050565b600080604083850312156104605761045f6103b0565b5b600061046e858286016103fe565b925050602061047f85828601610434565b9150509250929050565b6000819050919050565b61049c81610489565b82525050565b60006020820190506104b76000830184610493565b92915050565b6000602082840312156104d3576104d26103b0565b5b60006104e184828501610434565b91505092915050565b6104f381610413565b82525050565b610502816103d5565b82525050565b600060408201905061051d60008301856104ea565b61052a60208301846104f9565b9392505050565b60008060408385031215610548576105476103b0565b5b600061055685828601610434565b9250506020610567858286016103fe565b9150509250929050565b61057a81610489565b811461058557600080fd5b50565b60008135905061059781610571565b92915050565b600080604083850312156105b4576105b36103b0565b5b60006105c285828601610588565b92505060206105d385828601610434565b9150509250929050565b600082825260208201905092915050565b7f7468697320746f6b656e20646f6573206e6f7420657869737400000000000000600082015250565b60006106246019836105dd565b915061062f826105ee565b602082019050919050565b6000602082019050818103600083015261065381610617565b9050919050565b600060608201905061066f60008301866104f9565b61067c60208301856104f9565b6106896040830184610493565b949350505050565b60008115159050919050565b6106a681610691565b81146106b157600080fd5b50565b6000815190506106c38161069d565b92915050565b6000602082840312156106df576106de6103b0565b5b60006106ed848285016106b4565b91505092915050565b7f4e487b7100000000000000000000000000000000000000000000000000000000600052601160045260246000fd5b600061073082610489565b915061073b83610489565b9250827fffffffffffffffffffffffffffffffffffffffffffffffffffffffffffffffff038211156107705761076f6106f6565b5b82820190509291505056fea2646970667358221220d54bd2fe36dd033d85419af4ce49b217cadb131e9a7d9b0635f256eab7a1f29d64736f6c634300080b0033",
  "immutableReferences": {},
  "source": "// This contract was based\r\n\r\n// SPDX-License-Identifier: UNLICENSED\r\n\r\npragma solidity ^0.8.0;\r\n\r\nimport \"./libraries/token/ERC20/ERC20.sol\";\r\n\r\ncontract Tokens {\r\n\r\n  /**\r\n    Wrapper for ERC20 Token\r\n   */\r\n  struct Token {\r\n        bytes32 ticker;\r\n        address tokenAddress;\r\n    }\r\n\r\n  mapping(bytes32 => Token) public tokens;\r\n  mapping(address => mapping(bytes32 => uint)) public traderBalances;\r\n\r\n  modifier tokenExists(bytes32 ticker) {\r\n        require(\r\n            tokens[ticker].tokenAddress != address(0),\r\n            'this token does not exist'\r\n        );\r\n        _;\r\n    }\r\n\r\n  function addToken(\r\n        bytes32 ticker,\r\n        address tokenAddress)\r\n        external {\r\n        tokens[ticker] = Token(ticker, tokenAddress);\r\n    }\r\n\r\n  function deposit(\r\n      uint256 amount,\r\n      bytes32 ticker)\r\n      tokenExists(ticker)\r\n      external {\r\n      IERC20(tokens[ticker].tokenAddress).transferFrom(\r\n          msg.sender,\r\n          address(this),\r\n          amount\r\n      );\r\n      traderBalances[msg.sender][ticker] += amount;\r\n  }\r\n}\r\n\r\n",
  "sourcePath": "C:\\Users\\aaron\\Documents\\Swaps\\blockc-rv\\3-party-swap-edges\\contracts\\Tokens.sol",
  "compiler": {
    "name": "solc",
    "version": "0.8.11+commit.d7f03943.Emscripten.clang"
  },
  "schemaVersion": "3.4.4",
  "updatedAt": "2022-01-02T18:17:04.602Z",
  "devdoc": {
    "kind": "dev",
    "methods": {},
    "version": 1
  },
  "userdoc": {
    "kind": "user",
    "methods": {},
    "version": 1
  }
}