{
  "contractName": "TwoPartySwapApricot",
  "abi": [
    {
      "anonymous": false,
      "inputs": [
        {
          "indexed": false,
          "internalType": "uint256",
          "name": "timestamp",
          "type": "uint256"
        },
        {
          "indexed": false,
          "internalType": "uint256",
          "name": "assetAmount",
          "type": "uint256"
        },
        {
          "indexed": false,
          "internalType": "enum TwoPartySwapApricot.State",
          "name": "state",
          "type": "uint8"
        }
      ],
      "name": "AssetEscrowed",
      "type": "event"
    },
    {
      "anonymous": false,
      "inputs": [
        {
          "indexed": false,
          "internalType": "uint256",
          "name": "timestamp",
          "type": "uint256"
        },
        {
          "indexed": false,
          "internalType": "enum TwoPartySwapApricot.State",
          "name": "state",
          "type": "uint8"
        }
      ],
      "name": "AssetRedeemed",
      "type": "event"
    },
    {
      "anonymous": false,
      "inputs": [
        {
          "indexed": false,
          "internalType": "uint256",
          "name": "timestamp",
          "type": "uint256"
        },
        {
          "indexed": false,
          "internalType": "enum TwoPartySwapApricot.State",
          "name": "state",
          "type": "uint8"
        }
      ],
      "name": "AssetRefunded",
      "type": "event"
    },
    {
      "anonymous": false,
      "inputs": [
        {
          "indexed": false,
          "internalType": "uint256",
          "name": "timestamp",
          "type": "uint256"
        },
        {
          "indexed": false,
          "internalType": "uint256",
          "name": "premiumAmount",
          "type": "uint256"
        },
        {
          "indexed": false,
          "internalType": "enum TwoPartySwapApricot.State",
          "name": "state",
          "type": "uint8"
        }
      ],
      "name": "PremiumDeposited",
      "type": "event"
    },
    {
      "anonymous": false,
      "inputs": [
        {
          "indexed": false,
          "internalType": "uint256",
          "name": "timestamp",
          "type": "uint256"
        },
        {
          "indexed": false,
          "internalType": "enum TwoPartySwapApricot.State",
          "name": "state",
          "type": "uint8"
        }
      ],
      "name": "PremiumRedeemed",
      "type": "event"
    },
    {
      "anonymous": false,
      "inputs": [
        {
          "indexed": false,
          "internalType": "uint256",
          "name": "timestamp",
          "type": "uint256"
        },
        {
          "indexed": false,
          "internalType": "bytes32",
          "name": "hashLock",
          "type": "bytes32"
        },
        {
          "indexed": false,
          "internalType": "address payable",
          "name": "alice",
          "type": "address"
        },
        {
          "indexed": false,
          "internalType": "address payable",
          "name": "bob",
          "type": "address"
        }
      ],
      "name": "SetUp",
      "type": "event"
    },
    {
      "inputs": [
        {
          "internalType": "bytes32",
          "name": "",
          "type": "bytes32"
        }
      ],
      "name": "escrows",
      "outputs": [
        {
          "internalType": "uint256",
          "name": "expected",
          "type": "uint256"
        },
        {
          "internalType": "uint256",
          "name": "current",
          "type": "uint256"
        },
        {
          "internalType": "uint256",
          "name": "deadline",
          "type": "uint256"
        },
        {
          "internalType": "uint256",
          "name": "timeout",
          "type": "uint256"
        },
        {
          "internalType": "enum TwoPartySwapApricot.State",
          "name": "state",
          "type": "uint8"
        }
      ],
      "stateMutability": "view",
      "type": "function"
    },
    {
      "inputs": [
        {
          "internalType": "bytes32",
          "name": "",
          "type": "bytes32"
        }
      ],
      "name": "premiums",
      "outputs": [
        {
          "internalType": "uint256",
          "name": "expected",
          "type": "uint256"
        },
        {
          "internalType": "uint256",
          "name": "current",
          "type": "uint256"
        },
        {
          "internalType": "uint256",
          "name": "deadline",
          "type": "uint256"
        },
        {
          "internalType": "enum TwoPartySwapApricot.State",
          "name": "state",
          "type": "uint8"
        }
      ],
      "stateMutability": "view",
      "type": "function"
    },
    {
      "inputs": [
        {
          "internalType": "bytes32",
          "name": "",
          "type": "bytes32"
        }
      ],
      "name": "swaps",
      "outputs": [
        {
          "internalType": "address payable",
          "name": "alice",
          "type": "address"
        },
        {
          "internalType": "address payable",
          "name": "bob",
          "type": "address"
        },
        {
          "internalType": "bytes32",
          "name": "hashLock",
          "type": "bytes32"
        },
        {
          "internalType": "address",
          "name": "assetName",
          "type": "address"
        }
      ],
      "stateMutability": "view",
      "type": "function"
    },
    {
      "inputs": [
        {
          "internalType": "uint256",
          "name": "expectedEscrowAlice",
          "type": "uint256"
        },
        {
          "internalType": "uint256",
          "name": "expectedPremiumBob",
          "type": "uint256"
        },
        {
          "internalType": "address payable",
          "name": "alice",
          "type": "address"
        },
        {
          "internalType": "address payable",
          "name": "bob",
          "type": "address"
        },
        {
          "internalType": "address",
          "name": "assetName",
          "type": "address"
        },
        {
          "internalType": "bytes32",
          "name": "hashLock",
          "type": "bytes32"
        }
      ],
      "name": "setup",
      "outputs": [],
      "stateMutability": "payable",
      "type": "function"
    },
    {
      "inputs": [
        {
          "internalType": "bytes32",
          "name": "hashLock",
          "type": "bytes32"
        }
      ],
      "name": "depositPremium",
      "outputs": [],
      "stateMutability": "payable",
      "type": "function"
    },
    {
      "inputs": [
        {
          "internalType": "bytes32",
          "name": "hashLock",
          "type": "bytes32"
        }
      ],
      "name": "escrowAsset",
      "outputs": [],
      "stateMutability": "payable",
      "type": "function"
    },
    {
      "inputs": [
        {
          "internalType": "bytes32",
          "name": "preimage",
          "type": "bytes32"
        },
        {
          "internalType": "bytes32",
          "name": "hashLock",
          "type": "bytes32"
        }
      ],
      "name": "redeemAsset",
      "outputs": [],
      "stateMutability": "nonpayable",
      "type": "function"
    },
    {
      "inputs": [
        {
          "internalType": "bytes32",
          "name": "preimage",
          "type": "bytes32"
        },
        {
          "internalType": "bytes32",
          "name": "hashLock",
          "type": "bytes32"
        }
      ],
      "name": "refundAsset",
      "outputs": [],
      "stateMutability": "nonpayable",
      "type": "function"
    },
    {
      "inputs": [
        {
          "internalType": "bytes32",
          "name": "hashLock",
          "type": "bytes32"
        }
      ],
      "name": "redeemPremium",
      "outputs": [],
      "stateMutability": "nonpayable",
      "type": "function"
    }
  ],
  "bytecode": "0x608060405234801561001057600080fd5b50611c82806100206000396000f3fe6080604052600436106100865760003560e01c806378a3113e1161005957806378a3113e1461012d578063b55587a91461016d578063d72a0a5314610196578063e8d8c29b146101bf578063eb84e7f2146101db57610086565b806310101e291461008b5780632d83549c146100b4578063584587ec146100f557806375a4208814610111575b600080fd5b34801561009757600080fd5b506100b260048036038101906100ad91906114c4565b61021b565b005b3480156100c057600080fd5b506100db60048036038101906100d69190611504565b610477565b6040516100ec9594939291906115c1565b60405180910390f35b61010f600480360381019061010a91906116dc565b6104ba565b005b61012b60048036038101906101269190611504565b610749565b005b34801561013957600080fd5b50610154600480360381019061014f9190611504565b610b3c565b6040516101649493929190611769565b60405180910390f35b34801561017957600080fd5b50610194600480360381019061018f9190611504565b610b79565b005b3480156101a257600080fd5b506101bd60048036038101906101b891906114c4565b610d57565b005b6101d960048036038101906101d49190611504565b610fb3565b005b3480156101e757600080fd5b5061020260048036038101906101fd9190611504565b6113f9565b60405161021294939291906117db565b60405180910390f35b818160008082815260200190815260200160002060010160009054906101000a900473ffffffffffffffffffffffffffffffffffffffff1673ffffffffffffffffffffffffffffffffffffffff163373ffffffffffffffffffffffffffffffffffffffff161461028a57600080fd5b60016000828152602001908152602001600020600201544211156102ad57600080fd5b806002836040516020016102c19190611841565b6040516020818303038152906040526040516102dd91906118d6565b602060405180830381855afa1580156102fa573d6000803e3d6000fd5b5050506040513d601f19601f8201168201806040525081019061031d9190611902565b1461032757600080fd5b60008084815260200190815260200160002060030160009054906101000a900473ffffffffffffffffffffffffffffffffffffffff1673ffffffffffffffffffffffffffffffffffffffff166323b872dd3060008087815260200190815260200160002060000160009054906101000a900473ffffffffffffffffffffffffffffffffffffffff1660016000888152602001908152602001600020600101546040518463ffffffff1660e01b81526004016103e49392919061198e565b602060405180830381600087803b1580156103fe57600080fd5b505af1158015610412573d6000803e3d6000fd5b505050506040513d601f19601f8201168201806040525081019061043691906119fd565b507fd14f64baeac22168708c8bfd7f42223951a95d68a8c70bc8fc4215e3ab8c7381426003604051610469929190611a2a565b60405180910390a150505050565b60016020528060005260406000206000915090508060000154908060010154908060020154908060030154908060040160009054906101000a900460ff16905085565b80600060048111156104cf576104ce61154a565b5b6001600083815260200190815260200160002060040160009054906101000a900460ff1660048111156105055761050461154a565b5b1461050f57600080fd5b600060048111156105235761052261154a565b5b6002600083815260200190815260200160002060030160009054906101000a900460ff1660048111156105595761055861154a565b5b1461056357600080fd5b81600080848152602001908152602001600020600201819055508260008084815260200190815260200160002060030160006101000a81548173ffffffffffffffffffffffffffffffffffffffff021916908373ffffffffffffffffffffffffffffffffffffffff1602179055508460008084815260200190815260200160002060000160006101000a81548173ffffffffffffffffffffffffffffffffffffffff021916908373ffffffffffffffffffffffffffffffffffffffff1602179055508360008084815260200190815260200160002060010160006101000a81548173ffffffffffffffffffffffffffffffffffffffff021916908373ffffffffffffffffffffffffffffffffffffffff1602179055508660016000848152602001908152602001600020600001819055506000600160008481526020019081526020016000206002018190555060006001600084815260200190815260200160002060030181905550856002600084815260200190815260200160002060000181905550600060026000848152602001908152602001600020600201819055507f5cdf8208bb7d74e44dbe0efe185239a77a93e52625729a164294c369ab4c53ed428387876040516107389493929190611a53565b60405180910390a150505050505050565b8060008082815260200190815260200160002060010160009054906101000a900473ffffffffffffffffffffffffffffffffffffffff1673ffffffffffffffffffffffffffffffffffffffff163373ffffffffffffffffffffffffffffffffffffffff16146107b757600080fd5b600060048111156107cb576107ca61154a565b5b6002600083815260200190815260200160002060030160009054906101000a900460ff1660048111156108015761080061154a565b5b1461080b57600080fd5b600260008281526020019081526020016000206000015460008083815260200190815260200160002060030160009054906101000a900473ffffffffffffffffffffffffffffffffffffffff1673ffffffffffffffffffffffffffffffffffffffff166370a08231336040518263ffffffff1660e01b81526004016108909190611a98565b60206040518083038186803b1580156108a857600080fd5b505afa1580156108bc573d6000803e3d6000fd5b505050506040513d601f19601f820116820180604052508101906108e09190611ac8565b10156108eb57600080fd5b6002600082815260200190815260200160002060020154421115610944576040517f08c379a000000000000000000000000000000000000000000000000000000000815260040161093b90611b52565b60405180910390fd5b60008083815260200190815260200160002060030160009054906101000a900473ffffffffffffffffffffffffffffffffffffffff1673ffffffffffffffffffffffffffffffffffffffff166323b872dd60008085815260200190815260200160002060010160009054906101000a900473ffffffffffffffffffffffffffffffffffffffff163060026000878152602001908152602001600020600001546040518463ffffffff1660e01b8152600401610a0193929190611b72565b602060405180830381600087803b158015610a1b57600080fd5b505af1158015610a2f573d6000803e3d6000fd5b505050506040513d601f19601f82011682018060405250810190610a5391906119fd565b506002600083815260200190815260200160002060000154600260008481526020019081526020016000206001018190555060016002600084815260200190815260200160002060030160006101000a81548160ff02191690836004811115610abf57610abe61154a565b5b02179055507f9d3a90c48fdf7757ea9550cd81505cd44f6c168215c3f07369fe10fe586599094260026000858152602001908152602001600020600101546002600086815260200190815260200160002060030160009054906101000a900460ff16604051610b3093929190611ba9565b60405180910390a15050565b60026020528060005260406000206000915090508060000154908060010154908060020154908060030160009054906101000a900460ff16905084565b8060008082815260200190815260200160002060000160009054906101000a900473ffffffffffffffffffffffffffffffffffffffff1673ffffffffffffffffffffffffffffffffffffffff163373ffffffffffffffffffffffffffffffffffffffff1614610be757600080fd5b60016000828152602001908152602001600020600301544211610c0957600080fd5b60008083815260200190815260200160002060030160009054906101000a900473ffffffffffffffffffffffffffffffffffffffff1673ffffffffffffffffffffffffffffffffffffffff166323b872dd3060008086815260200190815260200160002060000160009054906101000a900473ffffffffffffffffffffffffffffffffffffffff1660016000878152602001908152602001600020600101546040518463ffffffff1660e01b8152600401610cc69392919061198e565b602060405180830381600087803b158015610ce057600080fd5b505af1158015610cf4573d6000803e3d6000fd5b505050506040513d601f19601f82011682018060405250810190610d1891906119fd565b507fcf5150d722eff59a5bfe502baa316afa64ccb8abfcc88aaad12ea36a9c9d9ad1426002604051610d4b929190611a2a565b60405180910390a15050565b818160008082815260200190815260200160002060010160009054906101000a900473ffffffffffffffffffffffffffffffffffffffff1673ffffffffffffffffffffffffffffffffffffffff163373ffffffffffffffffffffffffffffffffffffffff1614610dc657600080fd5b6001600082815260200190815260200160002060020154421115610de957600080fd5b80600283604051602001610dfd9190611841565b604051602081830303815290604052604051610e1991906118d6565b602060405180830381855afa158015610e36573d6000803e3d6000fd5b5050506040513d601f19601f82011682018060405250810190610e599190611902565b14610e6357600080fd5b60008084815260200190815260200160002060030160009054906101000a900473ffffffffffffffffffffffffffffffffffffffff1673ffffffffffffffffffffffffffffffffffffffff166323b872dd3060008087815260200190815260200160002060010160009054906101000a900473ffffffffffffffffffffffffffffffffffffffff1660016000888152602001908152602001600020600101546040518463ffffffff1660e01b8152600401610f209392919061198e565b602060405180830381600087803b158015610f3a57600080fd5b505af1158015610f4e573d6000803e3d6000fd5b505050506040513d601f19601f82011682018060405250810190610f7291906119fd565b507fcf5150d722eff59a5bfe502baa316afa64ccb8abfcc88aaad12ea36a9c9d9ad1426002604051610fa5929190611a2a565b60405180910390a150505050565b8060008082815260200190815260200160002060000160009054906101000a900473ffffffffffffffffffffffffffffffffffffffff1673ffffffffffffffffffffffffffffffffffffffff163373ffffffffffffffffffffffffffffffffffffffff161461102157600080fd5b600160048111156110355761103461154a565b5b6002600083815260200190815260200160002060030160009054906101000a900460ff16600481111561106b5761106a61154a565b5b1461107557600080fd5b600060048111156110895761108861154a565b5b6001600083815260200190815260200160002060040160009054906101000a900460ff1660048111156110bf576110be61154a565b5b146110c957600080fd5b600160008281526020019081526020016000206000015460008083815260200190815260200160002060030160009054906101000a900473ffffffffffffffffffffffffffffffffffffffff1673ffffffffffffffffffffffffffffffffffffffff166370a08231336040518263ffffffff1660e01b815260040161114e9190611a98565b60206040518083038186803b15801561116657600080fd5b505afa15801561117a573d6000803e3d6000fd5b505050506040513d601f19601f8201168201806040525081019061119e9190611ac8565b10156111a957600080fd5b6001600082815260200190815260200160002060020154421115611202576040517f08c379a00000000000000000000000000000000000000000000000000000000081526004016111f990611c2c565b60405180910390fd5b60008083815260200190815260200160002060030160009054906101000a900473ffffffffffffffffffffffffffffffffffffffff1673ffffffffffffffffffffffffffffffffffffffff166323b872dd60008085815260200190815260200160002060000160009054906101000a900473ffffffffffffffffffffffffffffffffffffffff163060016000878152602001908152602001600020600001546040518463ffffffff1660e01b81526004016112bf93929190611b72565b602060405180830381600087803b1580156112d957600080fd5b505af11580156112ed573d6000803e3d6000fd5b505050506040513d601f19601f8201168201806040525081019061131191906119fd565b5060016000838152602001908152602001600020600001546001600084815260200190815260200160002060010181905550600180600084815260200190815260200160002060040160006101000a81548160ff0219169083600481111561137c5761137b61154a565b5b02179055507f608c9acc9595e184dff31bb4304c62ab7f110be96c4e6920a01b7497dff98c204260016000858152602001908152602001600020600101546001600086815260200190815260200160002060040160009054906101000a900460ff166040516113ed93929190611ba9565b60405180910390a15050565b60006020528060005260406000206000915090508060000160009054906101000a900473ffffffffffffffffffffffffffffffffffffffff16908060010160009054906101000a900473ffffffffffffffffffffffffffffffffffffffff16908060020154908060030160009054906101000a900473ffffffffffffffffffffffffffffffffffffffff16905084565b600080fd5b6000819050919050565b6114a18161148e565b81146114ac57600080fd5b50565b6000813590506114be81611498565b92915050565b600080604083850312156114db576114da611489565b5b60006114e9858286016114af565b92505060206114fa858286016114af565b9150509250929050565b60006020828403121561151a57611519611489565b5b6000611528848285016114af565b91505092915050565b6000819050919050565b61154481611531565b82525050565b7f4e487b7100000000000000000000000000000000000000000000000000000000600052602160045260246000fd5b6005811061158a5761158961154a565b5b50565b600081905061159b82611579565b919050565b60006115ab8261158d565b9050919050565b6115bb816115a0565b82525050565b600060a0820190506115d6600083018861153b565b6115e3602083018761153b565b6115f0604083018661153b565b6115fd606083018561153b565b61160a60808301846115b2565b9695505050505050565b61161d81611531565b811461162857600080fd5b50565b60008135905061163a81611614565b92915050565b600073ffffffffffffffffffffffffffffffffffffffff82169050919050565b600061166b82611640565b9050919050565b61167b81611660565b811461168657600080fd5b50565b60008135905061169881611672565b92915050565b60006116a982611640565b9050919050565b6116b98161169e565b81146116c457600080fd5b50565b6000813590506116d6816116b0565b92915050565b60008060008060008060c087890312156116f9576116f8611489565b5b600061170789828a0161162b565b965050602061171889828a0161162b565b955050604061172989828a01611689565b945050606061173a89828a01611689565b935050608061174b89828a016116c7565b92505060a061175c89828a016114af565b9150509295509295509295565b600060808201905061177e600083018761153b565b61178b602083018661153b565b611798604083018561153b565b6117a560608301846115b2565b95945050505050565b6117b781611660565b82525050565b6117c68161148e565b82525050565b6117d58161169e565b82525050565b60006080820190506117f060008301876117ae565b6117fd60208301866117ae565b61180a60408301856117bd565b61181760608301846117cc565b95945050505050565b6000819050919050565b61183b6118368261148e565b611820565b82525050565b600061184d828461182a565b60208201915081905092915050565b600081519050919050565b600081905092915050565b60005b83811015611890578082015181840152602081019050611875565b8381111561189f576000848401525b50505050565b60006118b08261185c565b6118ba8185611867565b93506118ca818560208601611872565b80840191505092915050565b60006118e282846118a5565b915081905092915050565b6000815190506118fc81611498565b92915050565b60006020828403121561191857611917611489565b5b6000611926848285016118ed565b91505092915050565b6000819050919050565b600061195461194f61194a84611640565b61192f565b611640565b9050919050565b600061196682611939565b9050919050565b60006119788261195b565b9050919050565b6119888161196d565b82525050565b60006060820190506119a360008301866117cc565b6119b0602083018561197f565b6119bd604083018461153b565b949350505050565b60008115159050919050565b6119da816119c5565b81146119e557600080fd5b50565b6000815190506119f7816119d1565b92915050565b600060208284031215611a1357611a12611489565b5b6000611a21848285016119e8565b91505092915050565b6000604082019050611a3f600083018561153b565b611a4c60208301846115b2565b9392505050565b6000608082019050611a68600083018761153b565b611a7560208301866117bd565b611a8260408301856117ae565b611a8f60608301846117ae565b95945050505050565b6000602082019050611aad60008301846117cc565b92915050565b600081519050611ac281611614565b92915050565b600060208284031215611ade57611add611489565b5b6000611aec84828501611ab3565b91505092915050565b600082825260208201905092915050565b7f646964206e6f7420657363726f77207072656d69756d20696e2074696d650000600082015250565b6000611b3c601e83611af5565b9150611b4782611b06565b602082019050919050565b60006020820190508181036000830152611b6b81611b2f565b9050919050565b6000606082019050611b87600083018661197f565b611b9460208301856117cc565b611ba1604083018461153b565b949350505050565b6000606082019050611bbe600083018661153b565b611bcb602083018561153b565b611bd860408301846115b2565b949350505050565b7f646964206e6f7420657363726f7720617373657420696e2074696d6500000000600082015250565b6000611c16601c83611af5565b9150611c2182611be0565b602082019050919050565b60006020820190508181036000830152611c4581611c09565b905091905056fea26469706673582212207a93de8bc11116a83ca9ec66cd1802d607b259300ca7891397e745a3732e2c3a64736f6c63430008090033",
  "immutableReferences": {},
  "source": "// Some functions based off of fair-atomic-swap/src/atomicswap/eip2266/ERC2266Swap.sol\n// Copyright (c) 2019 Chris Haoyu LIN, Runchao HAN, Jiangshan YU\n// SPDX-License-Identifier: UNLICENSED\n\npragma solidity ^0.8.0;\n\nimport \"./libraries/token/ERC20/ERC20.sol\";\n\n//TODO: use SafeMath\n//TODO: this follows the ordering of the diagram given in the paper. It does NOT allow for Bob to\n// start the swap on the Apricot Chain. We need to make it work two ways.\n\n//TODO: get Monitoring directory back on\n\n//TODO: add state to everything\n\n//How does correctness of policy depend on Delta?\n//Save Delta as Constant and then we can toy with it\n\n//Generate different tracelogs for different deltas\n\ncontract TwoPartySwapApricot {\n\n    //TODO: emit State in final events\n    //Monitor won't go into details of contract being refuned. These enums will act as flags. \n    //These signify that something happened. Variable are all flags \n\n    //TODO: get something that logs files\n    enum State { Empty, Filled, AssetRedeemed, AssetRefunded, PremiumRefunded}\n\n    /**\n     * The ApricotSwap struct keeps track of participants and swap details\n     */\n    struct ApricotSwap {\n        //participants\n        address payable alice;\n        address payable bob;\n        bytes32 hashLock;\n        address assetName;\n    }\n\n    /**\n     * The Escrow struct keeps track of the escrowed Asset\n     */\n    struct Escrow {\n        //type of asset \n        uint expected;\n        uint current;\n        //the deadline is for escrowing \n        uint deadline;\n        //the timeout is for redeeming\n        uint timeout;\n        State state;\n    }\n    /**\n     * The Premium struct keeps track of the deposited premium.\n     */\n    struct Premium {\n        uint expected;\n        uint current;\n        uint deadline;\n        State state;\n    }\n\n    /**\n     * Mappings that store our swap details.\n     */\n    mapping(bytes32 => ApricotSwap) public swaps;\n    mapping(bytes32 => Escrow) public escrows;\n    mapping (bytes32 => Premium) public premiums;\n\n    //If all goes well, this contract will emit:\n    // 1) SetUp (call made by Alice)\n    // 2) PremiumDeposited (call made by Bob)\n    // 3) AssetEscrowed (call made by Alice)\n    // 4) AssetRedeemed (call made by Bob)\n\n    //Say that Alice never escrows her Apricots. This contract will emit:\n    // 1) SetUp (call made by Alice)\n    // 2) PremiumDeposited (call made by Bob)\n    // Bob will then collect Alice's premium on the Banana Blockchain, which is premiumAlice + premiumBob\n\n    //Now, say that Bob never sends the preimage of the hashlock. This contract will emit:\n    // 1) SetUp (call made by Alice)\n    // 2) PremiumDeposited (call made by Bob)\n    // 3) AssetEscrowed (call made by Alice)\n    // 4) AssetRefunded (call made by Alice)\n    // 5) PremiumRedeemed (call made by Alice)\n    // Alice gets her asset back AS WELL AS Bob's premium. She also needs to get her premium refunded on the Banana chain\n\n    /**\n     * On setup, we need to know the hashlock and participants.\n     */\n    event SetUp(\n        uint timestamp,\n        bytes32 hashLock,\n        address payable alice,\n        address payable bob\n    );\n\n    /**\n     * Once Bob deposits his premium, we want to check that he deposited the correct amount.\n     */\n    event PremiumDeposited(\n        uint timestamp,\n        uint premiumAmount,\n        State state\n    );\n\n    /**\n     * Once Alice escrows her asset, we want to check that she escrowed the correct amount.\n     */\n    event AssetEscrowed (\n        uint timestamp,\n        uint assetAmount,\n        State state\n    );\n\n    /**\n     * If the swap succeeds, Bob will collect his asset.\n     */\n    event AssetRedeemed(\n        uint timestamp,\n        State state\n    );\n\n    /**\n     * If the swap fails, Alice will redeem Bob's premium after the timout deadline.\n     */\n    event PremiumRedeemed(\n        uint timestamp,\n        State state\n    );\n\n    /**\n     * If the swap fails, Alice can get her asset back after the timout deadline.\n     */\n    event AssetRefunded(\n        uint timestamp,\n        State state\n    );\n\n \n    modifier canSetup(bytes32 hashLock) {\n        require(escrows[hashLock].state == State.Empty);\n        require(premiums[hashLock].state == State.Empty);\n        _;\n    }\n\n    modifier canDepositPremium(bytes32 hashLock) {\n        require(msg.sender == swaps[hashLock].bob);\n        require(premiums[hashLock].state == State.Empty);\n        require(ERC20(swaps[hashLock].assetName).balanceOf(msg.sender) >= premiums[hashLock].expected);\n        require(block.timestamp <= premiums[hashLock].deadline, \"did not escrow premium in time\");\n        _;\n    }\n\n    modifier canEscrowAsset(bytes32 hashLock) {\n        require(msg.sender == swaps[hashLock].alice);\n        require(premiums[hashLock].state == State.Filled);\n        require(escrows[hashLock].state == State.Empty);\n        require(ERC20(swaps[hashLock].assetName).balanceOf(msg.sender) >= escrows[hashLock].expected);\n        require(block.timestamp <= escrows[hashLock].deadline, \"did not escrow asset in time\");\n        _;\n    }\n\n    modifier canRedeemAsset(bytes32 preimage, bytes32 hashLock) {\n        require(msg.sender == swaps[hashLock].bob);\n        require(block.timestamp <= escrows[hashLock].deadline);\n        require(sha256(abi.encodePacked(preimage)) == hashLock);\n        _;\n    }\n\n    modifier canRefundAsset(bytes32 preimage, bytes32 hashLock) {\n        require(msg.sender == swaps[hashLock].alice);\n        require(sha256(abi.encodePacked(preimage)) == hashLock);\n        require(block.timestamp > escrows[hashLock].timeout);\n        _;\n    }\n\n\n    modifier canRedeemPremium(bytes32 hashLock) {\n        require(msg.sender == swaps[hashLock].alice);\n        require(block.timestamp > escrows[hashLock].timeout);\n        _;\n    }\n\n    function setup(uint expectedEscrowAlice,\n                    uint expectedPremiumBob,\n                    address payable alice,\n                    address payable bob,\n                    address assetName,\n                    bytes32 hashLock)\n        public payable canSetup(hashLock) {\n\n        //set up swap mapping\n        swaps[hashLock].hashLock = hashLock;\n        swaps[hashLock].assetName = assetName;\n        swaps[hashLock].alice = alice;\n        swaps[hashLock].bob = bob;\n\n        //set up escrow mapping\n        escrows[hashLock].expected = expectedEscrowAlice;\n        //TODO: set these timeouts\n        escrows[hashLock].deadline = 0;\n        escrows[hashLock].timeout = 0;\n        \n        //set up premium mapping\n        premiums[hashLock].expected = expectedPremiumBob;\n        //TODO: set this timeout\n        premiums[hashLock].deadline = 0;\n\n        emit SetUp(\n            block.timestamp,\n            hashLock,\n            alice,\n            bob\n        );\n    }\n\n    // From source: will also need to call tokenB.approve(this_contract_address, premiumAmount) in advance\n    // removed parameter because unused: uint256 premiumRefundTime\n    function depositPremium(bytes32 hashLock)\n    public\n    payable\n    canDepositPremium(hashLock)\n    {\n        ERC20(swaps[hashLock].assetName).transferFrom(swaps[hashLock].bob, address(this), premiums[hashLock].expected);\n        premiums[hashLock].current = premiums[hashLock].expected;\n        premiums[hashLock].state = State.Filled;\n\n        emit PremiumDeposited(\n            block.timestamp,\n            premiums[hashLock].current,\n            premiums[hashLock].state\n        );\n    }\n\n    // removed parameter because unused: uint refundTime\n    function escrowAsset(bytes32 hashLock) public payable canEscrowAsset(hashLock) {\n        ERC20(swaps[hashLock].assetName).transferFrom(swaps[hashLock].alice, address(this), escrows[hashLock].expected);\n        escrows[hashLock].current = escrows[hashLock].expected;\n        escrows[hashLock].state = State.Filled;\n\n        emit AssetEscrowed(\n            block.timestamp,\n            escrows[hashLock].current,\n            escrows[hashLock].state\n        );\n    }\n\n    function redeemAsset(bytes32 preimage, bytes32 hashLock) public canRedeemAsset(preimage, hashLock) {\n        ERC20(swaps[hashLock].assetName).transferFrom(address(this), swaps[hashLock].bob, escrows[hashLock].current);\n\n        emit AssetRedeemed(\n            block.timestamp,\n            State.AssetRedeemed\n        );\n    }\n\n    function refundAsset(bytes32 preimage, bytes32 hashLock) public canRedeemAsset(preimage, hashLock) {\n        ERC20(swaps[hashLock].assetName).transferFrom(address(this), swaps[hashLock].alice, escrows[hashLock].current);\n\n        emit AssetRefunded(\n            block.timestamp,\n            State.AssetRefunded\n        );\n    }\n\n    function redeemPremium(bytes32 hashLock) public canRedeemPremium(hashLock){\n        ERC20(swaps[hashLock].assetName).transferFrom(address(this), swaps[hashLock].alice, escrows[hashLock].current);\n\n        emit AssetRedeemed(\n            block.timestamp,\n            State.AssetRedeemed\n        );\n    }\n}",
  "sourcePath": "/Users/parker/Brown/two_party_swap/contracts/ApricotSwap.sol",
  "compiler": {
    "name": "solc",
    "version": "0.8.9+commit.e5eed63a.Emscripten.clang"
  },
  "schemaVersion": "3.4.3",
  "updatedAt": "2021-10-19T14:27:39.637Z",
  "devdoc": {
    "kind": "dev",
    "methods": {},
    "version": 1
  },
  "userdoc": {
    "events": {
      "AssetEscrowed(uint256,uint256,uint8)": {
        "notice": "Once Alice escrows her asset, we want to check that she escrowed the correct amount."
      },
      "AssetRedeemed(uint256,uint8)": {
        "notice": "If the swap succeeds, Bob will collect his asset."
      },
      "AssetRefunded(uint256,uint8)": {
        "notice": "If the swap fails, Alice can get her asset back after the timout deadline."
      },
      "PremiumDeposited(uint256,uint256,uint8)": {
        "notice": "Once Bob deposits his premium, we want to check that he deposited the correct amount."
      },
      "PremiumRedeemed(uint256,uint8)": {
        "notice": "If the swap fails, Alice will redeem Bob's premium after the timout deadline."
      },
      "SetUp(uint256,bytes32,address,address)": {
        "notice": "On setup, we need to know the hashlock and participants."
      }
    },
    "kind": "user",
    "methods": {
      "swaps(bytes32)": {
        "notice": "Mappings that store our swap details."
      }
    },
    "version": 1
  }
}