{
  "contractName": "CoinAuction",
  "abi": [
    {
      "inputs": [
        {
          "internalType": "bytes32",
          "name": "auctionID",
          "type": "bytes32"
        },
        {
          "internalType": "uint256",
          "name": "premium",
          "type": "uint256"
        },
        {
          "internalType": "address[]",
          "name": "participants",
          "type": "address[]"
        },
        {
          "internalType": "bytes32[]",
          "name": "locks",
          "type": "bytes32[]"
        },
        {
          "internalType": "address",
          "name": "assetName",
          "type": "address"
        },
        {
          "internalType": "uint256",
          "name": "startTime",
          "type": "uint256"
        }
      ],
      "name": "setup",
      "outputs": [],
      "stateMutability": "nonpayable",
      "type": "function"
    },
    {
      "inputs": [
        {
          "internalType": "bytes32",
          "name": "auctionID",
          "type": "bytes32"
        },
        {
          "internalType": "uint256",
          "name": "amount",
          "type": "uint256"
        }
      ],
      "name": "bid",
      "outputs": [],
      "stateMutability": "nonpayable",
      "type": "function"
    },
    {
      "inputs": [
        {
          "internalType": "bytes32",
          "name": "auctionID",
          "type": "bytes32"
        },
        {
          "internalType": "bytes32",
          "name": "secret",
          "type": "bytes32"
        },
        {
          "internalType": "address[]",
          "name": "path",
          "type": "address[]"
        },
        {
          "internalType": "bytes32[]",
          "name": "signatures",
          "type": "bytes32[]"
        }
      ],
      "name": "declare",
      "outputs": [],
      "stateMutability": "nonpayable",
      "type": "function"
    },
    {
      "inputs": [
        {
          "internalType": "bytes32",
          "name": "auctionID",
          "type": "bytes32"
        },
        {
          "internalType": "bytes32",
          "name": "secret",
          "type": "bytes32"
        },
        {
          "internalType": "address[]",
          "name": "path",
          "type": "address[]"
        },
        {
          "internalType": "bytes32[]",
          "name": "signatures",
          "type": "bytes32[]"
        }
      ],
      "name": "challenge",
      "outputs": [],
      "stateMutability": "nonpayable",
      "type": "function"
    },
    {
      "inputs": [
        {
          "internalType": "bytes32",
          "name": "auctionID",
          "type": "bytes32"
        }
      ],
      "name": "settle",
      "outputs": [],
      "stateMutability": "nonpayable",
      "type": "function"
    }
  ],
  "bytecode": "0x608060405234801561001057600080fd5b50612e74806100206000396000f3fe608060405234801561001057600080fd5b50600436106100575760003560e01c8063022011c21461005c578063092b9ac01461007857806350ddec5814610094578063987757dd146100b0578063cd772f5c146100cc575b600080fd5b61007660048036038101906100719190611f3e565b6100e8565b005b610092600480360381019061008d9190612013565b610487565b005b6100ae60048036038101906100a99190611f3e565b6109b0565b005b6100ca60048036038101906100c591906120d8565b610d24565b005b6100e660048036038101906100e19190612105565b611743565b005b8383838360036000858152602001908152602001600020600101544211610144576040517f08c379a000000000000000000000000000000000000000000000000000000000815260040161013b906121c8565b60405180910390fd5b600360008581526020019081526020016000206002015442111561019d576040517f08c379a0000000000000000000000000000000000000000000000000000000008152600401610194906121c8565b60405180910390fd5b60006002600086815260200190815260200160002060003373ffffffffffffffffffffffffffffffffffffffff1673ffffffffffffffffffffffffffffffffffffffff168152602001908152602001600020541415610231576040517f08c379a00000000000000000000000000000000000000000000000000000000081526004016102289061225a565b60405180910390fd5b600073ffffffffffffffffffffffffffffffffffffffff166004600086815260200190815260200160002060006002866040516020016102719190612289565b60405160208183030381529060405260405161028d919061231e565b602060405180830381855afa1580156102aa573d6000803e3d6000fd5b5050506040513d601f19601f820116820180604052508101906102cd919061234a565b815260200190815260200160002060009054906101000a900473ffffffffffffffffffffffffffffffffffffffff1673ffffffffffffffffffffffffffffffffffffffff161415610353576040517f08c379a000000000000000000000000000000000000000000000000000000000815260040161034a906123e9565b60405180910390fd5b600182516103619190612438565b61138861036e919061248e565b6000808681526020019081526020016000206006015461038e9190612438565b42111561039a57600080fd5b80518251146103de576040517f08c379a00000000000000000000000000000000000000000000000000000000081526004016103d590612534565b60405180910390fd5b600080898152602001908152602001600020600101604051806060016040528089815260200188815260200187815250908060018154018082558091505060019003906000526020600020906003020160009091909190915060008201518160000155602082015181600101908051906020019061045d929190611b69565b50604082015181600201908051906020019061047a929190611bf3565b5050505050505050505050565b85845184518488808273ffffffffffffffffffffffffffffffffffffffff166370a08231336040518263ffffffff1660e01b81526004016104c89190612563565b602060405180830381865afa1580156104e5573d6000803e3d6000fd5b505050506040513d601f19601f820116820180604052508101906105099190612593565b101561054a576040517f08c379a00000000000000000000000000000000000000000000000000000000081526004016105419061260c565b60405180910390fd5b600073ffffffffffffffffffffffffffffffffffffffff1660008087815260200190815260200160002060000160009054906101000a900473ffffffffffffffffffffffffffffffffffffffff1673ffffffffffffffffffffffffffffffffffffffff16146105ee576040517f08c379a00000000000000000000000000000000000000000000000000000000081526004016105e59061269e565b60405180910390fd5b838314610630576040517f08c379a000000000000000000000000000000000000000000000000000000000815260040161062790612730565b60405180910390fd5b336000808d815260200190815260200160002060000160006101000a81548173ffffffffffffffffffffffffffffffffffffffff021916908373ffffffffffffffffffffffffffffffffffffffff160217905550866000808d815260200190815260200160002060030160006101000a81548173ffffffffffffffffffffffffffffffffffffffff021916908373ffffffffffffffffffffffffffffffffffffffff160217905550856000808d8152602001908152602001600020600601819055506000808c815260200190815260200160002060030160009054906101000a900473ffffffffffffffffffffffffffffffffffffffff1673ffffffffffffffffffffffffffffffffffffffff166323b872dd33308d6040518463ffffffff1660e01b81526004016107649392919061275f565b6020604051808303816000875af1158015610783573d6000803e3d6000fd5b505050506040513d601f19601f820116820180604052508101906107a791906127ce565b50896000808d81526020019081526020016000206002018190555060005b895181101561090657600160008d81526020019081526020016000208a82815181106107f4576107f36127fb565b5b60200260200101519080600181540180825580915050600190039060005260206000200160009091909190916101000a81548173ffffffffffffffffffffffffffffffffffffffff021916908373ffffffffffffffffffffffffffffffffffffffff16021790555089818151811061086f5761086e6127fb565b5b6020026020010151600460008e815260200190815260200160002060008b848151811061089f5761089e6127fb565b5b6020026020010151815260200190815260200160002060006101000a81548173ffffffffffffffffffffffffffffffffffffffff021916908373ffffffffffffffffffffffffffffffffffffffff16021790555080806108fe9061282a565b9150506107c5565b50611388866109159190612438565b600360008d815260200190815260200160002060000181905550611388600261093e919061248e565b866109499190612438565b600360008d81526020019081526020016000206001018190555061138860028a516109749190612438565b61097e919061248e565b866109899190612438565b600360008d8152602001908152602001600020600201819055505050505050505050505050565b8383838360036000858152602001908152602001600020600001544211610a0c576040517f08c379a0000000000000000000000000000000000000000000000000000000008152600401610a03906128e5565b60405180910390fd5b6003600085815260200190815260200160002060010154421115610a65576040517f08c379a0000000000000000000000000000000000000000000000000000000008152600401610a5c90612977565b60405180910390fd5b60008085815260200190815260200160002060000160009054906101000a900473ffffffffffffffffffffffffffffffffffffffff1673ffffffffffffffffffffffffffffffffffffffff163373ffffffffffffffffffffffffffffffffffffffff1614610b08576040517f08c379a0000000000000000000000000000000000000000000000000000000008152600401610aff90612a09565b60405180910390fd5b60018251148015610b1a575060018151145b610b59576040517f08c379a0000000000000000000000000000000000000000000000000000000008152600401610b5090612a75565b60405180910390fd5b600073ffffffffffffffffffffffffffffffffffffffff16600460008681526020019081526020016000206000600286604051602001610b999190612289565b604051602081830303815290604052604051610bb5919061231e565b602060405180830381855afa158015610bd2573d6000803e3d6000fd5b5050506040513d601f19601f82011682018060405250810190610bf5919061234a565b815260200190815260200160002060009054906101000a900473ffffffffffffffffffffffffffffffffffffffff1673ffffffffffffffffffffffffffffffffffffffff161415610c7b576040517f08c379a0000000000000000000000000000000000000000000000000000000008152600401610c7290612ae1565b60405180910390fd5b6000808981526020019081526020016000206001016040518060600160405280898152602001888152602001878152509080600181540180825580915050600190039060005260206000209060030201600090919091909150600082015181600001556020820151816001019080519060200190610cfa929190611b69565b506040820151816002019080519060200190610d17929190611bf3565b5050505050505050505050565b8060008082815260200190815260200160002060070160009054906101000a900460ff1615610d88576040517f08c379a0000000000000000000000000000000000000000000000000000000008152600401610d7f90612b73565b60405180910390fd5b6003600082815260200190815260200160002060020154421015610de1576040517f08c379a0000000000000000000000000000000000000000000000000000000008152600401610dd890612c05565b60405180910390fd5b60006002600083815260200190815260200160002060003373ffffffffffffffffffffffffffffffffffffffff1673ffffffffffffffffffffffffffffffffffffffff16815260200190815260200160002054141580610ea157503373ffffffffffffffffffffffffffffffffffffffff1660008083815260200190815260200160002060000160009054906101000a900473ffffffffffffffffffffffffffffffffffffffff1673ffffffffffffffffffffffffffffffffffffffff16145b610ee0576040517f08c379a0000000000000000000000000000000000000000000000000000000008152600401610ed790612c97565b60405180910390fd5b60008060008481526020019081526020016000206004015414156110015760008083815260200190815260200160002060030160009054906101000a900473ffffffffffffffffffffffffffffffffffffffff1673ffffffffffffffffffffffffffffffffffffffff1663a9059cbb60008085815260200190815260200160002060000160009054906101000a900473ffffffffffffffffffffffffffffffffffffffff16600080868152602001908152602001600020600201546040518363ffffffff1660e01b8152600401610fb8929190612cb7565b6020604051808303816000875af1158015610fd7573d6000803e3d6000fd5b505050506040513d601f19601f82011682018060405250810190610ffb91906127ce565b5061173f565b600160008084815260200190815260200160002060010180549050148015611106575060008083815260200190815260200160002060050160009054906101000a900473ffffffffffffffffffffffffffffffffffffffff1673ffffffffffffffffffffffffffffffffffffffff166004600084815260200190815260200160002060008060008681526020019081526020016000206001016000815481106110ad576110ac6127fb565b5b906000526020600020906003020160000154815260200190815260200160002060009054906101000a900473ffffffffffffffffffffffffffffffffffffffff1673ffffffffffffffffffffffffffffffffffffffff16145b156115a15760005b600160008481526020019081526020016000208054905081101561149d5760008084815260200190815260200160002060050160009054906101000a900473ffffffffffffffffffffffffffffffffffffffff1673ffffffffffffffffffffffffffffffffffffffff1660016000858152602001908152602001600020828154811061119d5761119c6127fb565b5b9060005260206000200160009054906101000a900473ffffffffffffffffffffffffffffffffffffffff1673ffffffffffffffffffffffffffffffffffffffff1614156112e75760008084815260200190815260200160002060030160009054906101000a900473ffffffffffffffffffffffffffffffffffffffff1673ffffffffffffffffffffffffffffffffffffffff1663a9059cbb60008086815260200190815260200160002060000160009054906101000a900473ffffffffffffffffffffffffffffffffffffffff16600080878152602001908152602001600020600401546040518363ffffffff1660e01b815260040161129e929190612cb7565b6020604051808303816000875af11580156112bd573d6000803e3d6000fd5b505050506040513d601f19601f820116820180604052508101906112e191906127ce565b5061148a565b60008084815260200190815260200160002060030160009054906101000a900473ffffffffffffffffffffffffffffffffffffffff1673ffffffffffffffffffffffffffffffffffffffff1663a9059cbb60016000868152602001908152602001600020838154811061135d5761135c6127fb565b5b9060005260206000200160009054906101000a900473ffffffffffffffffffffffffffffffffffffffff166002600087815260200190815260200160002060006001600089815260200190815260200160002086815481106113c2576113c16127fb565b5b9060005260206000200160009054906101000a900473ffffffffffffffffffffffffffffffffffffffff1673ffffffffffffffffffffffffffffffffffffffff1673ffffffffffffffffffffffffffffffffffffffff168152602001908152602001600020546040518363ffffffff1660e01b8152600401611445929190612cb7565b6020604051808303816000875af1158015611464573d6000803e3d6000fd5b505050506040513d601f19601f8201168201806040525081019061148891906127ce565b505b80806114959061282a565b91505061110e565b5060008083815260200190815260200160002060030160009054906101000a900473ffffffffffffffffffffffffffffffffffffffff1673ffffffffffffffffffffffffffffffffffffffff1663a9059cbb60008085815260200190815260200160002060000160009054906101000a900473ffffffffffffffffffffffffffffffffffffffff16600080868152602001908152602001600020600201546040518363ffffffff1660e01b8152600401611558929190612cb7565b6020604051808303816000875af1158015611577573d6000803e3d6000fd5b505050506040513d601f19601f8201168201806040525081019061159b91906127ce565b50611710565b60005b600160008481526020019081526020016000208054905081101561170e5760008084815260200190815260200160002060030160009054906101000a900473ffffffffffffffffffffffffffffffffffffffff1673ffffffffffffffffffffffffffffffffffffffff1663a9059cbb600160008681526020019081526020016000208381548110611638576116376127fb565b5b9060005260206000200160009054906101000a900473ffffffffffffffffffffffffffffffffffffffff1660016000878152602001908152602001600020805490506000808881526020019081526020016000206002015461169a9190612d0f565b6040518363ffffffff1660e01b81526004016116b7929190612cb7565b6020604051808303816000875af11580156116d6573d6000803e3d6000fd5b505050506040513d601f19601f820116820180604052508101906116fa91906127ce565b5080806117069061282a565b9150506115a4565b505b600160008084815260200190815260200160002060070160006101000a81548160ff0219169083151502179055505b5050565b81816000805b600160008581526020019081526020016000208054905081101561198a573373ffffffffffffffffffffffffffffffffffffffff166001600086815260200190815260200160002082815481106117a3576117a26127fb565b5b9060005260206000200160009054906101000a900473ffffffffffffffffffffffffffffffffffffffff1673ffffffffffffffffffffffffffffffffffffffff16141561197757600191508260008086815260200190815260200160002060030160009054906101000a900473ffffffffffffffffffffffffffffffffffffffff1673ffffffffffffffffffffffffffffffffffffffff166370a08231336040518263ffffffff1660e01b815260040161185d9190612563565b602060405180830381865afa15801561187a573d6000803e3d6000fd5b505050506040513d601f19601f8201168201806040525081019061189e9190612593565b10156118df576040517f08c379a00000000000000000000000000000000000000000000000000000000081526004016118d69061260c565b60405180910390fd5b60006002600086815260200190815260200160002060003373ffffffffffffffffffffffffffffffffffffffff1673ffffffffffffffffffffffffffffffffffffffff1681526020019081526020016000205414611972576040517f08c379a000000000000000000000000000000000000000000000000000000000815260040161196990612db2565b60405180910390fd5b61198a565b80806119829061282a565b915050611749565b50806119cb576040517f08c379a00000000000000000000000000000000000000000000000000000000081526004016119c290612e1e565b60405180910390fd5b60008086815260200190815260200160002060030160009054906101000a900473ffffffffffffffffffffffffffffffffffffffff1673ffffffffffffffffffffffffffffffffffffffff166323b872dd3330876040518463ffffffff1660e01b8152600401611a3d9392919061275f565b6020604051808303816000875af1158015611a5c573d6000803e3d6000fd5b505050506040513d601f19601f82011682018060405250810190611a8091906127ce565b50836002600087815260200190815260200160002060003373ffffffffffffffffffffffffffffffffffffffff1673ffffffffffffffffffffffffffffffffffffffff1681526020019081526020016000208190555060008086815260200190815260200160002060040154841115611b625783600080878152602001908152602001600020600401819055503360008087815260200190815260200160002060050160006101000a81548173ffffffffffffffffffffffffffffffffffffffff021916908373ffffffffffffffffffffffffffffffffffffffff1602179055505b5050505050565b828054828255906000526020600020908101928215611be2579160200282015b82811115611be15782518260006101000a81548173ffffffffffffffffffffffffffffffffffffffff021916908373ffffffffffffffffffffffffffffffffffffffff16021790555091602001919060010190611b89565b5b509050611bef9190611c40565b5090565b828054828255906000526020600020908101928215611c2f579160200282015b82811115611c2e578251825591602001919060010190611c13565b5b509050611c3c9190611c5d565b5090565b5b80821115611c59576000816000905550600101611c41565b5090565b5b80821115611c76576000816000905550600101611c5e565b5090565b6000604051905090565b600080fd5b600080fd5b6000819050919050565b611ca181611c8e565b8114611cac57600080fd5b50565b600081359050611cbe81611c98565b92915050565b600080fd5b6000601f19601f8301169050919050565b7f4e487b7100000000000000000000000000000000000000000000000000000000600052604160045260246000fd5b611d1282611cc9565b810181811067ffffffffffffffff82111715611d3157611d30611cda565b5b80604052505050565b6000611d44611c7a565b9050611d508282611d09565b919050565b600067ffffffffffffffff821115611d7057611d6f611cda565b5b602082029050602081019050919050565b600080fd5b600073ffffffffffffffffffffffffffffffffffffffff82169050919050565b6000611db182611d86565b9050919050565b611dc181611da6565b8114611dcc57600080fd5b50565b600081359050611dde81611db8565b92915050565b6000611df7611df284611d55565b611d3a565b90508083825260208201905060208402830185811115611e1a57611e19611d81565b5b835b81811015611e435780611e2f8882611dcf565b845260208401935050602081019050611e1c565b5050509392505050565b600082601f830112611e6257611e61611cc4565b5b8135611e72848260208601611de4565b91505092915050565b600067ffffffffffffffff821115611e9657611e95611cda565b5b602082029050602081019050919050565b6000611eba611eb584611e7b565b611d3a565b90508083825260208201905060208402830185811115611edd57611edc611d81565b5b835b81811015611f065780611ef28882611caf565b845260208401935050602081019050611edf565b5050509392505050565b600082601f830112611f2557611f24611cc4565b5b8135611f35848260208601611ea7565b91505092915050565b60008060008060808587031215611f5857611f57611c84565b5b6000611f6687828801611caf565b9450506020611f7787828801611caf565b935050604085013567ffffffffffffffff811115611f9857611f97611c89565b5b611fa487828801611e4d565b925050606085013567ffffffffffffffff811115611fc557611fc4611c89565b5b611fd187828801611f10565b91505092959194509250565b6000819050919050565b611ff081611fdd565b8114611ffb57600080fd5b50565b60008135905061200d81611fe7565b92915050565b60008060008060008060c087890312156120305761202f611c84565b5b600061203e89828a01611caf565b965050602061204f89828a01611ffe565b955050604087013567ffffffffffffffff8111156120705761206f611c89565b5b61207c89828a01611e4d565b945050606087013567ffffffffffffffff81111561209d5761209c611c89565b5b6120a989828a01611f10565b93505060806120ba89828a01611dcf565b92505060a06120cb89828a01611ffe565b9150509295509295509295565b6000602082840312156120ee576120ed611c84565b5b60006120fc84828501611caf565b91505092915050565b6000806040838503121561211c5761211b611c84565b5b600061212a85828601611caf565b925050602061213b85828601611ffe565b9150509250929050565b600082825260208201905092915050565b7f5b63616e4368616c6c656e67655d20646964206e6f7420636f6d706c6574652060008201527f616374696f6e20696e2074696d65000000000000000000000000000000000000602082015250565b60006121b2602e83612145565b91506121bd82612156565b604082019050919050565b600060208201905081810360008301526121e1816121a5565b9050919050565b7f5b63616e4368616c6c656e67655d206368616c6c656e67657220646964206e6f60008201527f74207375626d6974206269640000000000000000000000000000000000000000602082015250565b6000612244602c83612145565b915061224f826121e8565b604082019050919050565b6000602082019050818103600083015261227381612237565b9050919050565b61228381611c8e565b82525050565b600060208201905061229e600083018461227a565b92915050565b600081519050919050565b600081905092915050565b60005b838110156122d85780820151818401526020810190506122bd565b838111156122e7576000848401525b50505050565b60006122f8826122a4565b61230281856122af565b93506123128185602086016122ba565b80840191505092915050565b600061232a82846122ed565b915081905092915050565b60008151905061234481611c98565b92915050565b6000602082840312156123605761235f611c84565b5b600061236e84828501612335565b91505092915050565b7f5b63616e4368616c6c656e67655d3a206e6f7420612076616c6964207365637260008201527f6574000000000000000000000000000000000000000000000000000000000000602082015250565b60006123d3602283612145565b91506123de82612377565b604082019050919050565b60006020820190508181036000830152612402816123c6565b9050919050565b7f4e487b7100000000000000000000000000000000000000000000000000000000600052601160045260246000fd5b600061244382611fdd565b915061244e83611fdd565b9250827fffffffffffffffffffffffffffffffffffffffffffffffffffffffffffffffff0382111561248357612482612409565b5b828201905092915050565b600061249982611fdd565b91506124a483611fdd565b9250817fffffffffffffffffffffffffffffffffffffffffffffffffffffffffffffffff04831182151516156124dd576124dc612409565b5b828202905092915050565b7f706174682e6c656e67746820213d207369676e6174757265732e6c656e677468600082015250565b600061251e602083612145565b9150612529826124e8565b602082019050919050565b6000602082019050818103600083015261254d81612511565b9050919050565b61255d81611da6565b82525050565b60006020820190506125786000830184612554565b92915050565b60008151905061258d81611fe7565b92915050565b6000602082840312156125a9576125a8611c84565b5b60006125b78482850161257e565b91505092915050565b7f5b63616e4269645d2062616c616e6365206e6f7420656e6f7567680000000000600082015250565b60006125f6601b83612145565b9150612601826125c0565b602082019050919050565b60006020820190508181036000830152612625816125e9565b9050919050565b7f5b63616e53657475705d3a2061756374696f6e735b61756374696f6e49445d2e60008201527f61756374696f6e65657220213d20616464726573732830290000000000000000602082015250565b6000612688603883612145565b91506126938261262c565b604082019050919050565b600060208201905081810360008301526126b78161267b565b9050919050565b7f5b63616e53657475705d3a207061727469636970616e74734c656e677468202160008201527f3d20686173684c6f636b734c656e677468000000000000000000000000000000602082015250565b600061271a603183612145565b9150612725826126be565b604082019050919050565b600060208201905081810360008301526127498161270d565b9050919050565b61275981611fdd565b82525050565b60006060820190506127746000830186612554565b6127816020830185612554565b61278e6040830184612750565b949350505050565b60008115159050919050565b6127ab81612796565b81146127b657600080fd5b50565b6000815190506127c8816127a2565b92915050565b6000602082840312156127e4576127e3611c84565b5b60006127f2848285016127b9565b91505092915050565b7f4e487b7100000000000000000000000000000000000000000000000000000000600052603260045260246000fd5b600061283582611fdd565b91507fffffffffffffffffffffffffffffffffffffffffffffffffffffffffffffffff82141561286857612867612409565b5b600182019050919050565b7f5b63616e4465636c6172655d206e6f742061667465722062696464696e67207060008201527f6572696f64000000000000000000000000000000000000000000000000000000602082015250565b60006128cf602583612145565b91506128da82612873565b604082019050919050565b600060208201905081810360008301526128fe816128c2565b9050919050565b7f5b63616e4465636c6172655d20646964206e6f7420636f6d706c65746520616360008201527f74696f6e20696e2074696d650000000000000000000000000000000000000000602082015250565b6000612961602c83612145565b915061296c82612905565b604082019050919050565b6000602082019050818103600083015261299081612954565b9050919050565b7f5b63616e4465636c6172655d206d73672e73656e646572206973206e6f74206160008201527f756374696f6e6565720000000000000000000000000000000000000000000000602082015250565b60006129f3602983612145565b91506129fe82612997565b604082019050919050565b60006020820190508181036000830152612a22816129e6565b9050919050565b7f5b63616e4465636c6172655d206172726179206c656e6774687320213d203100600082015250565b6000612a5f601f83612145565b9150612a6a82612a29565b602082019050919050565b60006020820190508181036000830152612a8e81612a52565b9050919050565b7f5b63616e4465636c6172655d3a206e6f7420612076616c696420736563726574600082015250565b6000612acb602083612145565b9150612ad682612a95565b602082019050919050565b60006020820190508181036000830152612afa81612abe565b9050919050565b7f5b63616e536574746c655d2061756374696f6e2077617320616c72656164792060008201527f736574746c656400000000000000000000000000000000000000000000000000602082015250565b6000612b5d602783612145565b9150612b6882612b01565b604082019050919050565b60006020820190508181036000830152612b8c81612b50565b9050919050565b7f5b63616e536574746c655d20747269656420746f20736574746c65206265666f60008201527f7265206368616c6c656e67652070686173650000000000000000000000000000602082015250565b6000612bef603283612145565b9150612bfa82612b93565b604082019050919050565b60006020820190508181036000830152612c1e81612be2565b9050919050565b7f5b63616e536574746c655d20636f6d6d6974746572206e6f742070617274696360008201527f6970616e7420696e2061756374696f6e00000000000000000000000000000000602082015250565b6000612c81603083612145565b9150612c8c82612c25565b604082019050919050565b60006020820190508181036000830152612cb081612c74565b9050919050565b6000604082019050612ccc6000830185612554565b612cd96020830184612750565b9392505050565b7f4e487b7100000000000000000000000000000000000000000000000000000000600052601260045260246000fd5b6000612d1a82611fdd565b9150612d2583611fdd565b925082612d3557612d34612ce0565b5b828204905092915050565b7f5b63616e4269645d20626964735b61756374696f6e49445d5b6d73672e73656e60008201527f6465725d20213d20300000000000000000000000000000000000000000000000602082015250565b6000612d9c602983612145565b9150612da782612d40565b604082019050919050565b60006020820190508181036000830152612dcb81612d8f565b9050919050565b7f5b63616e4269645d3a2021697342696464657200000000000000000000000000600082015250565b6000612e08601383612145565b9150612e1382612dd2565b602082019050919050565b60006020820190508181036000830152612e3781612dfb565b905091905056fea26469706673582212209726f8c28ee54d34947f66f96d3d82742be3521a7691d5387738617ff283f30064736f6c634300080b0033",
  "immutableReferences": {},
  "source": "  // SPDX-License-Identifier: UNLICENSED\n\npragma solidity ^0.8.0;\n\nimport \"./libraries/token/ERC20/ERC20.sol\";\n\ncontract CoinAuction {\n\n  // We will manipulate the DELTA variable (seconds) to see how sucessful the monitor is\n    uint constant DELTA = 5000; //TODO: choose your DELTA (in milliseconds)\n\n    // an Auction\n    struct Auction {\n      address auctioneer;\n      HashKey[] hashKeys;\n      uint premium;\n      address assetName;\n      uint maxBid;\n      address winner;\n      uint startTime;\n      bool settled;\n    }\n\n    // the hashKey triple, as defied in the paper.\n    struct HashKey {\n      bytes32 secret;\n      address[] path;\n      bytes32[] signatures;\n    }\n\n    // various deadlines for phases of the protocol\n    struct Deadlines {\n      uint bid;\n      uint declaration;\n      uint challenge;\n    }\n\n    // Mappings that store information for our contract\n    mapping(bytes32 => Auction) auctions;\n    mapping(bytes32 => address[]) bidders;\n    mapping(bytes32 => mapping(address => uint)) bids;\n    mapping(bytes32 => Deadlines) deadlines;\n    mapping(bytes32 => mapping(bytes32 => address)) hashLocks;\n\n    modifier canSetup(\n      bytes32 auctionID, \n      uint participantsLength, \n      uint hashLocksLength, \n      address assetName, \n      uint premium) {\n      require(ERC20(assetName).balanceOf(msg.sender) >= premium, \"[canBid] balance not enough\");\n      require(auctions[auctionID].auctioneer == address(0), \"[canSetup]: auctions[auctionID].auctioneer != address(0)\");\n      require(hashLocksLength == participantsLength, \"[canSetup]: participantsLength != hashLocksLength\");\n      _;\n    }\n\n    modifier canBid(bytes32 auctionID, uint amount) {\n      bool isBidder = false;\n      for (uint i = 0; i < bidders[auctionID].length; i++) {\n        if (bidders[auctionID][i] == msg.sender) {\n          isBidder = true;\n          require(ERC20(auctions[auctionID].assetName).balanceOf(msg.sender) >= amount, \"[canBid] balance not enough\");\n          require(bids[auctionID][msg.sender] == 0, \"[canBid] bids[auctionID][msg.sender] != 0\");\n          break;\n        }\n      }\n      require(isBidder, \"[canBid]: !isBidder\");\n      _;\n    }\n\n    modifier canDeclare(\n      bytes32 auctionID,\n      bytes32 secret,\n      address[] memory path, \n      bytes32[] memory signatures) {\n      require(block.timestamp > deadlines[auctionID].bid, \"[canDeclare] not after bidding period\");\n      require(block.timestamp <= deadlines[auctionID].declaration, \"[canDeclare] did not complete action in time\");\n      require(msg.sender == auctions[auctionID].auctioneer, \"[canDeclare] msg.sender is not auctioneer\");\n      require(path.length == 1 && signatures.length == 1, \"[canDeclare] array lengths != 1\");\n      require(hashLocks[auctionID][sha256(abi.encode(secret))] != address(0), \"[canDeclare]: not a valid secret\");\n      _;\n    }\n\n    modifier canChallenge(\n      bytes32 auctionID,\n      bytes32 secret,\n      address[] memory path, \n      bytes32[] memory signatures) {\n      require(block.timestamp > deadlines[auctionID].declaration, \"[canChallenge] did not complete action in time\");\n      require(block.timestamp <= deadlines[auctionID].challenge, \"[canChallenge] did not complete action in time\");\n      require(bids[auctionID][msg.sender] != 0, \"[canChallenge] challenger did not submit bid\");\n      require(hashLocks[auctionID][sha256(abi.encode(secret))] != address(0), \"[canChallenge]: not a valid secret\");\n      // make sure that your challenge is made in time (dependent on the path/signature length)\n      require(block.timestamp <= auctions[auctionID].startTime + DELTA * (path.length + 1));\n      require(path.length == signatures.length, \"path.length != signatures.length\");\n      _;\n    }\n\n    modifier canSettle(bytes32 auctionID) {\n      require(!auctions[auctionID].settled, \"[canSettle] auction was already settled\");\n      require(block.timestamp >= deadlines[auctionID].challenge, \"[canSettle] tried to settle before challenge phase\");\n      require(bids[auctionID][msg.sender] != 0 || auctions[auctionID].auctioneer == msg.sender, \"[canSettle] committer not participant in auction\");\n      _;\n    }\n\n    // Auctioneer will call this to set up the auction. \n    function setup(\n      bytes32 auctionID, \n      uint premium, \n      address[] memory participants,\n      bytes32[] memory locks,\n      address assetName,\n      uint startTime) \n      public canSetup(auctionID, participants.length, locks.length, assetName, premium) {\n      auctions[auctionID].auctioneer = msg.sender;\n      auctions[auctionID].assetName = assetName;\n      auctions[auctionID].startTime = startTime;\n      // transfer premium\n      ERC20(auctions[auctionID].assetName).transferFrom(msg.sender, address(this), premium);\n      auctions[auctionID].premium = premium;\n      // add bidders. participants and hashlocks must index to the same person.\n      for (uint i = 0; i < participants.length; i++) {\n        bidders[auctionID].push(participants[i]);\n        hashLocks[auctionID][locks[i]] = participants[i];\n      }\n      // set up deadlines\n      deadlines[auctionID].bid = startTime + DELTA;\n      deadlines[auctionID].declaration = startTime + 2 * DELTA;\n      deadlines[auctionID].challenge = startTime + (participants.length + 2) * DELTA;\n    }\n\n    // Participants will call this function to submit their bids.\n    function bid(bytes32 auctionID, uint amount) public canBid(auctionID, amount) {\n      ERC20(auctions[auctionID].assetName).transferFrom(msg.sender, address(this), amount);\n      bids[auctionID][msg.sender] = amount;\n      // need to update top bidder\n      if (amount > auctions[auctionID].maxBid) {\n        auctions[auctionID].maxBid = amount;\n        auctions[auctionID].winner = msg.sender;\n      }\n    }\n\n    // Auctioneer will call this function to post the winning hashKey\n    function declare(\n      bytes32 auctionID, \n      bytes32 secret, \n      address[] memory path, \n      bytes32[] memory signatures) public canDeclare(auctionID, secret, path, signatures) {\n      auctions[auctionID].hashKeys.push(HashKey(secret, path, signatures));\n    }\n\n    // Participants will call this function to challenge the winner\n    // if they see a different hashKey on the ticketAuction.\n    function challenge(\n      bytes32 auctionID, \n      bytes32 secret, \n      address[] memory path, \n      bytes32[] memory signatures) public canChallenge(auctionID, secret, path, signatures) {\n      auctions[auctionID].hashKeys.push(HashKey(secret, path, signatures));\n    }\n\n    // Any participating can call this function.\n    function settle(bytes32 auctionID) public canSettle(auctionID) {\n      // no bids\n      if (auctions[auctionID].maxBid == 0) {\n        // redeem auctioneer's premium\n        ERC20(auctions[auctionID].assetName).transfer(auctions[auctionID].auctioneer, auctions[auctionID].premium);\n        return;\n      }\n      // If block for success, else block for failure\n      if (auctions[auctionID].hashKeys.length == 1 \n      && hashLocks[auctionID][auctions[auctionID].hashKeys[0].secret] == auctions[auctionID].winner) {\n        for (uint i = 0; i < bidders[auctionID].length; i++) {\n          // winning bid transfers to auctioneer, everyone else gets their bid redeemed.\n          if (bidders[auctionID][i] == auctions[auctionID].winner) {\n            ERC20(auctions[auctionID].assetName).transfer(auctions[auctionID].auctioneer, auctions[auctionID].maxBid);\n          } else {\n            // refund to non-winners\n            ERC20(auctions[auctionID].assetName).transfer(bidders[auctionID][i], bids[auctionID][bidders[auctionID][i]]);\n          }\n        }\n        // redeem auctioneer's premium\n        ERC20(auctions[auctionID].assetName).transfer(auctions[auctionID].auctioneer, auctions[auctionID].premium);\n      } else {\n        // everyone gets premium / i, where i is the total number of bidders.\n        for (uint i = 0; i < bidders[auctionID].length; i++) {\n          ERC20(auctions[auctionID].assetName).transfer(bidders[auctionID][i], auctions[auctionID].premium / bidders[auctionID].length);\n        }\n      }\n      auctions[auctionID].settled = true;\n    }\n}",
  "sourcePath": "/Users/parker/Brown/research/auction/contracts/CoinAuction.sol",
  "compiler": {
    "name": "solc",
    "version": "0.8.11+commit.d7f03943.Emscripten.clang"
  },
  "schemaVersion": "3.4.3",
  "updatedAt": "2022-01-02T23:11:15.809Z",
  "devdoc": {
    "kind": "dev",
    "methods": {},
    "version": 1
  },
  "userdoc": {
    "kind": "user",
    "methods": {},
    "version": 1
  }
}