{
  "contractName": "TicketAuction",
  "abi": [
    {
      "inputs": [
        {
          "internalType": "bytes32",
          "name": "auctionID",
          "type": "bytes32"
        },
        {
          "internalType": "uint256",
          "name": "assetAmount",
          "type": "uint256"
        },
        {
          "internalType": "address[]",
          "name": "participants",
          "type": "address[]"
        },
        {
          "internalType": "bytes32[]",
          "name": "locks",
          "type": "bytes32[]"
        },
        {
          "internalType": "address",
          "name": "assetName",
          "type": "address"
        },
        {
          "internalType": "uint256",
          "name": "startTime",
          "type": "uint256"
        }
      ],
      "name": "setup",
      "outputs": [],
      "stateMutability": "nonpayable",
      "type": "function"
    },
    {
      "inputs": [
        {
          "internalType": "bytes32",
          "name": "auctionID",
          "type": "bytes32"
        },
        {
          "internalType": "bytes32",
          "name": "secret",
          "type": "bytes32"
        },
        {
          "internalType": "address[]",
          "name": "path",
          "type": "address[]"
        },
        {
          "internalType": "bytes32[]",
          "name": "signatures",
          "type": "bytes32[]"
        }
      ],
      "name": "declare",
      "outputs": [],
      "stateMutability": "nonpayable",
      "type": "function"
    },
    {
      "inputs": [
        {
          "internalType": "bytes32",
          "name": "auctionID",
          "type": "bytes32"
        },
        {
          "internalType": "bytes32",
          "name": "secret",
          "type": "bytes32"
        },
        {
          "internalType": "address[]",
          "name": "path",
          "type": "address[]"
        },
        {
          "internalType": "bytes32[]",
          "name": "signatures",
          "type": "bytes32[]"
        }
      ],
      "name": "challenge",
      "outputs": [],
      "stateMutability": "nonpayable",
      "type": "function"
    },
    {
      "inputs": [
        {
          "internalType": "bytes32",
          "name": "auctionID",
          "type": "bytes32"
        }
      ],
      "name": "settle",
      "outputs": [],
      "stateMutability": "nonpayable",
      "type": "function"
    }
  ],
  "bytecode": "0x608060405234801561001057600080fd5b506120c5806100206000396000f3fe608060405234801561001057600080fd5b506004361061004c5760003560e01c8063022011c214610051578063092b9ac01461006d57806350ddec5814610089578063987757dd146100a5575b600080fd5b61006b60048036038101906100669190611477565b6100c1565b005b6100876004803603810190610082919061154c565b610471565b005b6100a3600480360381019061009e9190611477565b61091e565b005b6100bf60048036038101906100ba9190611611565b610c3a565b005b838383836002600085815260200190815260200160002060000154421161011d576040517f08c379a0000000000000000000000000000000000000000000000000000000008152600401610114906116c1565b60405180910390fd5b6002600085815260200190815260200160002060010154421115610176576040517f08c379a000000000000000000000000000000000000000000000000000000000815260040161016d906116c1565b60405180910390fd5b600015156001600086815260200190815260200160002060003373ffffffffffffffffffffffffffffffffffffffff1673ffffffffffffffffffffffffffffffffffffffff16815260200190815260200160002060009054906101000a900460ff161515141561021b576040517f08c379a00000000000000000000000000000000000000000000000000000000081526004016102129061172d565b60405180910390fd5b600073ffffffffffffffffffffffffffffffffffffffff1660036000868152602001908152602001600020600060028660405160200161025b919061175c565b60405160208183030381529060405260405161027791906117f1565b602060405180830381855afa158015610294573d6000803e3d6000fd5b5050506040513d601f19601f820116820180604052508101906102b7919061181d565b815260200190815260200160002060009054906101000a900473ffffffffffffffffffffffffffffffffffffffff1673ffffffffffffffffffffffffffffffffffffffff16141561033d576040517f08c379a0000000000000000000000000000000000000000000000000000000008152600401610334906118bc565b60405180910390fd5b6001825161034b919061190b565b6113886103589190611961565b60008086815260200190815260200160002060040154610378919061190b565b42111561038457600080fd5b80518251146103c8576040517f08c379a00000000000000000000000000000000000000000000000000000000081526004016103bf90611a07565b60405180910390fd5b60008089815260200190815260200160002060000160405180606001604052808981526020018881526020018781525090806001815401808255809150506001900390600052602060002090600302016000909190919091506000820151816000015560208201518160010190805190602001906104479291906110a2565b50604082015181600201908051906020019061046492919061112c565b5050505050505050505050565b858286600073ffffffffffffffffffffffffffffffffffffffff1660008085815260200190815260200160002060010160009054906101000a900473ffffffffffffffffffffffffffffffffffffffff1673ffffffffffffffffffffffffffffffffffffffff1614610518576040517f08c379a000000000000000000000000000000000000000000000000000000000815260040161050f90611a99565b60405180910390fd5b808273ffffffffffffffffffffffffffffffffffffffff166370a08231336040518263ffffffff1660e01b81526004016105529190611ac8565b602060405180830381865afa15801561056f573d6000803e3d6000fd5b505050506040513d601f19601f820116820180604052508101906105939190611af8565b10156105d4576040517f08c379a00000000000000000000000000000000000000000000000000000000081526004016105cb90611b71565b60405180910390fd5b6000808a815260200190815260200160002060020160009054906101000a900473ffffffffffffffffffffffffffffffffffffffff1673ffffffffffffffffffffffffffffffffffffffff166323b872dd33308b6040518463ffffffff1660e01b815260040161064693929190611ba0565b6020604051808303816000875af1158015610665573d6000803e3d6000fd5b505050506040513d601f19601f820116820180604052508101906106899190611c0f565b50876000808b815260200190815260200160002060030181905550336000808b815260200190815260200160002060010160006101000a81548173ffffffffffffffffffffffffffffffffffffffff021916908373ffffffffffffffffffffffffffffffffffffffff160217905550846000808b815260200190815260200160002060020160006101000a81548173ffffffffffffffffffffffffffffffffffffffff021916908373ffffffffffffffffffffffffffffffffffffffff160217905550836000808b81526020019081526020016000206004018190555060005b875181101561089e5760018060008c815260200190815260200160002060008a848151811061079b5761079a611c3c565b5b602002602001015173ffffffffffffffffffffffffffffffffffffffff1673ffffffffffffffffffffffffffffffffffffffff16815260200190815260200160002060006101000a81548160ff02191690831515021790555087818151811061080757610806611c3c565b5b6020026020010151600360008c8152602001908152602001600020600089848151811061083757610836611c3c565b5b6020026020010151815260200190815260200160002060006101000a81548173ffffffffffffffffffffffffffffffffffffffff021916908373ffffffffffffffffffffffffffffffffffffffff160217905550808061089690611c6b565b915050610769565b5061138860026108ae9190611961565b846108b9919061190b565b600260008b815260200190815260200160002060000181905550611388600288516108e4919061190b565b6108ee9190611961565b846108f9919061190b565b600260008b815260200190815260200160002060010181905550505050505050505050565b83838383600260008581526020019081526020016000206000015442111561097b576040517f08c379a000000000000000000000000000000000000000000000000000000000815260040161097290611d26565b60405180910390fd5b60008085815260200190815260200160002060010160009054906101000a900473ffffffffffffffffffffffffffffffffffffffff1673ffffffffffffffffffffffffffffffffffffffff163373ffffffffffffffffffffffffffffffffffffffff1614610a1e576040517f08c379a0000000000000000000000000000000000000000000000000000000008152600401610a1590611db8565b60405180910390fd5b60018251148015610a30575060018151145b610a6f576040517f08c379a0000000000000000000000000000000000000000000000000000000008152600401610a6690611e24565b60405180910390fd5b600073ffffffffffffffffffffffffffffffffffffffff16600360008681526020019081526020016000206000600286604051602001610aaf919061175c565b604051602081830303815290604052604051610acb91906117f1565b602060405180830381855afa158015610ae8573d6000803e3d6000fd5b5050506040513d601f19601f82011682018060405250810190610b0b919061181d565b815260200190815260200160002060009054906101000a900473ffffffffffffffffffffffffffffffffffffffff1673ffffffffffffffffffffffffffffffffffffffff161415610b91576040517f08c379a0000000000000000000000000000000000000000000000000000000008152600401610b8890611e90565b60405180910390fd5b6000808981526020019081526020016000206000016040518060600160405280898152602001888152602001878152509080600181540180825580915050600190039060005260206000209060030201600090919091909150600082015181600001556020820151816001019080519060200190610c109291906110a2565b506040820151816002019080519060200190610c2d92919061112c565b5050505050505050505050565b8060008082815260200190815260200160002060050160009054906101000a900460ff1615610c9e576040517f08c379a0000000000000000000000000000000000000000000000000000000008152600401610c9590611f22565b60405180910390fd5b60026000828152602001908152602001600020600101544211610cf6576040517f08c379a0000000000000000000000000000000000000000000000000000000008152600401610ced90611fb4565b60405180910390fd5b600115156001600083815260200190815260200160002060003373ffffffffffffffffffffffffffffffffffffffff1673ffffffffffffffffffffffffffffffffffffffff16815260200190815260200160002060009054906101000a900460ff1615151480610dc6575060008082815260200190815260200160002060010160009054906101000a900473ffffffffffffffffffffffffffffffffffffffff1673ffffffffffffffffffffffffffffffffffffffff163373ffffffffffffffffffffffffffffffffffffffff16145b610e05576040517f08c379a0000000000000000000000000000000000000000000000000000000008152600401610dfc90612046565b60405180910390fd5b6001600080848152602001908152602001600020600001805490501415610f715760008083815260200190815260200160002060020160009054906101000a900473ffffffffffffffffffffffffffffffffffffffff1673ffffffffffffffffffffffffffffffffffffffff1663a9059cbb600360008581526020019081526020016000206000806000878152602001908152602001600020600001600081548110610eb457610eb3611c3c565b5b906000526020600020906003020160000154815260200190815260200160002060009054906101000a900473ffffffffffffffffffffffffffffffffffffffff16600080868152602001908152602001600020600301546040518363ffffffff1660e01b8152600401610f28929190612066565b6020604051808303816000875af1158015610f47573d6000803e3d6000fd5b505050506040513d601f19601f82011682018060405250810190610f6b9190611c0f565b50611070565b60008083815260200190815260200160002060020160009054906101000a900473ffffffffffffffffffffffffffffffffffffffff1673ffffffffffffffffffffffffffffffffffffffff1663a9059cbb60008085815260200190815260200160002060010160009054906101000a900473ffffffffffffffffffffffffffffffffffffffff16600080868152602001908152602001600020600301546040518363ffffffff1660e01b815260040161102b929190612066565b6020604051808303816000875af115801561104a573d6000803e3d6000fd5b505050506040513d601f19601f8201168201806040525081019061106e9190611c0f565b505b600160008084815260200190815260200160002060050160006101000a81548160ff0219169083151502179055505050565b82805482825590600052602060002090810192821561111b579160200282015b8281111561111a5782518260006101000a81548173ffffffffffffffffffffffffffffffffffffffff021916908373ffffffffffffffffffffffffffffffffffffffff160217905550916020019190600101906110c2565b5b5090506111289190611179565b5090565b828054828255906000526020600020908101928215611168579160200282015b8281111561116757825182559160200191906001019061114c565b5b5090506111759190611196565b5090565b5b8082111561119257600081600090555060010161117a565b5090565b5b808211156111af576000816000905550600101611197565b5090565b6000604051905090565b600080fd5b600080fd5b6000819050919050565b6111da816111c7565b81146111e557600080fd5b50565b6000813590506111f7816111d1565b92915050565b600080fd5b6000601f19601f8301169050919050565b7f4e487b7100000000000000000000000000000000000000000000000000000000600052604160045260246000fd5b61124b82611202565b810181811067ffffffffffffffff8211171561126a57611269611213565b5b80604052505050565b600061127d6111b3565b90506112898282611242565b919050565b600067ffffffffffffffff8211156112a9576112a8611213565b5b602082029050602081019050919050565b600080fd5b600073ffffffffffffffffffffffffffffffffffffffff82169050919050565b60006112ea826112bf565b9050919050565b6112fa816112df565b811461130557600080fd5b50565b600081359050611317816112f1565b92915050565b600061133061132b8461128e565b611273565b90508083825260208201905060208402830185811115611353576113526112ba565b5b835b8181101561137c57806113688882611308565b845260208401935050602081019050611355565b5050509392505050565b600082601f83011261139b5761139a6111fd565b5b81356113ab84826020860161131d565b91505092915050565b600067ffffffffffffffff8211156113cf576113ce611213565b5b602082029050602081019050919050565b60006113f36113ee846113b4565b611273565b90508083825260208201905060208402830185811115611416576114156112ba565b5b835b8181101561143f578061142b88826111e8565b845260208401935050602081019050611418565b5050509392505050565b600082601f83011261145e5761145d6111fd565b5b813561146e8482602086016113e0565b91505092915050565b60008060008060808587031215611491576114906111bd565b5b600061149f878288016111e8565b94505060206114b0878288016111e8565b935050604085013567ffffffffffffffff8111156114d1576114d06111c2565b5b6114dd87828801611386565b925050606085013567ffffffffffffffff8111156114fe576114fd6111c2565b5b61150a87828801611449565b91505092959194509250565b6000819050919050565b61152981611516565b811461153457600080fd5b50565b60008135905061154681611520565b92915050565b60008060008060008060c08789031215611569576115686111bd565b5b600061157789828a016111e8565b965050602061158889828a01611537565b955050604087013567ffffffffffffffff8111156115a9576115a86111c2565b5b6115b589828a01611386565b945050606087013567ffffffffffffffff8111156115d6576115d56111c2565b5b6115e289828a01611449565b93505060806115f389828a01611308565b92505060a061160489828a01611537565b9150509295509295509295565b600060208284031215611627576116266111bd565b5b6000611635848285016111e8565b91505092915050565b600082825260208201905092915050565b7f5b63616e4368616c6c656e67655d20646964206e6f7420636f6d706c6574652060008201527f616374696f6e20696e2074696d65000000000000000000000000000000000000602082015250565b60006116ab602e8361163e565b91506116b68261164f565b604082019050919050565b600060208201905081810360008301526116da8161169e565b9050919050565b7f5b63616e4368616c6c656e67655d206e6f742061206269646465720000000000600082015250565b6000611717601b8361163e565b9150611722826116e1565b602082019050919050565b600060208201905081810360008301526117468161170a565b9050919050565b611756816111c7565b82525050565b6000602082019050611771600083018461174d565b92915050565b600081519050919050565b600081905092915050565b60005b838110156117ab578082015181840152602081019050611790565b838111156117ba576000848401525b50505050565b60006117cb82611777565b6117d58185611782565b93506117e581856020860161178d565b80840191505092915050565b60006117fd82846117c0565b915081905092915050565b600081519050611817816111d1565b92915050565b600060208284031215611833576118326111bd565b5b600061184184828501611808565b91505092915050565b7f5b63616e4368616c6c656e67655d3a206e6f7420612076616c6964207365637260008201527f6574000000000000000000000000000000000000000000000000000000000000602082015250565b60006118a660228361163e565b91506118b18261184a565b604082019050919050565b600060208201905081810360008301526118d581611899565b9050919050565b7f4e487b7100000000000000000000000000000000000000000000000000000000600052601160045260246000fd5b600061191682611516565b915061192183611516565b9250827fffffffffffffffffffffffffffffffffffffffffffffffffffffffffffffffff03821115611956576119556118dc565b5b828201905092915050565b600061196c82611516565b915061197783611516565b9250817fffffffffffffffffffffffffffffffffffffffffffffffffffffffffffffffff04831182151516156119b0576119af6118dc565b5b828202905092915050565b7f706174682e6c656e67746820213d207369676e6174757265732e6c656e677468600082015250565b60006119f160208361163e565b91506119fc826119bb565b602082019050919050565b60006020820190508181036000830152611a20816119e4565b9050919050565b7f5b63616e53657475705d3a2061756374696f6e735b61756374696f6e49445d2e60008201527f61756374696f6e65657220213d20616464726573732830290000000000000000602082015250565b6000611a8360388361163e565b9150611a8e82611a27565b604082019050919050565b60006020820190508181036000830152611ab281611a76565b9050919050565b611ac2816112df565b82525050565b6000602082019050611add6000830184611ab9565b92915050565b600081519050611af281611520565b92915050565b600060208284031215611b0e57611b0d6111bd565b5b6000611b1c84828501611ae3565b91505092915050565b7f5b63616e53657475705d2062616c616e6365206e6f7420656e6f756768000000600082015250565b6000611b5b601d8361163e565b9150611b6682611b25565b602082019050919050565b60006020820190508181036000830152611b8a81611b4e565b9050919050565b611b9a81611516565b82525050565b6000606082019050611bb56000830186611ab9565b611bc26020830185611ab9565b611bcf6040830184611b91565b949350505050565b60008115159050919050565b611bec81611bd7565b8114611bf757600080fd5b50565b600081519050611c0981611be3565b92915050565b600060208284031215611c2557611c246111bd565b5b6000611c3384828501611bfa565b91505092915050565b7f4e487b7100000000000000000000000000000000000000000000000000000000600052603260045260246000fd5b6000611c7682611516565b91507fffffffffffffffffffffffffffffffffffffffffffffffffffffffffffffffff821415611ca957611ca86118dc565b5b600182019050919050565b7f5b63616e4465636c6172655d20646964206e6f7420636f6d706c65746520616360008201527f74696f6e20696e2074696d650000000000000000000000000000000000000000602082015250565b6000611d10602c8361163e565b9150611d1b82611cb4565b604082019050919050565b60006020820190508181036000830152611d3f81611d03565b9050919050565b7f5b63616e4465636c6172655d206d73672e73656e646572206973206e6f74206160008201527f756374696f6e6565720000000000000000000000000000000000000000000000602082015250565b6000611da260298361163e565b9150611dad82611d46565b604082019050919050565b60006020820190508181036000830152611dd181611d95565b9050919050565b7f5b63616e4465636c6172655d206172726179206c656e6774687320213d203100600082015250565b6000611e0e601f8361163e565b9150611e1982611dd8565b602082019050919050565b60006020820190508181036000830152611e3d81611e01565b9050919050565b7f5b63616e4465636c6172655d3a206e6f7420612076616c696420736563726574600082015250565b6000611e7a60208361163e565b9150611e8582611e44565b602082019050919050565b60006020820190508181036000830152611ea981611e6d565b9050919050565b7f5b63616e536574746c655d2061756374696f6e2077617320616c72656164792060008201527f736574746c656400000000000000000000000000000000000000000000000000602082015250565b6000611f0c60278361163e565b9150611f1782611eb0565b604082019050919050565b60006020820190508181036000830152611f3b81611eff565b9050919050565b7f5b63616e536574746c655d20747269656420746f20736574746c65206265666f60008201527f7265206368616c6c656e676520706572696f6420636f6e636c75646564000000602082015250565b6000611f9e603d8361163e565b9150611fa982611f42565b604082019050919050565b60006020820190508181036000830152611fcd81611f91565b9050919050565b7f5b63616e536574746c655d20636f6d6d69746572206973206e6f74206120706160008201527f727469636970616e7420696e207468652061756374696f6e0000000000000000602082015250565b600061203060388361163e565b915061203b82611fd4565b604082019050919050565b6000602082019050818103600083015261205f81612023565b9050919050565b600060408201905061207b6000830185611ab9565b6120886020830184611b91565b939250505056fea2646970667358221220cb4e30c24255b540660ec60e46e1ced4d9167c90c655005c43359b89b521a3a964736f6c634300080b0033",
  "immutableReferences": {},
  "source": "// SPDX-License-Identifier: UNLICENSED\n\npragma solidity ^0.8.0;\n\nimport \"./libraries/token/ERC20/ERC20.sol\";\n\ncontract TicketAuction {\n\n  // We will manipulate the DELTA variable (seconds) to see how sucessful the monitor is\n    uint constant DELTA = 5000; //TODO: choose your DELTA (in milliseconds)\n\n    // an Auction\n    struct Auction {\n      HashKey[] hashKeys;\n      address auctioneer;\n      address assetName;\n      uint assetAmount;\n      uint startTime;\n      bool settled;\n    }\n\n    // various deadlines for phases of the protocol\n    struct Deadlines {\n      uint declaration;\n      uint challenge;\n    }\n\n    // the hashKey triple, as defied in the paper.\n    struct HashKey {\n      bytes32 secret;\n      address[] path;\n      bytes32[] signatures;\n    }\n\n    // Mappings that store information for our contract\n    mapping(bytes32 => Auction) auctions;\n    mapping(bytes32 => mapping(address => bool)) bidders;\n    mapping(bytes32 => Deadlines) deadlines;\n    mapping(bytes32 => mapping(bytes32 => address)) hashLocks;\n\n    modifier canSetup(bytes32 auctionID, address assetName, uint assetAmount) {\n      require(auctions[auctionID].auctioneer == address(0), \"[canSetup]: auctions[auctionID].auctioneer != address(0)\");\n      require(ERC20(assetName).balanceOf(msg.sender) >= assetAmount, \"[canSetup] balance not enough\");\n      _;\n    }\n\n    modifier canDeclare(\n      bytes32 auctionID,\n      bytes32 secret,\n      address[] memory path, \n      bytes32[] memory signatures) {\n      require(block.timestamp <= deadlines[auctionID].declaration, \"[canDeclare] did not complete action in time\");\n      require(msg.sender == auctions[auctionID].auctioneer, \"[canDeclare] msg.sender is not auctioneer\");\n      require(path.length == 1 && signatures.length == 1, \"[canDeclare] array lengths != 1\");\n      require(hashLocks[auctionID][sha256(abi.encode(secret))] != address(0), \"[canDeclare]: not a valid secret\");\n      _;\n    }\n\n    modifier canChallenge(\n      bytes32 auctionID,\n      bytes32 secret,\n      address[] memory path, \n      bytes32[] memory signatures) {\n      require(block.timestamp > deadlines[auctionID].declaration, \"[canChallenge] did not complete action in time\");\n      require(block.timestamp <= deadlines[auctionID].challenge, \"[canChallenge] did not complete action in time\");\n      require(bidders[auctionID][msg.sender] != false, \"[canChallenge] not a bidder\");\n      require(hashLocks[auctionID][sha256(abi.encode(secret))] != address(0), \"[canChallenge]: not a valid secret\");\n      // make sure that your challenge is made in time (dependent on the path/signature length)\n      require(block.timestamp <= auctions[auctionID].startTime + DELTA * (path.length + 1));\n      require(path.length == signatures.length, \"path.length != signatures.length\");\n      _;\n    }\n\n    modifier canSettle(bytes32 auctionID) {\n      require(!auctions[auctionID].settled, \"[canSettle] auction was already settled\");\n      require(block.timestamp > deadlines[auctionID].challenge, \"[canSettle] tried to settle before challenge period concluded\");\n      require(bidders[auctionID][msg.sender] == true || msg.sender == auctions[auctionID].auctioneer, \"[canSettle] commiter is not a participant in the auction\");\n      _;\n    }\n\n    // Auctioneer will call this to set up the auction\n    function setup(\n      bytes32 auctionID, \n      uint assetAmount, \n      address[] memory participants,\n      bytes32[] memory locks,\n      address assetName,\n      uint startTime) public canSetup(auctionID, assetName, assetAmount) {\n      // escrow the tickets\n      ERC20(auctions[auctionID].assetName).transferFrom(msg.sender, address(this), assetAmount);\n      auctions[auctionID].assetAmount = assetAmount;\n\n      auctions[auctionID].auctioneer = msg.sender;\n      auctions[auctionID].assetName = assetName;\n      auctions[auctionID].startTime = startTime;\n      \n      // mapping participants with the hashLocks (called locks here to avoid naming conflicts)\n      for (uint i = 0; i < participants.length; i++) {\n        bidders[auctionID][participants[i]] = true;\n        hashLocks[auctionID][locks[i]] = participants[i];\n      } \n\n      // set up deadlines\n      deadlines[auctionID].declaration = startTime + 2 * DELTA;\n      deadlines[auctionID].challenge = startTime + (participants.length + 2) * DELTA;\n    }\n\n    // Auctioneer will call this function to post the winning hashKey\n    function declare(\n      bytes32 auctionID, \n      bytes32 secret, \n      address[] memory path, \n      bytes32[] memory signatures\n    ) public canDeclare(auctionID, secret, path, signatures) {\n      auctions[auctionID].hashKeys.push(HashKey(secret, path, signatures));\n    }\n\n    // Bidders will call this function to challenge the winner\n    // if they see a different hashKey on the coinAuction.\n    function challenge(\n      bytes32 auctionID, \n      bytes32 secret, \n      address[] memory path, \n      bytes32[] memory signatures\n    ) public canChallenge(auctionID, secret, path, signatures) {\n      auctions[auctionID].hashKeys.push(HashKey(secret, path, signatures));\n    }\n\n    // All participatns can call this function.\n    function settle(bytes32 auctionID) public canSettle(auctionID) {\n      if (auctions[auctionID].hashKeys.length == 1) {\n        ERC20(auctions[auctionID].assetName).transfer(hashLocks[auctionID][auctions[auctionID].hashKeys[0].secret], auctions[auctionID].assetAmount);\n      } else {\n        // refund \n        ERC20(auctions[auctionID].assetName).transfer(auctions[auctionID].auctioneer, auctions[auctionID].assetAmount);\n      }\n      auctions[auctionID].settled = true;\n    }\n}",
  "sourcePath": "/Users/parker/Brown/research/auction/contracts/TicketAuction.sol",
  "compiler": {
    "name": "solc",
    "version": "0.8.11+commit.d7f03943.Emscripten.clang"
  },
  "schemaVersion": "3.4.3",
  "updatedAt": "2022-01-02T23:11:15.832Z",
  "devdoc": {
    "kind": "dev",
    "methods": {},
    "version": 1
  },
  "userdoc": {
    "kind": "user",
    "methods": {},
    "version": 1
  }
}